:020000040800F2
:10000000D80A002005010008693B000805340008F3
:10001000E1380008D5050008DD45000800000000B3
:10002000000000000000000000000000653D000826
:10003000D7060008000000002D3C0008C13F000862
:100040001F0100081F0100081F0100081F01000810
:100050001F0100081F0100081F0100081F01000800
:100060001F0100081F0100081F0100081F010008F0
:100070001F0100081F0100087D060008890600080E
:1000800095060008A1060008190400081F010008D1
:100090001F0100081F0100081F0100081F010008C0
:1000A0001F0100081F0100081F0100081F010008B0
:1000B000414000081F0100081F0100081F0100083F
:1000C0001F0100081F0100081F0100081F01000890
:1000D0001F010008A94500081F0100081F010008B2
:1000E0001F0100081F0100081F010008DFF810D0E1
:1000F00000F054F9004800471D460008AFF30080A7
:10010000D80A00200648804706480047FEE7FEE779
:10011000FEE7FEE7FEE7FEE7FEE7FEE7FEE7FEE7B7
:100120003D400008ED000008202A04DB203A21FAB7
:1001300002F00021704721FA02F3D040C2F1200200
:10014000914008431946704740EA01039B0703D0DA
:1001500009E008C9121F08C0042AFAD203E011F806
:10016000013B00F8013B521EF9D27047D2B201E0C8
:1001700000F8012B491EFBD270470022F6E710B5AC
:1001800013460A4604461946FFF7F0FF204610BD05
:100190002DE9FE4F81EA030404F0004421F0004100
:1001A00000944FF0000B23F0004350EA01045ED0AE
:1001B00052EA03045BD0C3F30A54C1F30A552C443A
:1001C000A4F2F3340194A0FB0254C1F3130141F4EF
:1001D0008011C3F3130343F4801301FB024400FBBB
:1001E000034E840A970A44EA815447EA8357A4FBE2
:1001F000076802958D0A05FB07854FEA932C04FBDF
:100200000C542705029D4FEA065847EA1637B5EB0E
:1002100008056EEB070C870E920E47EA811742EA3B
:100220008312A7FB0201B6EB0B0164EB00042B0D5C
:1002300043EA0C335E1844EB1C50DA465146E7FBA8
:100240000201C5F313044FEA0B3343EA14534FEA98
:100250000432019C43EA0603A4F10C040294009CBE
:10026000CDE900B400F04BF803B0BDE8F08F0020FA
:100270000146F9E70EB5C10F80EAE0700844CA07ED
:10028000002140F233438DE80E000A460B4600F091
:1002900036F803B000BD0EB540F2334102910021A3
:1002A000CDE900110A460B4600F029F803B000BD65
:1002B00030B5041E71F1000404DB4FF000444042ED
:1002C00064EB0101141E73F1000405DB1C464FF0C2
:1002D0000043524263EB0403994208BF904230BD91
:1002E00010B5141E73F1000408DA401C41F100013E
:1002F00092185B411A4301D120F0010010BD2DE995
:10030000F04D92469B4611B1B1FA81F202E0B0FA8B
:1003100080F22032904600F053F804460F4640EA3F
:100320000A0041EA0B0153465A46084313D01146CE
:1003300053EA010019D0C8F140025046FFF7F4FE1D
:1003400005460E4650465946424600F039F80843E5
:1003500005D0012004E020463946BDE8F08D00209C
:10036000054346EAE0762C4337430A986305E40ADE
:10037000A0EB08000022FD0A44EA47540A3002D5E7
:1003800000200146E9E7010510196941DDE908454A
:1003900000196941BDE8F04DA2E70000064C074D89
:1003A00006E0E06840F0010394E807009847103445
:1003B000AC42F6D3FFF79EFE984C0008B84C0008FC
:1003C000202A04DB203A00FA02F100207047914015
:1003D000C2F1200320FA03F319439040704730B56F
:1003E0008C1810F8012B12F00F0301D110F8013B0B
:1003F000120906D110F8012B03E010F8015B01F897
:10040000015B5B1EF9D101E001F8013B521EFBD1FB
:10041000A142E6D3002030BD10B5044800F0FFFD36
:10042000BDE81040024800F0FABD0000E8030020DB
:100430001804002070B5044600688168C943C907E4
:1004400017D1816821F00101816001F0BFF90546F3
:100450000AE000BF01F0BAF9401B022804D9206865
:100460008068C043C00706D020688068C043C007CA
:10047000F0D0002070BDA06A40F01000A062E06AD9
:1004800040F00100E062012070BD00002DE9F05F46
:10049000002604463746E683268426614FF020086E
:1004A000B146466103F060FC204603F07BFDDFF8B7
:1004B000A0B04FF4004A01225146584601F080F99D
:1004C0000C21244802F0AAFC0021224802F0A6FCDC
:1004D0000421204802F0A2FC08211E4802F09EFCE4
:1004E000642001F06BF80125B4F91800361AB4F94C
:1004F0001A003F1A022001F061F86D1CEDB245456B
:10050000F2D97011E08378112084A4F81A904D4636
:10051000A4F818900C210F4802F0CEFC00210D48E1
:1005200002F0CAFC04210B4802F0C6FC082109486D
:1005300002F0C2FC074801684D6301688D630068E2
:10054000C56351465846BDE8F05F002201F038B956
:10055000000C01407C050020F8B5002604460096FA
:1005600000688168C943C9072DD0816841F0010145
:100570008160164816490068B0FBF1F000E0401EAB
:1005800000900028FBD101F021F9054616E000BFDC
:1005900001F01CF9401B022810D920688068C04374
:1005A000C0070BD0A06A40F01000A062E06A40F0E3
:1005B0000100E06284F824600120F8BD20688068B2
:1005C000C043C007E4D10020F8BD00008C0100202A
:1005D00040420F00FEE7B0F91810418440F24F226C
:1005E0005143B0F91A2040F24F235A4301EB420124
:1005F000891281847047000000B500F0D1F90349E9
:1006000008800020891C088000BD000070010020C7
:1006100010B50A21018041808180002213490261C6
:10062000426191F90630124C6343436291F90630FE
:1006300064426343836291F9063064426343C36258
:1006400091F906306442634303630A4B43635B42A0
:10065000836391F9063064426343C36391F90610E2
:100660006342594301640448028010BD1402002013
:100670000DDBFFFF00C0FFFF7C010020014800F000
:100680008DBE000050060020014800F087BE00002B
:1006900094060020014800F081BE00009C04002068
:1006A000014800F07BBE0000E004002030B590F867
:1006B00040500124AC40C56B6C60046863604368C3
:1006C000102B036803D099600068C26030BD9A6047
:1006D0000068C16030BD70472DE9F047064600252F
:1006E0004FF44040C6E904052027A846304603F0F1
:1006F0003BFB304603F056FCDFF884A04FF4004982
:1007000001224946504601F05BF800211D4802F0E5
:1007100085FB04211B4802F081FB0821194802F0E7
:100720007DFB4FF47A7000F049FF0124304600F061
:10073000E9F82D1A641CE4B205F58045BC42F5D9F0
:100740006809A6F86A0000210E4802F0B5FB0421F2
:100750000C4802F0B1FB08210A4802F0ADFB094940
:100760000A68C2F834800A68C2F838800968C1F89B
:100770003C8049465046BDE8F047002201F020B8D1
:10078000000C01407C05002072B6FEE72DE9F05F09
:10079000044600F035F94D4800270178E9B1DFF84B
:1007A00030A14C4DDFF8309101291FD0DFF82C81AA
:1007B0004B4E102939D0112967D04A48017841F0B1
:1007C00020010170204602F01EFE204603F0CCFA04
:1007D0002046BDE8F05F03F0E5BB417980794FEA40
:1007E000803001B14042C4E90270EBE72046FFF7D8
:1007F000F2FE204603F005FABAF80000A860B4F94A
:100800002800E860334803F0B0F9286AE060C9F8CE
:100810000870B4F92600C9F80C004D462E4803F0C4
:10082000A4F9286AC000A060CCE7308860B9022033
:100830003080BAF80210C8F80810B4F95C1040F221
:100840005372514349123BE02046FFF7C4FE204655
:1008500003F0D7F9D8F82000A860B4F92800E860C0
:100860001C4803F082F9286AE060C9F80870B4F9FE
:100870002600C9F80C004D46174803F076F9286A9F
:10088000A0603088401E30809CE73088DFF858B088
:1008900060B904203080BAF80410CBF80810B4F81E
:1008A00054105846CBF80C1003F05FF9DBF8201019
:1008B000C8F80810B4F95C0040F253714843411283
:1008C0000648C8F80C1003F050F9BDE77401002089
:1008D000FE01002098020020DC02002040030020DE
:1008E0007C01002072010020840300200B21017094
:1008F0004FF4B96141800C2282710022A0F862207D
:10090000818070472DE9FC4105464FF40340ADF866
:1009100004004FF40440204F01AEADF80600B41CB3
:1009200000221021384600F04BFF0A2301223146F5
:100930001A4801F0A8FD0A2301226946174801F070
:10094000F5FC01221021384600F03AFF0022102168
:10095000384600F035FF0A23012221460F4801F0F6
:1009600092FD0A2301220D48611F01F0DFFC0122E4
:100970001021384600F024FF9DF801109DF800007A
:10098000C1F3400185F868109DF80110800100EB6B
:100990009100BDE8FC810000000801402405002012
:1009A0004FF428711020B1FBF0F07047134A5A2819
:1009B00004D8C0F15A0032F820001BE00F49A0F122
:1009C0005B0301EB8001A1F58051592B02D8B1F8EE
:1009D000980E07E0A0F1B503592B05D8C0F5877034
:1009E00032F82000404205E0A0F20F10592803D849
:1009F000B1F8C80B00B2704700207047000000201B
:100A000010B50446FFF77EFFC0F5804080B2A4F821
:100A10005400B4F86A10401A01D500F58040A4F8DB
:100A2000540080B24FF4B4714843800BE06614F870
:100A3000381B41434FF4B470B1FBF0F200FB1210CD
:100A4000A06380B200F02CF8A087208F80B2FFF75F
:100A5000ADFFE087A08BA18D401A0F4900B2E08462
:100A60004979383C99B10D49B1F95C10002903DD91
:100A7000A0F58040A4F85E00B4F9661034F95E0F6A
:100A800000EB4002114489102181E08010BD002854
:100A9000F2DA00F58040EDE7740100201402002036
:100AA00012495A2803D800BF31F820001AE0A0F1FB
:100AB0005B02592A02D8C0F1B400F5E7A0F1B502F3
:100AC000592A06D801EB8000A0F58050B0F8300D0F
:100AD00007E0A0F20F12592A06D8C0F5B47031F819
:100AE0002000404200B27047002070470000002004
:100AF000F8B500250446009590F82400012808D098
:100B0000012084F824002046FFF794FC060002D060
:100B100053E00220F8BDA06A20F4885040F00200A3
:100B2000A062022001F01AF826490968B1FBF0F032
:100B3000400000E0401E00900028FBD12046FFF757
:100B40000BFD2068816841F00801816000F03EFEE5
:100B5000074608E000F03AFEC01B0A2803D92068C7
:100B60008068000715D4206880680007F2D42068E8
:100B7000816841F00401816000F028FE074612E020
:100B800000F024FEC01B0A280DD9206880684007A9
:100B900009D5A06A20F0020040F01000A06284F89D
:100BA00024500120F8BD206880684007E8D4A06A7E
:100BB00020F0020040F00100A06284F8245030468A
:100BC000F8BD00008C010020F8B50022009290F8DA
:100BD000244083681646012C1CD0012480F8244050
:100BE000D3B14D680B691F249D4226D81F055B1B9E
:100BF000C3F103030D6803EB83039D40A7F5801742
:100C00002F439C40036844F440159C6BAC4327433E
:100C10009F631EE00220F8BD4B68012B05D0826A5D
:100C200042F020028262012213E003689C6B0D688F
:100C30006FF3150444EAC5340AE05B1BC3F10303F8
:100C400003EB83039C40036844F440159C6BAC4366
:100C50009C6303689C68E443E40706D09C6847F201
:100C60000105AC438D692C439C604B7D012B08D161
:100C70008B69B3F5E04F08D0826A42F020028262AD
:100C800001220B7D012B06D00CE003685C6844F464
:100C900080645C60F5E74B7DA3B1826A42F020027C
:100CA000826201220B68072405680A2B10D3EF68C3
:100CB0000A3B03EB43039C40A7438C689C402743BB
:100CC000EF600EE003685C6844F480545C60E9E720
:100CD0002F6903EB43039C40A7438C689C40274348
:100CE0002F610B68102B01D0112B04D103689C6875
:100CF00044F400049C604B68012B10D0022B16D0EA
:100D0000032B03681BD01C6ACD686FF30B042C43C4
:100D10001C620B68102B19D0112B17D037E0036819
:100D20005C69CD686FF30B042C435C61F1E70368E9
:100D30009C69CD686FF30B042C439C61E9E7DC6987
:100D4000CD686FF30B042C43DC61E2E7124C0368BF
:100D5000A34217D19C68240219D49C6844F400046F
:100D60009C600968102912D10C490D4B0968B1FB30
:100D7000F3F101EB8101490000E0491E00910029D7
:100D8000FBD104E0816A41F020018162012280F8F8
:100D900024601046F8BD0000002401408C010020B2
:100DA00040420F0010B50121094800F017F8094C26
:100DB000E18B081A20830121074800F00FF8218CED
:100DC000081A60832046BDE81040FFF7DFBC000032
:100DD000E803002014020020180400200068022903
:100DE00009D0032905D0042901D0C06B7047806C5D
:100DF0007047406C7047006C7047000070B5044647
:100E000090F8240001280DD0012084F82400204609
:100E1000FFF7A2FB01004FF0000005D084F824008A
:100E2000084670BD022070BDA26A42F201039A43D7
:100E300042F48052A2621C4A25681C4B95421FD185
:100E40001E6816F4702F1BD0A66A46F48016A662A0
:100E5000A66AF60500D4E06284F824006FF004006E
:100E600028602068456845F0800545602068446832
:100E70006405D5D48468C4F30234072C04D009E097
:100E8000A66A26F48016E2E7904208D11A6812F4A6
:100E9000702F04D0826842F400428260C0E782680A
:100EA00042F40212F9E70000002801400424014046
:100EB00070B58CB00E460446002530216846FFF719
:100EC0005CF994F82400012818D0012084F824004B
:100ED0001148009020688168C943C90711D0009962
:100EE0008968C943C9070CD00C49884209D14168B7
:100EF000326821F470211143416007E002200CB0F8
:100F000070BDA06A40F02000A0620125002084F896
:100F100024002846F3E70000002801400024014097
:100F2000F8B50024009490F824202546012A12D018
:100F3000012280F824204A681F23072A0DD2066860
:100F4000776B521E02EB820293409F430B689340E3
:100F50001F43776319E00220F8BD06680D2A0AD204
:100F6000376BD21F02EB820293409F430B68934082
:100F70001F43376309E0F76A0D3A02EB82029340A0
:100F80009F430B6893401F43F7620A680723066874
:100F90000A2A0AD3F7680A3A02EB420293409F43B7
:100FA0008B6893401F43F76008E0376902EB420209
:100FB00093409F438B6893401F4337610A68102A10
:100FC00001D0112A20D1124B02689A4217D193689E
:100FD0001B0219D4936843F4000393600968102935
:100FE00012D10C490C4A0968B1FBF2F101EB810105
:100FF000490000E0491E00910029FBD104E0816A0C
:1010000041F020018162012480F824502046F8BD7F
:10101000002401408C01002040420F00704710B5B1
:10102000044600684168890626D50168890723D5EA
:10103000A16AC90603D4A16A41F40071A162816862
:10104000C1F34241072910D1217B71B9416821F0D8
:1010500020014160A06A20F48070A062A06AC004F0
:1010600003D4A06A40F00100A0622046FFF7D6FF3B
:1010700021686FF0120008602068416809062ED5CB
:10108000016849072BD5A16AC90603D4A16A41F4B6
:101090000051A1628168C1F30231072909D041687A
:1010A000490515D48168C1F34241072910D1217B3C
:1010B00071B9416821F080014160A06A20F480503C
:1010C000A062A06AC00503D4A06A40F00100A0623B
:1010D0002046FFF767FE21686FF00C00086020686B
:1010E000416849060DD50068C0070AD0A06A40F4DF
:1010F0008030A062204600F093F821686FF0010074
:10110000086010BD2DE9F0414FF0000704003D4696
:101110007ED0A06A002628B9E66284F824602046C2
:1011200000F080F82046FFF785F9A16AC90600D4CF
:1011300020B1A06A40F01000A06269E0A16A21F429
:10114000885141F00201A1626268E169237B0A4390
:1011500047EA43010A43A1684FF48077B94209D0B6
:10116000012907D05FF0000194F814C0BCF1010F11
:1011700002D00AE03946F7E7F3B1A36A43F020034F
:10118000A362E36A43F00103E3622368D3F804C077
:101190002CF4694C4CEA010CC3F804C021688B683C
:1011A000DFF870C003EA0C0313438B60A168B942F7
:1011B0000BD0012909D00CE0DFF85CC0A3690CEB6F
:1011C00043330B4343F40061DFE7218A0D05A5F5A6
:1011D00080152168CB6A23F470032B43CB6221680E
:1011E00089680E4B1940914208D1E662A16A21F04C
:1011F000020141F00101A162BDE8F081A06A20F086
:10120000020040F01000A062E06A40F00100E062DD
:101210000120F1E7FDF7E1FF00E0FFFFFE0E1FFFF9
:101220007047000010B586B0002100910191029135
:1012300003911E4C03681E4903221E48A34213D18A
:101240008B6943F400738B618B6903F4007304931F
:101250008B6943F008038B61896901F008010491EF
:101260000121CDE9001214E0134CA3421CD18B697B
:1012700043F480638B618B6903F4806304938B690F
:1012800043F008038B618969009201F00801019223
:101290000491694600F0A4F900220321122000F015
:1012A0002BFC122000F01AFC06B010BD00240140F7
:1012B00000100240000C01400028014010B590F8D9
:1012C00021100022022905D00421816380F820200A
:1012D000012010BD01680B6823F00E030B6001684C
:1012E0000B6823F001030B6090F84030C46B0121C0
:1012F00001FA03F3636080F8211080F82020104683
:1013000010BD000010B590F821100024022903D070
:101310000421816301243DE001680A6822F00E0285
:101320000A6001680A6822F001020A601A4A01682C
:10133000914201D1012121E0174A1432914201D199
:1013400010211BE0144A2832914201D1891515E081
:10135000114A3C32914201D189140FE00E4A5032B9
:10136000914202D14FF4803108E00B4A643291423D
:1013700002D14FF4801101E04FF08071064A083A23
:101380005160012180F82110002180F82010416B6C
:1013900001B18847204610BD080002402DE9F05FEA
:1013A000C16B0C6801680B68D0F840C0042202FAD7
:1013B0000CF2494DDFF824A1494E4A4FDFF828B11D
:1013C000DFF828E122422CD05A072AD50A68920673
:1013D00003D40A6822F004020A600168A94201D11C
:1013E000042219E0514501D1402215E0B14202D159
:1013F0004FF4806210E0B94202D14FF480420BE01A
:10140000594502D14FF4802206E0714502D14FF4D4
:10141000800201E04FF080622F4908394A60C16ABA
:101420003BE04FF0020808FA0CF818EA040F4FF0FE
:1014300000094FF0010235D05FEA837832D50B689E
:101440009B0605D40B6823F00A030B6080F821206B
:101450000168A94201D1022219E0514501D120229F
:1014600015E0B14202D14FF4007210E0B94202D14E
:101470004FF400520BE0594502D14FF4003206E020
:10148000714502D14FF4001201E04FF00072124991
:1014900008394A6080F82090816A00291AD0BDE896
:1014A000F05F0847082505FA0CF5254212D01B0706
:1014B00010D50B6823F00E030B6090F84010C36B3F
:1014C00002FA01F15960826380F8212080F82090AF
:1014D000016BE2E7BDE8F09F080002401C000240FB
:1014E0003000024044000240580002406C000240BC
:1014F00030B528B308C8134914221944B1FBF2F1DE
:101500008900C16310498163022141771A6843F65B
:10151000F0718A43D0E900142143D0E902452C43FD
:1015200021430469214344692143846921431143D0
:10153000196000214163012242770177084630BDDE
:10154000012030BDF8FFFDBF0000024070B5044629
:1015500090F82000002501280CD0012084F82000FC
:1015600094F821600020012E06D084F82000022586
:10157000284670BD022070BD022684F82160A06359
:101580002068066826F0010606602046FFF78EF800
:10159000E06A00282068016802D041F00E0106E0F0
:1015A00021F0040101602068016841F00A01016036
:1015B0002068016841F001010160D9E770B5044677
:1015C00000F004F90546601C02D004480078044489
:1015D00000F0FCF8401BA042FAD370BD800100204F
:1015E0002DE9F84FDFF8B891002409F1040A0AF157
:1015F000040B23460F270BF1040EC9E00125A5407B
:101600002A40AA427DD1674ED1F804C0ACEB06084F
:10161000B44532D014DCBCF1030F3AD009DCBCF184
:10162000000F2AD0BCF1010F1CD0BCF1020F31D148
:101630001DE0BCF1110F17D0BCF1120F2AD119E037
:10164000B8F5881F19D006DCB8F5803F15D0B8F57D
:10165000801F1FD111E0B8F5001F0ED0B8F5041F90
:1016600018D10AE0CB6815E0CB681B1D12E0CB68EF
:1016700008330FE0CB680C330CE08B682BB1012BE7
:101680004FF0080303D0456104E0042302E0056144
:1016900000E00023FF2A01D8064601E000F104061D
:1016A0004FEA840501D9A5F12005D6F8008007FA94
:1016B00005FC28EA0C0803FA05F548EA0508C6F80F
:1016C00000804D68ED0062D5374DAE6946F00106E9
:1016D000AE61AD6924F0030605F001050095334DB8
:1016E00006EB050CDCF80850A607360F07FA06F8DB
:1016F00025EA0805DFF8B880404503D14FF000081F
:1017000017E044E0DFF8AC80404502D14FF001081B
:101710000FE0DFF8A480404502D14FF0020808E056
:10172000DFF89880404502D14FF0030801E04FF008
:10173000040808FA06F848EA0508CCF808804D685D
:10174000D9F80060ED034D4601D5164300E09643FD
:101750002E604D68DAF80060AD03554601D516439A
:1017600000E096432E604D68DBF80060ED025D46B8
:1017700001D5164300E096432E604D68DEF8006008
:10178000AD02754601D5164300E096432E60641CF9
:101790000D682A46E5407FF431AFBDE8F88F0000C0
:1017A0000004014000001110001002400000014040
:1017B00000080140000C01400010014000140140ED
:1017C0000AB1016170470904FBE700000148806825
:1017D000704700008001002070B5040025D094F807
:1017E0003D00002520B984F83C50204600F0B8F8B0
:1017F000242084F83D002068016821F00101016087
:101800002068016841F4004101602068016821F40A
:101810000041016000F012FB4D4A6168914201D81D
:101820004C4900E04C49884201D2012070BD4B492F
:101830002368B0FBF1F15E6826F03F060E435E6060
:101840006368934206D94FF4967359434FF47A7301
:10185000B1FBF3F12368491C1E6A26F03F063143B1
:1018600019626168914210D84900401EB0FBF1F244
:10187000521CC2F30B02042A01D2042022E0B0FB66
:10188000F1F0401CC0F30B001CE0A268F2B301EBC6
:10189000C10303EB0116431EB3FBF6F35B1C43F4D9
:1018A00080431B0549D092B301EBC10202EB011149
:1018B000401EB0FBF1F0401CC0F30B0040F4804030
:1018C00040F400402168CA694CF6FF739A43104304
:1018D000C861D4E9071001432068026822F0C00201
:1018E00011430160D4E9030101432068826848F292
:1018F000FF339A4311438160D4E90501084321680D
:10190000CA6822F0FF021043C86001E00EE016E052
:101910002068016841F0010101602564202084F8FD
:101920003D00256384F83E50002070BD01EB410668
:10193000431EB3FBF6F35B1CB3E70120C2E701EBE8
:101940004101401EB0FBF1F0401CC0F30B00B7E7B3
:10195000A086010080841E0000093D0040420F0067
:10196000F0B585B0002406460094019402940394D7
:101970000068284988424AD1274DA86940F00800EC
:10198000A861A869694600F0080004904FF440700F
:10199000009012200190032003902048FFF720FEC2
:1019A0001F48416841F0E06141F002014160E8698F
:1019B00040F40010E861E8691B4D00F40010049049
:1019C0001848802701C5102091C5174845F81049CF
:1019D0006C61AC61EC61FFF78BFD08B1FEF7D4FEE2
:1019E00075636E62104D0F4844351430C5E900042C
:1019F000C5E902472C6180146C61C5E906402846A0
:101A0000FFF776FD08B1FEF7BFFEB5636E6205B065
:101A1000F0BD00000054004000100240000C0140E6
:101A2000000001406C0002409C04002002488168D4
:101A3000027811448160704780010020074810B58A
:101A4000016841F010010160032000F075F80020EA
:101A500000F006F800F024F8002010BD002002403D
:101A600070B50D4D04464FF47A712878B1FBF0F053
:101A70000A490968B1FBF0F000F0A9FE48B9102C42
:101A800007D200222146501E00F036F800206C607C
:101A900070BD012070BD0000800100208C0100207D
:101AA0000C4808B5816941F001018161816901F04B
:101AB00001010091C16941F08051C161C06900F02C
:101AC000805000900448416821F0E06141F00071CD
:101AD000416008BD0010024000000140002809DB01
:101AE00000F01F02012191404009800000F1E02038
:101AF000C0F8001170470000F0B40E4B1B680C4694
:101B0000C3F30223C3F10705042D00D90425191DD1
:101B1000072901D2002300E0DB1E012606FA05F1A9
:101B2000491E214099409E40761E16403143F0BC2C
:101B300002F055BD0CED00E0064900F00702086810
:101B40004FF6FF03184040EA0220034A10430860A2
:101B5000704700000CED00E00000FA0510B529A464
:101B600001461DCC86B08DE81D002AA02A4C0068D5
:101B700004900020012923D002293AD010291DD138
:101B800061682268D20119D5C1F38342C9031DF8E7
:101B9000020009D5616804AAC1F34041515C1F4AA3
:101BA000B2FBF1F1484301E01D4948436168490235
:101BB00004D440005FF00301B0FBF1F006B010BDAB
:101BC000226AC2F30121012903D1920701D5C8037A
:101BD000F4E7022905D1626A920702D549F640402E
:101BE000ECE70329EAD121688903E7D54FF22440C5
:101BF000E4E700F033F96168C1F38131491C490021
:101C0000DAE7000002030405060708090A0B0C0DB9
:101C10000E0F1010010200000010024000127A00A6
:101C200000093D002DE9F84305460078354CC00712
:101C300054D0E0690026C00008D4E06940F080502C
:101C4000E061E069012600F0805000902E480168B4
:101C5000C90512D40168804641F480710160FFF724
:101C6000B5FD074605E000BFFFF7B0FDC01B6428C7
:101C700023D8D8F80000C005F6D5206A10F44070CB
:101C800021D0A98801F4407181421CD0206A1F49EB
:101C9000012220F440700A6000220A602062C0071E
:101CA00011D0FFF793FD074641F2883808E000BFE6
:101CB000FFF78CFDC11B414502D90320BDE8F88325
:101CC000206A8007F4D5206A696820F440700843D0
:101CD00020621EB1E06920F08050E0612878800722
:101CE00005D56068A96820F4404008436060287802
:101CF000C00605D56068E96820F48000084360608C
:101D00000020DBE700100240007000404004424227
:101D10002DE9F0470F46050061D0434E306800F0D2
:101D20000700B84209D2306820F00700384330601D
:101D3000306800F00700B84251D128683B4C810759
:101D400012D5400703D5606840F4E06060602878F1
:101D5000000703D5606840F4605060606068A9685F
:101D600020F0F000084360602878C00728D0686839
:101D7000012810D02168022810D0890700292EDA06
:101D8000616821F0030101436160FFF71FFD804698
:101D900041F288390DE021688903EFE78901EDE719
:101DA000FFF714FDA0EB0801494502D90320BDE867
:101DB000F0876068696800F00C00B0EB810FEFD12C
:101DC000306800F00700B8420BD9306820F00700F7
:101DD00038433060306800F00700B84201D001207D
:101DE000E5E72878400705D56068E96820F4E060F9
:101DF000084360602878000706D56068296920F4E8
:101E0000605040EAC100606000F038F86168084A3C
:101E1000C1F30311515CC8400649086006480068D8
:101E2000FFF71EFE0020C2E7002002400010024023
:101E3000804C00088C0100208401002004480549E2
:101E400000684968044AC1F30221515CC8407047E8
:101E50008C01002000100240904C00080448054905
:101E600000684968044AC1F3C221515CC840704708
:101E70008C01002000100240904C000812A185B097
:101E80000FC98DE80F0014A0144A0068049051682F
:101E9000134801F00C03042B10D0082B0ED1C1F312
:101EA0008343C9031DF803000AD5516804AAC1F38E
:101EB0004041515C0A4A5043B0FBF1F005B0704715
:101EC00008494843FAE70000020304050607080929
:101ED0000A0B0C0D0E0F1010010200000010024042
:101EE00000127A0000093D002DE9F84F040070D07F
:101EF0002078C04DC00749D06868C0F38100012830
:101F000007D06868C0F38100022809D16868C0035F
:101F100006D52868800339D560680028E7D035E009
:101F20006068B0F5803F0BD010B1B0F5A02F11D094
:101F3000286820F480302860286820F4802002E09F
:101F4000286840F480302860606890B1FFF73EFC5C
:101F500006460AE0286840F480202860F0E700BFC9
:101F6000FFF734FC801B642873D828688003F7D5FA
:101F70000CE0FFF72BFC064605E000BFFFF726FC50
:101F8000801B6428F0D828688003F7D420789A4E04
:101F900080074FF001094FF0000839D5686810F04C
:101FA0000C0F07D06868C0F38100022809D1686867
:101FB000C00306D42868800714D52069012808D1F9
:101FC00010E02069B0B1C6F80090FFF7FFFB0746AC
:101FD00005E00AE1FFF7FAFBC01B0228C4D8286815
:101FE0008007F7D52868616920F0F80040EAC10051
:101FF00028600DE0C6F80080FFF7E8FB074604E024
:10200000FFF7E4FBC01B022823D828688007F7D419
:10201000207800072CD57948A169D9B1C0F8009083
:10202000FFF7D4FB074604E0FFF7D0FBC01B0228F4
:102030000FD8686A8007F7D571484FF4FA510068E5
:10204000B0FBF1F0009000BF0098411E0091FAD261
:102050000EE080E0C0F80080FFF7B8FB074604E020
:10206000FFF7B4FBC01B022875D8686A8007F7D455
:102070002078400760D5E8690027C00008D4E869E7
:1020800040F08050E861E869012700F0805000903E
:102090005C480168C90513D40168834641F4807126
:1020A0000160FFF793FB824606E000BFFFF78EFB5F
:1020B000A0EB0A0064284ED8DBF80000C005F5D577
:1020C000E06801280AD008B1052813D0286A20F05A
:1020D00001002862286A20F0040002E0286A40F02B
:1020E00001002862E06841F2883B98B1FFF76EFB7F
:1020F00082460BE0286A40F004002862EEE700BF49
:10210000FFF764FBA0EB0A0159455AD8286A8007FB
:10211000F6D50CE0FFF75AFB824605E0FFF756FBC9
:10212000A0EB0A0159454CD8286A8007F6D41FB1A4
:10213000E86920F08050E861E06988B36968C1F31C
:102140008101022944D00228C6F8608004D0FFF73C
:102150003DFB044638E034E0FFF738FB074604E077
:10216000FFF734FBC01B02282BD828688001F7D466
:10217000206AB0F5803F05D16868A16820F400307E
:1021800008436860D4E908010843696821F47411C0
:1021900008436860C6F86090FFF718FB044606E045
:1021A00025E000BFFFF712FB001B022809D82868B2
:1021B0008001F7D51BE000BFFFF708FB001B0228DA
:1021C00002D90320BDE8F88F28688001F4D40EE01E
:1021D0000128F7D06868226A00F48031914204D166
:1021E000616A00F47010884201D00120EAE7002003
:1021F000E8E7000000100240000042428004424232
:102200008C0100200070004070B5040009D0606AA5
:10221000002540B125616561A56294F8510040B187
:102220000CE0012070BD6068B0F5827FF4D0E561FC
:10223000F2E784F85050204600F040F8022084F87D
:1022400051002068016821F040010160A0882189C7
:1022500000F4827001F404410843A18901F4006193
:102260000843217C01F002010843217D01F00101B6
:102270000843218B01F400710843217F01F03801EC
:10228000084394F8201001F080010843218D01F4E7
:102290000051084321680860A069042101EA104048
:1022A000216848602068C16921F40061C1616565E9
:1022B000012084F85100002070BD000030B585B0C9
:1022C0000024009401940294039400681449884205
:1022D00023D11448816941F480518161816901F4FD
:1022E00080510491816941F00401816180690E4D42
:1022F00000F004000490A020009002200190032030
:10230000039069462846FFF76BF94020CDE90004A9
:10231000694628460294FFF763F905B030BD000016
:102320000030014000100240000801402DE9F84F44
:10233000044640680025984616460F464FF0040BA9
:10234000B0F5827F01D1A06888B194F850000128CF
:1023500018D0012084F85000FFF738FA814694F82D
:1023600051004FF0000A01280ED0022582E084F8C7
:1023700051B013460A462046CDF8008000F036F9E9
:10238000BDE8F88F0220FBE7002F72D0002E70D03E
:1023900084F851B0C4F854A0A763A687E687C4F8B0
:1023A00030A0A4F834A0A4F836A0C4F840A0C4F823
:1023B00044A0A068B0F5004F09D12068016821F061
:1023C000400101602068016821F4804101602068BB
:1023D0000168490603D4016841F040010160E068EA
:1023E000D8B139E020688168C90709D0007BA16BAA
:1023F0000870A06B401CA063E08F401EE0870CE0DB
:10240000FFF7E4F9A0EB0901414503D3B8F1FF3F21
:1024100003D036E0B8F1000F33D0E08F0028E1D1CF
:102420001DE020688168C90709D0C068A16B0880D9
:10243000A06B801CA063E08F401EE0870CE0FFF7DC
:10244000C5F9A0EB0901414503D3B8F1FF3F03D023
:1024500017E0B8F1000F14D0E08F0028E1D14A4610
:102460004146204601F0E3FB08B120206065606D25
:1024700000B10125012084F8510084F850A02846BD
:102480007EE70325F6E72DE9F84F044690F8500063
:1024900000271D461646894601280DD04FF0010B36
:1024A00084F850B0FFF792F9804694F85100BA468C
:1024B000012804D0022793E00220BDE8F88FB9F18B
:1024C000000F73D0002E71D0032084F85100C4F89F
:1024D00054A0C4F83090A686E686C4F838A0A4F8C4
:1024E0003CA0A4F83EA0C4F844A0C4F840A0A06852
:1024F000B0F5004F09D12068016821F0400101606A
:102500002068016841F48041016020680168490643
:1025100003D4016841F040010160E068B0F5006F4C
:10252000606803D030B3012E24D041E008B1012E01
:102530001CD1206B21680088C86006E02068816893
:10254000890709D5216B0988C160206B801C206335
:10255000E08E401EE08609E0FFF738F9A0EB0800A6
:10256000A84202D3681C01D031E07DB3E08E002880
:10257000E4D120E0206B21680078087306E0206831
:102580008168890709D5216B09780173206B401C8C
:102590002063E08E401EE0860AE0FFF717F9A0EB0B
:1025A0000800A84203D3681C02D010E017E06DB108
:1025B000E08E0028E3D142462946204601F065FB23
:1025C00008B120206065A06818B106E0FFE7032786
:1025D00006E02068C16880680090606D00B1012746
:1025E00084F851B084F850A0384666E72DE9F84FDA
:1025F000044690F8500000270A9E1D4692468B46DE
:102600004FF0010901280ED0012084F85000FFF797
:10261000DDF8804694F85100616801280CD0B1F5CE
:10262000827F07D102E00220BDE8F88FA16809B9D6
:10263000042801D00227C2E0BBF1000F27D0BAF175
:10264000000F24D01DB394F85100042802D00520B7
:1026500084F8510000206065C4F838A0E587A5879C
:10266000C4F830B0E586A5862064606420680168FF
:10267000490603D4016841F040010160E068B0F50B
:10268000006F606805D0E8B3012D46D07FE00127D8
:1026900095E008B1012D39D1206B21680088C86010
:1026A000206B801C2063E08E401EE0862EE02068B8
:1026B000816889070FD5E18E69B1B9F1010F0AD19F
:1026C000216B0988C160206B801C2063E08E401E56
:1026D000E0864FF0000920688168C9070CD0E18FBF
:1026E00051B1C068A16B0880A06B801CA063E08F13
:1026F000401EE0874FF00109FFF768F8A0EB0800E3
:10270000B04200E009E001D3701C50D1E08E0028F7
:10271000CDD1E08F0028CAD13FE0206B216800783E
:102720000873206B401C2063E08E401EE0862EE084
:102730002068816889070FD5E18E69B1B9F1010F71
:102740000AD1216B09780173206B401C2063E08E55
:10275000401EE0864FF0000920688168C9070CD050
:10276000E18F51B1C068A16B0870A06B401CA063E1
:10277000E08F401EE0874FF00109FFF727F8A0EB3C
:102780000800B04202D3701C01D010E07EB1E08E90
:102790000028CDD1E08F0028CAD1424631462046DC
:1027A00001F073FA28B101272020606507E00327B4
:1027B00005E0A06818B92068C16880680090012011
:1027C00084F85100002084F8500038462CE710B5FA
:1027D000401EB0F1807F01D3012010BD4FF0E024F6
:1027E00060610F21601701F0FAFE0020A061072050
:1027F0002061002010BD7047704710B590F83C2054
:10280000012A22D0012280F83C20CA688C6822F478
:10281000407222434C6822F4806222430C6822F406
:10282000006222430C6922F4805222434C6922F454
:1028300000522243C969002322F480420A430168FE
:102840004A6480F83C30002010BD022010BD00001A
:1028500070B590F83C20012A26D0012480F83C4035
:10286000022280F83D2003685A689D6822F07006B5
:102870000A6832435A600D4B02689A4208D0B2F19E
:10288000804F05D00A4B9A4202D00A4B9A4204D19B
:10289000496825F080031943916080F83D4000218C
:1028A00080F83C10084670BD022070BD002C01402D
:1028B000000400400008004010B5040003D094F864
:1028C0003D0010B107E0012010BD002084F83C005D
:1028D000204600F01FF8022084F83D00211D2068EA
:1028E00001F0B4FB012084F8460084F83E0084F82F
:1028F0003F0084F8400084F8410084F8420084F8E6
:10290000430084F8440084F8450084F83D0000202A
:1029100010BD000008B5114A01681148914208D164
:10292000816941F400618161806900F40060009078
:1029300008BDB1F1804FFBD1C16941F00101C16116
:10294000C069002200F0010000900F211C20FFF759
:10295000D3F8BDE808401C20FFF7C0B8002C0140A8
:102960000010024090F83D10012901D0012070476D
:10297000022180F83D100168CA6842F00102CA6075
:1029800000680B49884208D0B0F1804F05D0094952
:10299000884202D00849884204D1816801F00701C9
:1029A000062903D0016841F0010101600020704751
:1029B000002C0140000400400008004070B50446AF
:1029C00090F83C00012817D0012584F83C500220E3
:1029D00084F83D002068826822F0770222F47F426A
:1029E00082600868502830D00DDC20284DD005DCEE
:1029F00098B310283BD148E0022070BD302844D065
:102A0000402834D139E0602828D0702806D0B0F5AD
:102A1000805F2CD0B0F5005F29D10AE0CB68D1E906
:102A20000121206801F055FB2068816841F07701A1
:102A300009E0CB68D1E90121206801F04AFB206858
:102A4000816841F48041816011E0CA68496820686A
:102A500001F0F4FB5021206807E016E0CA684968DD
:102A6000206801F0FCFB6021206801F03CFB84F849
:102A70003D50002084F83C0070BDCA684968206859
:102A800001F0DCFB40212068EFE722680146104698
:102A9000EBE7704770B50446006801694FF0000528
:102AA000C943890715D4C168C943890711D4E91EF0
:102AB000016101202077206880698007204602D0CC
:102AC000FFF7E7FF04E000F0E7F8204600F0A4F984
:102AD000257720680169C943490717D4C168C943EC
:102AE000490713D46FF004010161022020772068A8
:102AF000806910F4407F204602D0FFF7CAFF04E04F
:102B000000F0CAF8204600F087F9257720680169AF
:102B1000C943090716D4C168C943090712D46FF025
:102B200008010161042020772068C06980072046E1
:102B300002D0FFF7AEFF04E000F0AEF8204600F050
:102B40006BF9257720680169C943C90617D4C168A4
:102B5000C943C90613D46FF0100101610820207722
:102B60002068C06910F4407F204602D0FFF791FF33
:102B700004E000F091F8204600F04EF92577206837
:102B80000169C943C90708D1C168C943C90704D14C
:102B9000891E0161204600F0C7F920680169C94318
:102BA000090609D4C168C943090605D46FF080013C
:102BB00001612046FFF71FFE20680169C9434906ED
:102BC00009D4C168C943490605D46FF040010161C9
:102BD000204600F0E1F920680169C94389060BD459
:102BE000C168C943890607D46FF0200101612046FE
:102BF000BDE87040FFF700BE70BD000000B585B0B5
:102C00000021009101910291039100680C498842D2
:102C100013D10C48816941F00401816180696946E2
:102C200000F0040004904FF4E06000900220019056
:102C3000032003900448FEF7D3FC05B000BD00005C
:102C4000002C0140001002400008014010B504466D
:102C500090F83C0001280AD0012084F83C0042B1E1
:102C6000042A0AD0082A0CD00C2A11D10DE0022027
:102C700010BD206801F040FA0AE0206801F064FA13
:102C800006E0206801F08CFA02E0206801F0B4FA56
:102C9000002084F83C0010BD704710B5040003D03C
:102CA00094F83D0010B107E0012010BD002084F829
:102CB0003C00204600F01EF8022084F83D00211D53
:102CC000206801F0C3F9012084F8460084F83E0032
:102CD00084F83F0084F8400084F8410084F8420002
:102CE00084F8430084F8440084F8450084F83D00EB
:102CF000002010BD704770B5044690F83C000D46AA
:102D000001280AD0012084F83C0042B1042A18D0DE
:102D1000082A2AD00C2A4DD139E0022070BD206843
:102D200001F0EAF92068816941F0080181612068B9
:102D3000816921F004018161206881692A69114358
:102D400011E0206801F000FA2068816941F4006117
:102D500081612068816921F48061816120688169D5
:102D60002A6941EA0221816124E0206801F018FA11
:102D70002068C16941F00801C1612068C16921F082
:102D80000401C1612068C1692A69114311E020680A
:102D900001F032FA2068C16941F40061C161206824
:102DA000C16921F48061C1612068C1692A6941EA71
:102DB0000221C161002084F83C0070BD10B5040000
:102DC00003D094F83D0010B107E0012010BD0020B1
:102DD00084F83C00204600F01EF8022084F83D00F4
:102DE000211D206801F032F9012084F8460084F8A2
:102DF0003E0084F83F0084F8400084F8410084F8E5
:102E0000420084F8430084F8440084F8450084F8C4
:102E10003D00002010BD70477047000010B504460B
:102E2000022249B104290ED0082913D094F8410098
:102E3000012816D0012010BD94F83E000128F9D1D8
:102E400084F83E200FE094F83F000128F2D184F886
:102E50003F2008E094F840000128EBD184F840209E
:102E600001E084F841200122206801F025F90F4992
:102E70002068884203D1426C42F4004242642068D8
:102E8000884208D0B0F1804F05D00949884202D06D
:102E90000849884204D1816801F00701062903D05E
:102EA000016841F001010160002010BD002C0140CB
:102EB000000400400008004030B504460D4600689C
:102EC000002201F0F9F8174B41F2111120688A1025
:102ED000984209D1036A0B4206D1036A134203D117
:102EE000436C23F4004343642068036A0B4206D119
:102EF000016A114203D1016821F001010160012042
:102F00003DB1042D08D0082D09D084F841000020DF
:102F100030BD84F83E00FAE784F83F00F7E784F814
:102F20004000F4E7002C0140184910B5884227D131
:102F30001748FDF7E7FCC0F5804115488165B0F8FA
:102F40006A20891A01D501F580410A468165B0F8E9
:102F50006210104B511A09B2A0F85C105B7983B172
:102F6000002903DDA1F58041A0F85C10B0F96010E4
:102F700030F95C3F03EB4303194489108180C28020
:102F800010BD0029F2DA01F58041EDE7C40500200B
:102F900014020020740100207047704710B50446E9
:102FA0000068416994F83D20C1F3C011212A0BD17A
:102FB00051B1416921F080014161606B08B1FEF7B8
:102FC0007DF9204601F0F8F92068416994F83E2027
:102FD000C1F38011222A0BD151B1416921F0400186
:102FE0004161A06B08B1FEF769F9204601F0CCF908
:102FF000002010BD70470000F8B502680446106854
:10300000D168536910F00F0F4FF0000553D003F053
:10301000010601F4907737435FD0C20705D0CA0597
:1030200003D5226C42F001022264420705D5DA077B
:1030300003D0226C42F002022264820705D5DA072F
:1030400003D0226C42F004022264020707D501F08B
:103050002002324303D0226C42F008022264226C28
:10306000002A34D0800604D5880602D5204601F017
:10307000ACF920684069216CC0F38010090700D4C6
:1030800030B3204601F080F92068416949061BD51C
:10309000416921F040014161A06BA8B158494163E9
:1030A000A06BFEF72FF9002811D0A06B416B01B087
:1030B000BDE8F040084783060FD58B060DD52046A6
:1030C000BDE8F84001F081B92046FFF793FFF8BD55
:1030D0002046FFF78FFF2564F8BD266B2023012EC5
:1030E00052D1C60650D5CE064ED510685068009015
:1030F000506940062AD5A16B086840680004000C9E
:10310000EAD0A68D8642E7D9E0858869202818D0C4
:10311000D06820F48070D0602068416921F00101FE
:1031200041612068416921F04001416184F83E30ED
:1031300025632068C16821F01001C160A06BFEF713
:10314000BDF8A08DE18D401A81B219E0A08DE18D0E
:10315000401A81B2E08D0028BED00029BCD0D068D2
:1031600020F49070D0602068426922F00102426130
:1031700084F83E3025632068C26822F01002C260E5
:103180002046FFF70AFFF8BD05062BD50D0629D509
:1031900094F83D002128F6D1A068B0F5805F01D1F8
:1031A0002069B0B1206A411C216221680078486022
:1031B000E08C401E0004000CE084E4D12068C1686B
:1031C00021F08001C1602068C16841F04001C16008
:1031D000F8BD206A0088C0F308005060206A801C97
:1031E0002062E5E74006F3D54806F1D5D1682046D0
:1031F00021F04001D16084F83D3000F001F9F8BDC4
:103200008342000870B5040004D094F83D00002506
:1032100010B106E0012070BD84F83C50204600F05B
:1032200023F8242084F83D002068C16821F400516F
:10323000C160204601F024F92068016921F4904121
:1032400001612068416921F02A0141612068C1685B
:1032500041F40051C1602564202084F83D0084F8C9
:103260003E00002070BD0000F0B585B00024064689
:10327000009401940294039400682F49884259D124
:103280002E48816941F480418161816901F4804166
:103290000491816941F0080181618069284D00F045
:1032A0000800049040200090022001900320039029
:1032B00069462846FEF794F98027CDE900746946EF
:1032C00028460294FEF78CF91E48416841F0E061FF
:1032D00041F0040141601D4D1B4801C5102091C5FE
:1032E0001A4845F810496C61AC61EC61FEF700F9D1
:1032F00008B1FDF749FA75636E62144D1248443502
:103300001430C5E90004C5E902472C6180146C61E2
:10331000C5E906402846FEF7EBF808B1FDF734FA98
:10332000B56300220E2125206E62FEF7E5FB252005
:10333000FEF7D4FB05B0F0BD00380140001002409C
:10334000000C0140000001404400024050060020F3
:1033500090F83E30202B0ED159B152B190F83C304C
:10336000012B08D0012380F83C300023036301F0D7
:10337000E3B8012070470220704770477047000093
:1033800070B5044690F83D00202830D169B362B38F
:1033900094F83C0001282AD0012084F83C002162E6
:1033A000A284E28400252564212084F83D00636B1B
:1033B00010489862636B1048D862636B0F481863BB
:1033C000606B134645632668606B321DFEF7BEF8DE
:1033D00021686FF04000086084F83C502068416923
:1033E00041F080014161002070BD012070BD0220CC
:1033F00070BD0000514300087F430008934200085D
:1034000070477047FEE730B5B0F976208168B0F9B3
:10341000744001FB02F5C368614303FB145503FBD1
:1034200002112D130913C0E9045130BD70B58CB0E1
:1034300000251C2168460A95FCF79FFE1F4807954A
:10344000089509951C498560016001240473057580
:1034500045604FF460210461C161FDF753FE08B17E
:10346000FDF792F94FF4A0200A900AA91348FDF73E
:103470001FFD08B1FDF788F90826CDE90064700248
:1034800006908DF81550049402948DF814506946F6
:103490000A480395FDF798FB08B1FDF775F9CDE9EA
:1034A000076407A905480994FDF73AFD002801D0F3
:1034B000FDF76AF90CB070BD00240140E80300205C
:1034C00070B58AB01C216846FCF757FE00251A48E3
:1034D00007950895099517498560016001240473D3
:1034E000057545604FF460210461C161FDF70AFE76
:1034F00008B1FDF749F90926CDE900648DF81550AA
:10350000049402948DF8145069460B480395FDF716
:103510005BFB08B1FDF738F9CDE9076407A9064858
:103520000994FDF7FDFC002801D0FDF72DF90AB044
:1035300070BD00000028014018040020154808B59F
:10354000416941F00101416140690E2100F0010033
:10355000009000220846FEF7CFFA0E20FEF7BEFAD2
:1035600000220E210F20FEF7C7FA0F20FEF7B6FA51
:1035700000220E211020FEF7BFFA1020FEF7AEFA4F
:1035800000220E211120FEF7B7FABDE808401120F5
:10359000FEF7A4BA001002402DE9F04385B00025E3
:1035A00036480095019502950395816941F0200107
:1035B0008161816901F020010491816941F0040178
:1035C0008161816901F004010491816941F0080180
:1035D00081618069DFF8A88000F008000490012272
:1035E00010214046FEF7ECF8DFF8989000224FF4E7
:1035F00070414846FEF7E4F84FF480570022394600
:103600004046FEF7DDF848F20400CDE900056946C2
:1036100040460295FDF7E4FF01241020CDE90004A7
:103620000294694640460394FDF7DAFF4FF4E04008
:10363000CDE900040226CDE9024669464846FDF779
:10364000CFFFE003CDE900040294694648460394A5
:10365000FDF7C6FFCDE90074CDE902466946404654
:10366000FDF7BEFF3820CDE90005694648460295C2
:10367000FDF7B6FF05B0BDE8F08300000010024082
:1036800000080140000C01400D4810B50B490160D5
:103690000C49416000214FF480428160C0E903126F
:1036A00041618161C1610162FEF796F8002803D093
:1036B000BDE81040FDF768B810BD000000540040A0
:1036C00048040020A0860100114810B50F49016090
:1036D0004FF48271416000214FF40062C0E9021290
:1036E0000222026101224261520282611022C0E97B
:1036F0000721416281620A21C162FEF785FD00282F
:1037000003D0BDE81040FDF73FB810BD00300140C8
:103710002405002010B596B000240F941094119445
:10372000129413941C2168461494FCF726FD202162
:1037300007A8FCF722FD36483449C0E900142021CF
:10374000816040F6C901C0E903148021C0E9054148
:10375000FFF7B2F808B1FDF717F84FF480500F905B
:103760000FA92B48FFF72AF908B1FDF70DF82848F3
:10377000FFF724FB08B1FDF707F8139413A92448B9
:103780001494FFF765F808B1FCF7FEFF6020CDE95F
:1037900000040294039404940594002269461C4892
:1037A0000694FFF7A8FA08B1FCF7EEFF0422694679
:1037B0001748FFF7A0FA08B1FCF7E6FF08226946B0
:1037C0001348FFF798FA08B1FCF7DEFF40F69800BF
:1037D00001900C2269460E48FFF78DFA08B1FCF7FC
:1037E000D3FF0794089409944FF400500A94CDE94C
:1037F0000B4007A906480E94FEF7FFFF08B1FCF73F
:10380000C3FF0348FFF7FAF916B010BD002C0140C2
:103810007C05002010B58EB000240794089409940C
:103820000A940B941C2168460C94FCF7A6FC1D48D6
:103830004FF0804101604721C0E9011440F2E731B7
:10384000C0E9031480218161FFF736F808B1FCF765
:103850009BFF4FF48050079007A91248FFF7AEF87E
:1038600008B1FCF791FF0F48FFF717FA08B1FCF712
:103870008BFF0B940BA90B480C94FEF7E9FF08B1E2
:10388000FCF782FF009401940294002269460548E7
:103890000494FFF7DBF9002801D0FCF775FF0EB0A8
:1038A00010BD0000C40500200C4810B50A49016095
:1038B0004FF4E1314160002181600C22C160C0E918
:1038C00004128161C161FFF79DFC002803D0BDE8AF
:1038D0001040FCF759BF10BD003801400C06002015
:1038E000FEE7000070B5094DFF231A4605F5807606
:1038F00006E000BF10F8014B54402A5D5A40335D8A
:10390000491E89B2F6D243EA022070BDE0470008A2
:103910002DE9F05F884605461F46144650218E4823
:10392000FCF72BFCA8F1020081B22846FFF7DAFF72
:10393000894E0146A6F8460005EB080030F8020C57
:1039400042BA8648A6F8442091422ED12978317097
:1039500001292AD16A7872706988002391FA91FC52
:103960007F49A6F802C04FF0010ADFF8F8910988F4
:1039700011E000BF09EB0318B8F80080E04502D160
:1039800086F84E3009E08B4203D100BF86F84AA08A
:103990000FE05B1CDBB28B42ECD9032A0CD04FF05A
:1039A000080B062A5AD0102A7ED0017841F008016F
:1039B00001700020BDE8F09FA88840BAB0804200A6
:1039C000B27196F84E2002448A4202D9511A401A26
:1039D00080B200211FE000BF96F84E20531809EB7B
:1039E0000312D2E900321B0E022B02D0012B0BD0A6
:1039F0000FE0138806EB41021381537A82F83030CE
:103A0000137A82F8313004E006EB4103127883F830
:103A10003120491CC9B28142DED3307820707078E1
:103A20006070B079A0704C49B2793031E01CFCF77D
:103A30008BFBB1792046C91CFFF754FFA6F848005C
:103A4000B279E01C96F849101154B179241D96F80A
:103A500048000855B079401D38807AE096F84E103D
:103A600009EB0110D0E90021A888120E40BAA6F88F
:103A70004C00012A02D0022A04D004E0FF2885D895
:103A8000087000E00880307820707078607070886E
:103A9000000AA070B078E070B6F84C00000A2071FF
:103AA00096F84C00607100E00BE006212046FFF71D
:103AB00019FFA6F8480096F84900A07196F848004A
:103AC00044E0A88890FA90F8A6F80480AA79B27128
:103AD00096F84E004044884204D9401AA8EB0000F2
:103AE0001FFA80F81C484FEA4802E91D1C30FCF719
:103AF0002BFB002035464A460DE000BF95F84E10DE
:103B000005EB4003014402EB01119B8B49685BBA52
:103B1000401C0B80C0B24045F0D3287820706878F4
:103B2000607068880621000AA070A878E070A888F4
:103B3000000A2071287960712046FFF7D3FEA5F8AE
:103B4000480095F84900A07195F84800E071A7F881
:103B500000B001202EE7000090010020720100203B
:103B600070010020E0490008FEE770B5D0E90212BC
:103B7000891A016182690A4482614369CB1AC3616F
:103B8000846AA14201DC0C4600E00461416A8C4277
:103B900000DA0161016B8A4200DD81618269C16ADC
:103BA0008A4200DA8161816B8B4200DDC161C269AA
:103BB000416B8A4200DAC1610188026944888569E3
:103BC00001FB02F304FB05358488C36904FB03563B
:103BD0000662056CAE4207DD01FB1256056201FB71
:103BE00004F505FB13658561066AC56BAE4206DA0E
:103BF000056201FB0255614301FB03518161426192
:103C000070BD30B5B0F92410B0F97620B0F9744029
:103C100001FB02F5B0F92230614303FB14552D136B
:103C200003FB021105850913C18430BD7047F8B547
:103C3000044640684FF48273984217D1A0684FF44D
:103C40008065B0F5004F01D0A8420FD1206806680A
:103C500026F0400606606068984207D1A068A84236
:103C600004D100920B460022012103E000920B4692
:103C700000228021204600F019F8002804D0606D51
:103C800040F0200060650320F8BD38B50B46009277
:103C900004460022802100F009F8002804D0606D5D
:103CA00040F020006065032038BD00002DE9F84396
:103CB0001E46914688460446089DFDF787FD401B39
:103CC000351AFDF783FD074625480068C0F3CB3061
:103CD000684338E0701C37D0FDF778FDC01BA84260
:103CE00003D215B1009860B32CE02068416821F040
:103CF000E00141606068B0F5827F0BD1A068B0F54B
:103D0000004F02D0B0F5806F04D12068016821F027
:103D100040010160A06AB0F5005F09D12068016828
:103D200021F4005101602068016841F400510160F4
:103D3000012084F85100002084F850000320BDE8E1
:103D4000F8830025401E00902068816838EA010051
:103D500004D000214945BDD10020F0E70121F9E759
:103D60008C010020704700002DE9F04704460169EE
:103D70004069494300FB00108613266394F906004E
:103D800040438003FCF776FA834A844BFCF700FA41
:103D900007460D463046FCF77EFA3A462B46FCF7BE
:103DA00087FA0ED294F906002269216B42434243FE
:103DB000B2FBF1F22261626942434243B2FBF1F08D
:103DC000606163696363206940F6DB5141435F4290
:103DD00001EBC7210E1372490022484300EBC720B4
:103DE0000513C4E90E654FF00109002B02DD84F8CC
:103DF000449001E084F84420002E02DD84F84590D0
:103E000001E084F84520002D02DD84F8469001E0B1
:103E100084F8462094F8450094F84610400000EBE2
:103E2000810094F84410084400F0FF0C84F850C05E
:103E3000608840F2EE6194F90680414391FBF8F10D
:103E400089122164BCF1070F3DD2DFE80CF03C047D
:103E50000D161F2A3400022384F8513073424B435D
:103E60009B13A3646B4218E0062384F851306B4225
:103E70004B439B134F43B9131AE04E43B5134B43C7
:103E800084F851909913C4E9125120E0042384F876
:103E900051304F43BB13A36473424B439913E16406
:103EA00015E003264B439B134D4384F85160A9133F
:103EB000C4E912310BE0052384F851304D43AB13B4
:103EC0004E43B113F4E784F85120A264E264D4E9CC
:103ED0001261A38875189D420ADDADB25E43594355
:103EE00096FBF5F691FBF5F1A4F85250C4E9126186
:103EF00094F8511007294AD2DFE801F049040E195D
:103F0000282F3C008319E16C801B0B445B10421886
:103F10005210401AA36736E0821BE16C30445518FA
:103F200008446D104010C4E91E50501A09E0831B6C
:103F3000E16C30445D1A08446D104010C4E91E5015
:103F400058184010C4F88000BDE8F087E16C831B6E
:103F50005D1A6D100B44A56705E0E16C831B5D18CD
:103F60006D105B1AA56730445B1008444010C4E92B
:103F70001F30E9E78319E16C801B0B445B10421A88
:103F800052100844A3674010C4E91F20DCE7A26771
:103F9000E267C4F88020D7E71F85EB51B81ED53FF4
:103FA00025F2FFFF0549826F0B685A630B68C26FE9
:103FB0009A630968D0F88000C86370477C050020C8
:103FC000FDF734BD30B593B028216846FCF7D5F82D
:103FD00014210AA8FCF7D1F8002501200F951095AF
:103FE0001195010412958DE8230004904FF4E01020
:103FF000CDE90810022407946846FDF775FF08B163
:1040000072B6FEE70AA90F2081E831004FF4806004
:10401000CDE90D0502210AA8FDF77AFE08B172B6B6
:10402000FEE74FF4004011900F940FA8FDF7FAFD42
:10403000002801D072B6FEE713B030BD7047000013
:104040000148FEF727BD0000C4050020F0B5026856
:10405000164B174C174D4FF08047984205D0B84289
:1040600003D0A04201D0A84203D122F070064A68D2
:104070003243984205D0B84203D0A04201D0A842B2
:1040800003D122F44074CA6822434C6922F08002B2
:10409000224302608A68C2620A688262984201D141
:1040A0000969016301214161F0BD0000002C01405C
:1040B000000400400008004010B501F01F0301217A
:1040C000046A99408C430462016A9A401143016278
:1040D00010BD10B5846842EA032224F47F440A43E9
:1040E0002243826010BD826822F070020A4342F0CF
:1040F000070181607047000030B5026A22F00102BA
:104100000262026A4368846924F073050C682C43D8
:1041100022F002058A682A430A4DA8420BD122F0F8
:104120000805CA6823F440732A434D6922F004024B
:104130001D438B692B43436084614968416302627C
:1041400030BD0000002C014030B5026A22F01002A0
:104150000262026A436884690D6824F4E64444EA12
:1041600005248D6822F0200242EA05120B4DA84278
:104170000ED1CD6822F0800242EA05124D6923F487
:10418000406343EA85038D6922F0400243EA8503D8
:104190004360846149688163026230BD002C014044
:1041A00030B5026A22F480720262036A4268C4690E
:1041B00023F4007324F073050C682C438D6843EAE4
:1041C00005230C4DA8420ED1CD6823F4006343EAC9
:1041D00005234D6922F4405242EA05128D6923F409
:1041E000806342EA05124260C4614968C1630362A8
:1041F00030BD0000002C014030B5026A22F480522C
:104200000262046A4268C3690D6823F4E64343EA24
:1042100005238D6824F4005444EA0534064DA84271
:1042200004D14D6922F4804242EA85124260C361A2
:1042300049680164046230BD002C014010B5036A76
:10424000046A24F001040462846924F0F00444EA5E
:10425000021423F00A020A438461026210BD10B501
:10426000036A23F0100303628369046A23F4704332
:1042700043EA023224F0A00343EA011182610162A1
:1042800010BD10B5406A0021C185C184FEF7B2FEA1
:1042900010BD70B5446A2068406994F83D10C0F3C1
:1042A000C0100025212904D118B1E584204600F072
:1042B00083F82068406994F83E10C0F380102229EA
:1042C00004D118B1E585204600F05EF8206C40F07E
:1042D000100020642046FEF78DFE70BD10B501462B
:1042E000406A0968096889061BD40021C1850168F4
:1042F000CA6822F48072CA6001684A6922F0010229
:104300004A6101684A6922F040024A61202180F82E
:104310003E10016B012904D10168CA6822F0100225
:10432000CA60016B012902D0FFF727F810BD818D0B
:10433000FEF733FE10BD10B5406A016B012902D0B3
:10434000FFF71CF810BD818D4908FEF726FE10BD51
:1043500010B50146406A0968096889060CD4002135
:10436000C18401684A6922F080024A610068C1681C
:1043700041F04001C16010BDFFF742F810BD10B51B
:10438000406AFFF73EF810BD0168CA6822F49072D7
:10439000CA6001684A6922F001024A61016B012981
:1043A00004D10168CA6822F01002CA60202180F896
:1043B0003E100021016370470168CA6822F0C00204
:1043C000CA60202180F83D10704708B590F83E1073
:1043D000222901D0022008BD82684FF480539A42FE
:1043E00001D1016921B1816A9A421BD04AB10AE028
:1043F0000268816A5268C2F308020A80816A891CD5
:1044000008E0026972B10268526802F07F020A7025
:10441000816A491C8162C18D491E0904090CC1854C
:1044200003D019E002685268F1E70168CA6822F017
:104430002002CA600168CA6822F48072CA600168FA
:104440004A6922F001024A61202180F83E10016B86
:10445000012903D0FEF791FF002008BD0021016370
:104460000168CA6822F01002CA6001680A68D206B0
:1044700002D50A6849680091818DFEF78EFDEBE751
:1044800070B5044600680169E26821F440511143A7
:1044900001612169A0680843616908432168CA680D
:1044A00041F20C639A430243CA6020684169A269E1
:1044B00021F44071114341611E492068884202D1B4
:1044C000FDF7CCFC01E0FDF7B9FC00EBC00101EB0E
:1044D0000012606864218000B2FBF0F3B3FBF1F3DB
:1044E0006FF018067343B2FBF0F5B2FBF0F605EB84
:1044F0008305322303EB0515B5FBF1F5B6FBF1F6A9
:1045000005F0F00505EB0615B2FBF0F6B2FBF0F096
:10451000B0FBF1F06FF01802504306EB800003EBA4
:104520000010B0FBF1F0216800F00F002844886013
:1045300070BD00000038014038B5816282850025D9
:10454000134604460564222084F83E00A26B1348FB
:104550009062A26B1248D062A26B12481063A06BEB
:104560000A4645632168A06B091DFCF7EFFF206830
:1045700001684168009184F83C50C16841F4807141
:10458000C1602068416941F00101416120684169D1
:1045900041F040014161002038BD0000DD420008CB
:1045A000374300089342000808B50A48FEF724FD87
:1045B00008480949006888420BD10168C943C90607
:1045C00007D4016840680090BDE80840014800F049
:1045D000CFB808BD0C06002000380140FEE70907EF
:1045E000090E002804DB00F1E02080F80014704779
:1045F00000F00F0000F1E02080F8141D704702E089
:1046000008C8121F08C1002AFAD17047704700205D
:1046100001E001C1121F002AFBD17047FDF70EFA1D
:10462000FFF7D0FCFEF7B8FFFEF788FFFFF73CF975
:10463000FEF7FCFEFEF744FFFFF746F8FFF76AF8C7
:10464000FFF722F8FFF7E6F8FBF7D6FF3E48FCF746
:104650004DF93D488430FBF7DBFF3B48C830FBF7A2
:10466000D7FFFBF7C9FF3948FCF742FA3848FCF797
:104670003FFA3648FCF7C2FB3548FCF7BFFB012286
:10468000140321463348FDF79BF8334D00226100A7
:104690002846FDF795F8012291032846FDF790F88A
:1046A000002221462846FDF78BF82748FCF714F82E
:1046B0002548FBF7EBFE2948FEF754F91E2228494E
:1046C0002848FEF745FE27480068C16841F0100100
:1046D000C160254C0120C6032070E178A07881429A
:1046E0002DD0A8B1012231462846FDF769F80C21EA
:1046F0001E48FEF793FB00211C48FEF78FFB0421A8
:104700001A48FEF78BFB08211848FEF787FB14E0D8
:10471000002231462846FDF753F80C211348FEF7D6
:10472000CBFB08211148FEF7C7FB04210F48FEF719
:10473000C3FB00210D48FEF7BFFBA078E0700A2004
:10474000FCF73CFFC9E7000014020020E80300204A
:104750001804002000080140000C0140C40500209E
:10476000200300200C060020740100207C0500209E
:1047700010B51548FEF712FC1348883000684068F1
:10478000124CC0B2C0F11E00C2B2227010491148D2
:10479000FBF7DAFC21780E48FBF7EFFC0E4B0F4AD3
:1047A00021780C48FFF7B4F8012805D10A480B49D5
:1047B00002880548FEF7E4FDBDE810401E220449CA
:1047C0000148FEF7C5BD00000C0600206C0100206A
:1047D00020030020E00100206E010020C80300201B
:1047E00000C1814001C0804101C0804100C18140C1
:1047F00001C0804100C1814000C1814001C08041B1
:1048000001C0804100C1814000C1814001C08041A0
:1048100000C1814001C0804101C0804100C1814090
:1048200001C0804100C1814000C1814001C0804180
:1048300000C1814001C0804101C0804100C1814070
:1048400000C1814001C0804101C0804100C1814060
:1048500001C0804100C1814000C1814001C0804150
:1048600001C0804100C1814000C1814001C0804140
:1048700000C1814001C0804101C0804100C1814030
:1048800000C1814001C0804101C0804100C1814020
:1048900001C0804100C1814000C1814001C0804110
:1048A00000C1814001C0804101C0804100C1814000
:1048B00001C0804100C1814000C1814001C08041F0
:1048C00001C0804100C1814000C1814001C08041E0
:1048D00000C1814001C0804101C0804100C18140D0
:1048E00000C0C101C30302C2C60607C705C5C40490
:1048F000CC0C0DCD0FCFCE0E0ACACB0BC90908C800
:10490000D81819D91BDBDA1A1EDEDF1FDD1D1CDCEF
:1049100014D4D515D71716D6D21213D311D1D0105F
:10492000F03031F133F3F23236F6F737F53534F44F
:104930003CFCFD3DFF3F3EFEFA3A3BFB39F9F838BF
:1049400028E8E929EB2B2AEAEE2E2FEF2DEDEC2CAF
:10495000E42425E527E7E62622E2E323E12120E01F
:10496000A06061A163A3A26266A6A767A56564A40F
:104970006CACAD6DAF6F6EAEAA6A6BAB69A9A8687F
:1049800078B8B979BB7B7ABABE7E7FBF7DBDBC7C6F
:10499000B47475B577B7B67672B2B373B17170B0DF
:1049A00050909151935352929656579755959454CF
:1049B0009C5C5D9D5F9F9E5E5A9A9B5B995958983F
:1049C000884849894B8B8A4A4E8E8F4F8D4D4C8C2F
:1049D000448485458747468682424383418180409F
:1049E00000000001DF010020FF00000000000000C7
:1049F0000100000174010020FF0000000000000021
:104A00000200000175010020FF000000000000000E
:104A10000300000176010020FF00000000000000FC
:104A20000400000178010020FF00000000000000E9
:104A3000050000017A010020FF00000000000000D6
:104A40000600000179010020FF00000000000000C6
:104A5000070000017B010020FF00000000000000B3
:104A600008000002FE010020FFFF0000000000001F
:104A70000900000200020020FFFF0000000000000B
:104A80000A00000202020020FFFF000000000000F8
:104A90000B00000104020020FF00000000000000E5
:104AA0000C00000105020020FF00000000000000D3
:104AB0000D00000106020020FF00000000000000C1
:104AC0000E00000107020020FF00000000000000AF
:104AD0000F00000108020020FF000000000000009D
:104AE0001000000109020020FF000000000000008B
:104AF000110000010A020020FF0000000000000079
:104B0000120000010B020020FF0000000000000066
:104B1000130000010C020020FF0000000000000054
:104B2000140000020E020020FFFF00000000000041
:104B30001500000210020020FFFF0000000000002E
:104B40001600000212020020FFFF0000000000001B
:104B50001700000272010020FFFF000000000000AB
:104B600018000002BC020020FFFF0000000000004F
:104B700019000002C0020020FFFF0000000000003A
:104B80001A000002C4020020FFFF00000000000025
:104B90001B000002C8020020FFFF00000000000010
:104BA0001C000002CC020020FFFF000000000000FB
:104BB0001D000002D0020020FFFF000000000000E6
:104BC0001E000002D4020020FFFF000000000000D1
:104BD0001F000002D8020020FFFF000000000000BC
:104BE00020000002D4020020FFFF000000000000AF
:104BF0002100000200030020FFFF00000000000071
:104C00002200000204030020FFFF0000000000005B
:104C10002300000208030020FFFF00000000000046
:104C2000240000020C030020FFFF00000000000031
:104C30002500000210030020FFFF0000000000001C
:104C40002600000214030020FFFF00000000000007
:104C50002700000218030020FFFF000000000000F2
:104C6000280000021C030020FFFF000000000000DD
:104C70002900000218030020FFFF000000000000D0
:104C800000000000000000000102030406070809FC
:104C90000000000001020304B84C000800000020DE
:104CA00090010000DE030008CC4D000890010020B8
:104CB000480900000E460008514247428E42D63352
:104CC0001D0133640133AC0133F301333A02338005
:104CD0000233C702330D0333530333990333DE0327
:104CE00033240433680433AD0433F104333505331E
:104CF000780533BB0533FE0533400633810633C3E5
:104D00000633030733430733820733C10733FF07F3
:104D1000333D08337A0833B60833F208332D0933AC
:104D2000670933A10933D90933110A33480A337F9C
:104D30000A33B40A33E90A331D0B33500B33820BA9
:104D400033B30B33E30B33130C33410C336F0C339E
:104D50009B0C33C70C33F10C331B0D33430D336BFA
:104D60000D33910D33B60D33DB0D33FE0D33200EB5
:104D700033410E33610E33800E339D0E33BA0E3342
:104D8000D50E33EF0E33080F33200F33370F334D6B
:104D90000F33610F33740F33860F33970F33A60F22
:104DA00033B40F33C10F33CD0F33D80F33E10F338B
:104DB000E90F33F00F33F60F33FA0F33FD0F43FFD4
:0C4DC0000F021710420192101424F4009E
:04000005080000ED02
:00000001FF
