:020000040800F2
:10000000280E0020010100083D6400087954000812
:10001000615B000879060008E57C0008000000002C
:10002000000000000000000000000000656E0008F5
:100030004508000800000000C1690008E9700008D8
:100040001B0100081B0100081B0100081B01000820
:100050001B0100081B0100081B0100081B01000810
:100060001B0100081B0100081B0100081B01000800
:100070007507000895070008B5070008C5070008C0
:10008000D5070008E5070008CD0300081B0100089C
:100090001B0100081B0100081B0100081B010008D0
:1000A0001B0100081B0100081B0100081B010008C0
:1000B000857100081B0100081B0100081B010008D6
:1000C0001B0100081B0100081B0100081B010008A0
:1000D0001B010008757C00081B0100081B010008BB
:1000E0001B0100081B0100081B010008DFF80CD0F1
:1000F00000F05AF900480047B97D0008280E00209A
:100100000648804706480047FEE7FEE7FEE7FEE7B1
:10011000FEE7FEE7FEE7FEE7FEE7FEE78171000887
:10012000ED00000840EA01039B0703D009E008C97D
:10013000121F08C0042AFAD203E011F8013B00F8AC
:10014000013B521EF9D27047D2B201E000F8012BF8
:10015000491EFBD270470022F6E710B513460A4647
:1001600004461946FFF7F0FF204610BD2DE9FE4F6B
:1001700081EA030404F0004421F0004100944FF0B0
:10018000000B23F0004350EA01045ED052EA03045E
:100190005BD0C3F30A54C1F30A552C44A4F2F334E0
:1001A0000194A0FB0254C1F3130141F48011C3F385
:1001B000130343F4801301FB024400FB034E840A43
:1001C000970A44EA815447EA8357A4FB07680295DB
:1001D0008D0A05FB07854FEA932C04FB0C54270579
:1001E000029D4FEA065847EA1637B5EB08056EEB55
:1001F000070C870E920E47EA811742EA8312A7FB8B
:100200000201B6EB0B0164EB00042B0D43EA0C3347
:100210005E1844EB1C50DA465146E7FB0201C5F379
:1002200013044FEA0B3343EA14534FEA0432019CA0
:1002300043EA0603A4F10C040294009CCDE900B447
:1002400000F064F803B0BDE8F08F00200146F9E744
:100250000EB5C10F80EAE0700844CA07002140F2E1
:1002600033438DE80E000A460B4600F04FF803B00A
:1002700000BD70B5C1F30A5201F000450024C1F37E
:10028000130140F2FF3341F480119A4201DA002059
:1002900070BD40F233439A42A2F2334203DC524231
:1002A00000F015F800E090402C43F1D0404270BDC2
:1002B000202A04DB203A00FA02F100207047914026
:1002C000C2F1200320FA03F3194390407047202A1B
:1002D00004DB203A21FA02F00021704721FA02F3F0
:1002E000D040C2F12002914008431946704710B532
:1002F000141E73F1000408DA401C41F10001921849
:100300005B411A4301D120F0010010BD2DE9F04DF1
:1003100092469B4611B1B1FA81F202E0B0FA80F246
:1003200020329046FFF7C4FF04460F4640EA0A0019
:1003300041EA0B0153465A46084313D0114653EA8B
:10034000010019D0C8F140025046FFF7C0FF054632
:100350000E46504659464246FFF7AAFF084305D0CD
:10036000012004E020463946BDE8F08D0020054319
:1003700046EAE0762C4337430A986305E40AA0EB8B
:1003800008000022FD0A44EA47540A3002D5002042
:100390000146E9E7010510196941DDE90845001941
:1003A0006941BDE8F04DA2E7064C074D06E0E06864
:1003B00040F0010394E8070098471034AC42F6D3AC
:1003C000FFF798FE148300083483000880B540F2DC
:1003D000AC60C2F2000001F063FA40F2DC60C2F2ED
:1003E000000001F05DFA80BD80B584B0029000206D
:1003F0000190029800688068C00770B3FFE7029818
:100400000168886820F00100886002F013FA01900A
:10041000FFE7029800688068C007E8B1FFE702F0D4
:1004200009FA0199401A032815D3FFE702980068DA
:100430008068C00770B1FFE70299886A40F0100039
:1004400088620299C86A40F00100C86201208DF8F4
:100450000F0006E0FFE7DCE7FFE700208DF80F0064
:10046000FFE79DF80F0004B080BD000080B584B0A8
:10047000039040F2A861C2F20001087840F0400009
:1004800008700020019002902021ADF8021003991D
:1004900088830399C8834FF47A7002F001F8012031
:1004A0008DF80100FFE79DF80100BDF802108842B9
:1004B00016DCFFE702980399B1F91810401A029070
:1004C00001980399B1F91A10401A0190022001F025
:1004D000E7FFFFE79DF8010001308DF80100E2E73A
:1004E0000298400903998883019840090399C883B9
:1004F0000399002048830399088304B080BD00005D
:1005000080B582B001900198406A00900098806A9E
:1005100010F0500F28D1FFE70099886A40F400706E
:10052000886200980068806800F46020B0F5602F51
:1005300016D1FFE70098007B90B9FFE70099886A21
:1005400020F4807088620098806AC004002806D475
:10055000FFE70099886A40F001008862FFE7FFE743
:10056000009801F091F905E00098006A016B01988C
:100570008847FFE702B080BD80B582B00190019846
:10058000406A00900099886A40F0400088620099B3
:10059000C86A40F00400C862009801F07DF902B01A
:1005A00080BD000080B582B001900198406A009043
:1005B000009801F06DF902B080BD000080B584B0F4
:1005C0000290002001900090029800688068C007A7
:1005D000002849D1FFE702980168886840F00100CF
:1005E000886040F20040C2F2000000684DF683616E
:1005F000C4F21B31A0FB0110800C0090FFE70098B3
:1006000020B1FFE7009801380090F8E702F012F9F6
:100610000190FFE7029800688068C00718BBFFE7F9
:1006200002F008F90199401A03281BD3FFE702984A
:1006300000688068C007A0B9FFE70299886A40F0A7
:10064000100088620299C86A40F00100C862FFE7A2
:100650000299002081F82400FFE701208DF80F00A7
:1006600006E0FFE7D6E7FFE700208DF80F00FFE781
:100670009DF80F0004B080BDFFE7FEE781B0009059
:100680000099088B08840099B1F91800B1F91A2073
:1006900040F29E43534340F24F2200FB0230800A57
:1006A000488401B07047000080B500F089FA40F23C
:1006B0001841C2F20001088040F2F241C2F200018A
:1006C0000020088080BD000081B0009000990020CB
:1006D000086000994860009988600099C860009996
:1006E0000874009932224A82009B01219982009B62
:1006F000D882009B1A83009A5183009A9083009BB2
:100700001922DA83009A1184009B0A225A84009AE3
:100710009084009AD184009A4FF440619162009ACB
:100720004FF40061D162009908630099486301B0F9
:100730007047000081B00090009900200870009977
:100740004870009988700099C87000990871009AE3
:1007500010215171009A05219171009AD17100996F
:100760000872009932204872009988720099C87204
:1007700001B0704780B540F29470C2F2000001F001
:100780008DFC40F60000C4F201001021012202F0AD
:1007900039F880BD80B540F2D870C2F2000001F097
:1007A0007DFC40F60000C4F201001021012202F09D
:1007B00029F880BD80B540F66000C2F2000001F06B
:1007C0006DFC80BD80B540F61C00C2F2000001F057
:1007D00065FC80BD80B540F25070C2F2000001F0AF
:1007E0005DFC80BD80B540F20C70C2F2000001F0EB
:1007F00055FC80BD84B00390029101920093039850
:10080000C16B026C01209040486000980399096810
:10081000486003984068102809D1FFE701980399C0
:1008200009688860029803990968C86008E002981E
:10083000039909688860019803990968C860FFE70F
:1008400004B070477047000080B586B040F2544055
:10085000C2F200008078012823D1FFE740F6004073
:10086000C4F201004FF400410022049201F0CAFFDB
:10087000049940F65010C2F20000059004F0BAF955
:100880000598042104F0B6F90598082104F0B2F99E
:1008900040F2A861C2F20001087800F0FE00087082
:1008A0004DE040F25440C2F200004078012822D1CD
:1008B000FFE740F65010C2F200000390002104F060
:1008C000E9F80398042104F0E5F80398082104F0FE
:1008D000E1F840F60000C4F201004FF4805101221B
:1008E00001F090FF40F2A861C2F20001087840F0E8
:1008F0000100087022E040F60040C4F201004FF40D
:1009000000410022019201F07DFF019940F6501054
:10091000C2F20000029004F06DF90298042104F084
:1009200069F90298082104F065F940F2A861C2F261
:100930000001087800F0FE000870FFE7FFE706B04E
:1009400080BD000084B0039040F24260C2F200001B
:100950000188C07840EA0120ADF80600BDF8060025
:100960008008ADF806000398807810280CDCFFE7BB
:10097000BDF8060003998978C1F110018840C0F5DF
:100980008030ADF80A0008E0BDF8060003998978C8
:100990001039C840ADF80A00FFE70398407820B14D
:1009A000FFE70020ADF80800FFE7BDF80A00039953
:1009B000888040F2A860C2F200004078C008C007FA
:1009C00060B1FFE703998888C88040F2A861C2F24D
:1009D0000001487800F0F7004870FFE70399888825
:1009E000C988401A00900098B0F5004F05DDFFE778
:1009F0000098C0F580300090FFE7009810F5004F98
:100A000005DAFFE7009800F580300090FFE70399D2
:100A10008868009A1044886003988068B0F1807FED
:100A200006DDFFE70399886800F17E4088600CE0EE
:100A300003988068B0F17F4F06DAFFE70399886872
:100A400000F100708860FFE7FFE703998888C8809D
:100A500004B0704780B584B0039040F2D840C2F231
:100A600000000090FFF76EFF009806F0F1FA009882
:100A700080880399896D88420DD2FFE740F2D84003
:100A8000C2F2000080880399896D401A4FF6FF7109
:100A90000844019009E040F2D840C2F2000080888A
:100AA0000399896D401A0190FFE70398C06D0128F2
:100AB00011DBFFE701980399C96D08440190019883
:100AC000B0F5803F06D3FFE701984FF6FF71401A5B
:100AD0000190FFE715E001980399C96D884209D29A
:100AE000FFE701980399C96D401A4FF6FF7108445A
:100AF000019005E001980399C96D401A0190FFE744
:100B0000FFE7039800780199484320F00100ADF811
:100B10000A00BDF80A00C0F3C81140F20000C2F29A
:100B2000000030F81110039AA2F86010BDF80A20F6
:100B3000802101EBD2116FF35F2130F8110003998E
:100B4000A1F8620004B080BD81B0EFF3108072B6EE
:100B50000090FFE7FEE7000081B0009000990020C0
:100B6000088001B07047000080B582B00190019804
:100B7000FFF770FF0198FFF781FD019805F0FEFE79
:100B8000019805F0D5FA40F25440C2F20000007816
:100B9000042804DBFFE7019804F08AFCFFE740F239
:100BA0005440C2F200000078022804D0FFE7019808
:100BB00006F05AF9FFE7019805F08AFD02B080BD02
:100BC00082B04FF4F870ADF806001020ADF80400C4
:100BD000BDF80600BDF80410B0FBF1F0ADF802005E
:100BE000BDF8020002B0704781B0009040F254405E
:100BF000C2F200000078012848D1FFE740F2A86067
:100C0000C2F2000000784008C00700283ED0FFE78D
:100C100040F2F040C2F200000088012808DBFFE744
:100C200040F2F041C2F2000108880138088010E06B
:100C30000099886D40F2D842C2F2000292881044B6
:100C4000886540F2E451C2F200010888013808804A
:100C5000FFE740F2E450C2F200000088A8B9FFE7C5
:100C6000009A906D40F25441C2F20001CB79D84015
:100C7000906500200870487040F2A861C2F200013F
:100C8000087800F0FD000870FFE7FFE701B070474B
:100C900080B586B0049000208DF80F000190FFE72A
:100CA000049890F82400012804D1FFE702208DF871
:100CB0001700ACE00499012081F82400FFE7FFE76A
:100CC0000498FFF791FB8DF80F009DF80F000028A6
:100CD00040F09280FFE70498806A40F0020020F420
:100CE00088500499886240F20040C2F20000006817
:100CF0000090022002F04CF801460098B0FBF1F0A1
:100D000040000190FFE7019820B1FFE7019801380A
:100D10000190F8E70498FFF751FC0498016888688F
:100D200040F00800886001F085FD0290FFE704981C
:100D3000006880680007002822D5FFE701F07AFDEF
:100D40000299401A0B281AD3FFE7049800688068BC
:100D50000007002812D5FFE70498806A40F01000D1
:100D600020F0020004998862FFE70499002081F8CE
:100D70002400FFE701208DF8170048E0FFE7D6E7E1
:100D800004980168886840F00400886001F052FD12
:100D90000290FFE70498006880684007002822D589
:100DA000FFE701F047FD0299401A0B281AD3FFE72D
:100DB0000498006880684007002812D5FFE704986F
:100DC000806A40F0100020F0020004998862FFE77A
:100DD0000499002081F82400FFE701208DF8170016
:100DE00015E0FFE7D6E70498806A40F0010020F0A4
:100DF000020004998862FFE7FFE70499002081F868
:100E00002400FFE79DF80F008DF81700FFE79DF81D
:100E1000170006B080BD000086B00490039100204A
:100E20008DF80B0001900498806808B1FFE7FFE798
:100E3000FFE7049890F82400012804D1FFE702207E
:100E40008DF8170077E10499012081F82400FFE76D
:100E5000FFE704988068E0B9FFE70398406801283D
:100E60000DD1FFE704980068806B6FF315000399BC
:100E7000096840EAC13004990968886308E0049968
:100E8000886A40F02000886201208DF80B00FFE79F
:100E900039E003994868096988421FD8FFE7049838
:100EA0000068806B039B1A685968D3F810C0A1EBE7
:100EB0000C0101EB810101F10F031F2199408843CF
:100EC00020F440100021CFF6F07101EB0C519A4054
:100ED0001143084304990968886313E00498006883
:100EE000806B039A51681269891A01EB810101F143
:100EF0000F021F219140884320F440100499096893
:100F00008863FFE7FFE7049800688068C00768B956
:100F1000FFE704980068806847F20101884303995D
:100F200089690843049909688860FFE70398407D50
:100F3000012817D1FFE703988069B0F5E04F07D18A
:100F4000FFE704980168486840F48060486008E062
:100F50000499886A40F02000886201208DF80B0017
:100F6000FFE7FFE70398007D012815D1FFE703980D
:100F7000407D38B9FFE704980168486840F4805024
:100F8000486008E00499886A40F0200088620120E7
:100F90008DF80B00FFE7FFE7039800680A2812D3DB
:100FA000FFE704980068C06803990A68896802EB43
:100FB00042021E3A07239340984391400843049904
:100FC0000968C86010E004980068006903990A681D
:100FD000896802EB420207239340984391400843FB
:100FE000049909680861FFE703980068102805D094
:100FF000FFE703980068112807D1FFE7049801680C
:10100000886840F400008860FFE703984068013872
:101010000146009103282CD80099DFE801F0020F67
:101020001C2904980068406940F6FF7188430399C1
:10103000C968084304990968486127E00498006872
:10104000806940F6FF7188430399C9680843049991
:10105000096888611AE004980068C06940F6FF7169
:1010600088430399C968084304990968C8610DE079
:10107000FFE704980068006A40F6FF71884303990F
:10108000C9680843049909680862FFE70398006883
:10109000102805D0FFE703980068112840D1FFE72A
:1010A0000498006842F20041C4F2010188422DD147
:1010B000FFE70498006880680002002825D4FFE755
:1010C00004980168886840F400008860039800680C
:1010D000102819D1FFE740F20040C2F2000000687A
:1010E0004DF68361C4F21B31A0FB0110800C00EBB4
:1010F000800040000190FFE7019820B1FFE70198D0
:1011000001380190F8E7FFE7FFE708E00499886AF3
:1011100040F02000886201208DF80B00FFE7FFE718
:10112000FFE70499002081F82400FFE79DF80B00F9
:101130008DF81700FFE79DF8170006B07047000014
:1011400080B584B0039040F2AC60C2F2000002901F
:101150000121009100F028F80099034640F27052F6
:10116000C2F200020192908BC01A108340F2DC6040
:10117000C2F2000000F018F801990246C88B801AEC
:101180004883FFF761FB0198FFF7EEFC019805F03B
:101190000FFE0198FFF728FD02980168486840F0AB
:1011A0008000486004B080BD84B0039002910020AC
:1011B00001900298013801460091032814D8009943
:1011C000DFE801F0110C070203980068806C0190C1
:1011D0000FE003980068406C01900AE003980068F3
:1011E000006C019005E0FFE703980068C06B019078
:1011F000FFE7019804B0704780B584B002900020EA
:101200008DF80700FFE7029890F82400012804D128
:10121000FFE702208DF80F008FE00299012081F88E
:101220002400FFE7FFE70298FFF7C8F98DF80700F1
:101230009DF80700002874D1FFE70298806A40F407
:10124000805042F201018843029988620298006846
:1012500042F60001C4F20101884209D1FFE742F2DF
:101260000440C4F20100006810F4702F03D008E0BD
:10127000002030B9FFE70299886A20F48010886264
:1012800005E00299886A40F480108862FFE70298BE
:10129000806AC005002804D4FFE702990020C862D4
:1012A000FFE7FFE70299002081F82400FFE702989A
:1012B00001686FF00400086002980068406840050B
:1012C00000282DD4FFE702980068806800F4E04011
:1012D000B0F5E04F1CD1FFE70298006842F600012C
:1012E000C4F20101884209D1FFE742F20440C4F28E
:1012F0000100006810F4702F03D009E0002038B915
:10130000FFE702980168886840F40210886006E0F0
:1013100002980168886840F400408860FFE7FFE7B2
:1013200006E0FFE70299002081F82400FFE7FFE7CD
:101330009DF807008DF80F00FFE79DF80F0004B03F
:1013400080BD000080B584B0029000208DF80700B9
:10135000FFE7029890F82400012804D1FFE702205B
:101360008DF80F0095E00299012081F82400FFE735
:10137000FFE70298FFF722F98DF807009DF80700B4
:1013800000287AD1FFE70298806A40F4805042F248
:1013900001018843029988620298006842F60001C0
:1013A000C4F20101884209D1FFE742F20440C4F2CD
:1013B0000100006810F4702F03D008E0002030B95D
:1013C000FFE70299886A20F48010886205E002999C
:1013D000886A40F480108862FFE70298806AC0053E
:1013E000002804D4FFE702990020C862FFE7FFE766
:1013F0000299002081F82400FFE7029801686FF04D
:101400000400086002980168486840F08000486065
:10141000029800684068400500282DD4FFE7029834
:101420000068806800F4E040B0F5E04F1CD1FFE7B1
:101430000298006842F60001C4F20101884209D115
:10144000FFE742F20440C4F20100006810F4702F7C
:1014500003D009E0002038B9FFE7029801688868E6
:1014600040F40210886006E002980168886840F441
:1014700000408860FFE7FFE706E0FFE702990020F1
:1014800081F82400FFE7FFE79DF807008DF80F00C3
:10149000FFE79DF80F0004B080BD000080B590B05C
:1014A0000E900D9100208DF8330068463021FEF734
:1014B00052FEFFE70E9890F82400012804D1FFE7C0
:1014C00002208DF83F003EE00E99012081F82400B3
:1014D000FFE7FFE742F60000C4F2010000900E981B
:1014E00000688068C007D0B9FFE700988068C0072F
:1014F000A8B9FFE70E98006842F20041C4F201016A
:1015000088420CD1FFE70E980068406820F47020F4
:101510000D99096808430E990968486008E00E991A
:10152000886A40F02000886201208DF83300FFE7D0
:10153000FFE70E99002081F82400FFE79DF83300B3
:101540008DF83F00FFE79DF83F0010B080BD000020
:1015500080B592B010900F910E9200208DF8370058
:1015600001A83021FEF7F7FDFFE7109890F824005E
:10157000012804D1FFE702208DF84700A5E010996B
:10158000012081F82400FFE7FFE742F60000C4F2E3
:10159000010001900198806800F46020B0F5602F90
:1015A0000FD0FFE71099886A40F020008862FFE7BB
:1015B0001099002081F82400FFE701208DF84700F2
:1015C00083E01098FEF7FAFF8DF837009DF837009A
:1015D00030B9FFE701A8FEF7F1FF8DF83700FFE70C
:1015E0009DF83700002864D1FFE71098806A40F426
:1015F00080704FF6FE51CFF6EF7108401099886267
:101600001098006840684005002809D5FFE7109849
:10161000806A40F4805020F4005010998862FFE7FF
:10162000FFE71099002081F82400FFE710990020BF
:10163000C8621098016A40F20150C0F6000088624A
:101640001098016A40F2A550C0F60000C8621098D8
:10165000016A40F27950C0F60000086310980168F2
:101660006FF00200086010980168886840F480708C
:10167000886010980168006A4C310F9A0E9B00F048
:10168000A9FE10980068806800F46020B0F5602F13
:1016900007D1FFE710980168886840F4A0008860CF
:1016A00006E010980168886840F480108860FFE7C1
:1016B00006E0FFE71099002081F82400FFE7FFE72C
:1016C0009DF837008DF84700FFE79DF8470012B0FE
:1016D00080BD000085B00390029100208DF80700C6
:1016E0000090FFE7039890F82400012804D1FFE759
:1016F00002208DF81300C3E00399012081F8240033
:10170000FFE7FFE702984068062812D8FFE7039832
:101710000068406B029A1168526802EB8202053A37
:101720001F239340984391400843039909684863F5
:1017300029E0029840680C2812D8FFE70398006857
:10174000006B029A1168526802EB8202233A1F234F
:10175000934098439140084303990968086311E056
:1017600003980068C06A029A1168526802EB82020C
:10177000413A1F23934098439140084303990968D5
:10178000C862FFE7FFE7029800680A2812D3FFE764
:1017900003980068C06802990A68896802EB4202EF
:1017A0001E3A0723934098439140084303990968E0
:1017B000C86010E003980068006902990A688968A7
:1017C00002EB420207239340984391400843039958
:1017D00009680861FFE702980068102805D0FFE754
:1017E00002980068112840D1FFE70398006842F290
:1017F0000041C4F2010188422DD1FFE7039800683F
:1018000080680002002825D4FFE7039801688868F3
:1018100040F40000886002980068102819D1FFE7A2
:1018200040F20040C2F2000000684DF68361C4F24D
:101830001B31A0FB0110800C00EB800040000090E9
:10184000FFE7009820B1FFE7009801380090F8E723
:10185000FFE7FFE708E00399886A40F0200088620C
:1018600001208DF80700FFE7FFE7FFE7039900205D
:1018700081F82400FFE79DF807008DF81300FFE7CB
:101880009DF8130005B0704781B0009001B070471B
:1018900081B0009001B0704781B0009001B07047F6
:1018A00080B582B0019001980068406880060028E9
:1018B00042D5FFE7019800680068800700283AD504
:1018C000FFE70198806AC006002806D4FFE7019967
:1018D000886A40F400708862FFE7019800688068B9
:1018E00000F46020B0F5602F1CD1FFE70198007B69
:1018F000C0B9FFE701980168486820F020004860FF
:101900000199886A20F4807088620198806AC00416
:10191000002806D4FFE70199886A40F00100886238
:10192000FFE7FFE70198FFF7AFFF019801686FF04D
:1019300012000860FFE7FFE70198006840680006B2
:10194000002852D5FFE7019800680068400700288A
:101950004AD5FFE70198806AC006002806D4FFE751
:101960000199886A40F400508862FFE70198006896
:10197000806800F4E040B0F5E04F14D0FFE7019834
:10198000006840684005002825D4FFE701980068FA
:10199000806800F46020B0F5602F1CD1FFE701984B
:1019A000007BC0B9FFE701980168486820F080001B
:1019B00048600199886A20F4805088620198806AA2
:1019C000C005002806D4FFE70199886A40F00100AD
:1019D0008862FFE7FFE70198FFF7B2FB0198016813
:1019E0006FF00C000860FFE7FFE7019800684068AF
:1019F0004006002815D5FFE7019800680068C00779
:101A000070B1FFE70199886A40F4803088620198DC
:101A100000F014F9019801686FF001000860FFE719
:101A2000FFE702B080BD000080B588B006900020BE
:101A30008DF81700049003900290069820B9FFE7F4
:101A400001208DF81F00F4E00698806830B1FFE7B0
:101A50000698007D08B1FFE7FFE7FFE70698806A78
:101A600050B9FFE706990020C862069981F8240062
:101A7000069800F0E7F8FFE70698FEF7B5FC8DF84A
:101A800017000698806AC006002800F1C480FFE7AE
:101A90009DF81700002840F0BE80FFE70698806A96
:101AA00040F0020020F48850069988620699486840
:101AB000CA691043097B40EA410103980843039037
:101AC000069881680120B1F5807F019008D0FFE77A
:101AD000069880680138B0FA80F040090190FFE76D
:101AE00001990498CA0740F48071002A18BF08467B
:101AF00004900698007D01281ED1FFE70698007B20
:101B000070B9FFE7069881694EF20000CFF6FF70CA
:101B100000EB41300499084340F4006004900AE06F
:101B20000699886A40F0200088620699C86A40F0E9
:101B30000100C862FFE7FFE706980068406820F4EC
:101B40006940049908430699096848600698006846
:101B500080684FF2FD71CFF6E171084003990843A8
:101B6000069909688860069881680120B1F5807F30
:101B7000009008D0FFE7069880680138B0FA80F03E
:101B800040090090FFE7009800F00100002818BF0E
:101B90004FF48070B0F5807F09D1FFE706980169A6
:101BA0000020CFF6F07000EB01500290FFE706989E
:101BB0000068C06A20F47000029908430699096819
:101BC000C86206980068806840F6FE61CFF61F7113
:101BD0000840039988420CD1FFE706990020C862AB
:101BE0000698806A40F0010020F0020006998862A1
:101BF00010E00698806A40F0100020F0020006997C
:101C000088620699C86A40F00100C86201208DF818
:101C10001700FFE708E00699886A40F01000886224
:101C200001208DF81700FFE79DF817008DF81F00C1
:101C3000FFE79DF81F0008B080BD000081B0009054
:101C400001B0704780B58CB00B9000200A900990CD
:101C5000089007900B98006842F20041C4F201011D
:101C6000884234D1FFE7FFE741F21800C4F20200D6
:101C7000016841F400710160006800F40070069092
:101C80000698FFE7FFE741F21800C4F2020001687E
:101C900041F008010160006800F008000590059817
:101CA000FFE70120019007900320089040F60040D4
:101CB000C4F2010007A900F015FC0199122002905E
:101CC000002201F043F8029801F036F83BE00B984F
:101CD000006842F60001C4F20101884232D1FFE7F8
:101CE000FFE741F21800C4F20200016841F480618C
:101CF0000160006800F4806004900498FFE7FFE74B
:101D000041F21800C4F20200016841F008010160CC
:101D1000006800F0080003900398FFE70320079095
:101D2000089040F60040C4F2010007A900F0DAFB79
:101D3000122000900121002201F008F8009800F024
:101D4000FBFFFFE7FFE70CB080BD000080B584B06B
:101D5000029000208DF80700FFE7029890F8240019
:101D6000012804D1FFE702208DF80F00C5E0029999
:101D7000012081F82400FFE7FFE70298FEF71EFC30
:101D80008DF807009DF80700002840F0AA80FFE7C3
:101D90000298806A40F4807040F2012188430299E1
:101DA00088620298006842F60001C4F2010188428C
:101DB00009D1FFE742F20440C4F20100006810F4C8
:101DC000702F03D018E00020B0B9FFE70299886AAD
:101DD00020F480108862029800684068400500285E
:101DE00009D5FFE70298806A40F4805020F4005043
:101DF00002998862FFE72CE00299886A40F480101B
:101E000088620298006842F20041C4F201018842EF
:101E100009D0FFE70298006842F60001C4F2010110
:101E2000884209D1FFE742F20440C4F20100006891
:101E30004005002803D40BE0012048B9FFE70298D1
:101E4000806A40F4805020F4005002998862FFE7D5
:101E5000FFE70298806AC004002806D5FFE70299D0
:101E6000C86A20F00600C86203E002990020C86238
:101E7000FFE7FFE70299002081F82400FFE70298BE
:101E800001686FF00200086002980068806800F442
:101E90006020B0F5602F1CD1FFE70298006842F681
:101EA0000001C4F20101884209D1FFE742F2044077
:101EB000C4F20100006810F4702F03D009E0002084
:101EC00038B9FFE702980168886840F4A00088608C
:101ED00006E002980168886840F480108860FFE797
:101EE00006E0FFE70299002081F82400FFE7FFE702
:101EF0009DF807008DF80F00FFE79DF80F0004B074
:101F000080BD000083B0019000208DF8030001988F
:101F100090F8210002280DD0FFE701990420886382
:101F2000FFE70199002081F82000FFE701208DF8EC
:101F30000B0021E001980168086820F00E0008609D
:101F400001980168086820F0010008600198C16BE1
:101F5000026C012090404860FFE70199012081F860
:101F60002100FFE70199002081F82000FFE79DF89C
:101F700003008DF80B00FFE79DF80B0003B07047DE
:101F800080B588B0079000208DF81B00079890F866
:101F90002100022807D0FFE7079904208863012069
:101FA0008DF81B0076E007980168086820F00E00A5
:101FB000086007980168086820F001000860079829
:101FC00000680821C4F20201884203D1FFE7012022
:101FD000059047E0079800681C21C4F2020188427E
:101FE00003D1FFE71020049039E007980068302102
:101FF000C4F20201884204D1FFE74FF480700390DD
:102000002AE0079800684421C4F20201884204D102
:10201000FFE74FF4805002901BE0079800685821BA
:10202000C4F20201884204D1FFE74FF480300190EE
:102030000CE0079801686C22C4F202024FF0807035
:10204000914208BF4FF480100190FFE70198029081
:10205000FFE702980390FFE703980490FFE70498D6
:102060000590FFE705980421C4F202010860079972
:10207000012081F82100FFE70799002081F8200066
:10208000FFE70798406B20B1FFE70798416B88474F
:10209000FFE7FFE79DF81B0008B080BD80B58EB05C
:1020A0000D900D98C06B00680C900D98006800684A
:1020B0000B900C980D99096CC8404007002875D505
:1020C000FFE79DF82C00400700286FD5FFE70D982B
:1020D000006800688006002807D4FFE70D980168B3
:1020E000086820F004000860FFE70D9800680821E8
:1020F000C4F20201884203D1FFE704200A9047E0BE
:102100000D9800681C21C4F20201884203D1FFE748
:102110004020099039E00D9800683021C4F2020196
:10212000884204D1FFE74FF4806008902AE00D98C0
:1021300000684421C4F20201884204D1FFE74FF451
:10214000804007901BE00D9800685821C4F20201FE
:10215000884204D1FFE74FF4802006900CE00D98F0
:1021600001686C22C4F202024FF08060914208BF05
:102170004FF480000690FFE706980790FFE7079866
:102180000890FFE708980990FFE709980A90FFE791
:102190000A980421C4F2020108600D98C06A20B1B7
:1021A000FFE70D98C16A8847FFE7B8E00C980D99E2
:1021B000096CC8408007002840F18080FFE79DF847
:1021C0002C008007002879D5FFE70D98006800688B
:1021D000800600280BD4FFE70D980168086820F0FE
:1021E0000A0008600D99012081F82100FFE70D9891
:1021F00000680821C4F20201884203D1FFE70220EF
:10220000059047E00D9800681C21C4F20201884245
:1022100003D1FFE72020049039E00D9800683021B9
:10222000C4F20201884204D1FFE74FF4007003902A
:102230002AE00D9800684421C4F20201884204D1CA
:10224000FFE74FF4005002901BE00D980068582102
:10225000C4F20201884204D1FFE74FF4003001903C
:102260000CE00D9801686C22C4F202024FF000707D
:10227000914208BF4FF400100190FFE701980290CF
:10228000FFE702980390FFE703980490FFE70498A4
:102290000590FFE705980421C4F202010860FFE7FA
:1022A0000D99002081F82000FFE70D98806A20B189
:1022B000FFE70D98816A8847FFE72FE00C980D999A
:1022C000096CC8400007002827D5FFE79DF82C00BF
:1022D0000007002821D5FFE70D980168086820F065
:1022E0000E0008600D98C26B016C012000FA01F12C
:1022F00051600D9988630D9981F82100FFE70D99D0
:10230000002081F82000FFE70D98006B20B1FFE767
:102310000D98016B8847FFE7FFE7FFE7FFE70EB087
:1023200080BD000083B0019000200090019820B98A
:10233000FFE701208DF80B0047E0019908684FF690
:10234000F872CBF6FD7210444CF6CD42CCF6CC427E
:10235000A0FB02026FF0030000EA920008640199FA
:102360000020C4F20200C8630199022081F8210014
:102370000198006800680090009843F6F071884367
:10238000009001994868D1F808C0CB680A6940EA12
:102390000C00184310434A6910438A691043C96905
:1023A000014300980843009000980199096808606B
:1023B000019900208863019A012182F82110019976
:1023C00081F820008DF80B00FFE79DF80B0003B0AB
:1023D0007047000080B586B004900391029201938B
:1023E00000208DF80300FFE7049890F820000128F2
:1023F00004D1FFE702208DF817004CE0049901207A
:1024000081F82000FFE7FFE7049890F821000128F9
:1024100032D1FFE70499022081F8210004990020BD
:10242000886304980168086820F001000860049837
:102430000399029A019BFEF7DDF90498C06A38B14E
:10244000FFE704980168086840F00E0008600CE09F
:1024500004980168086820F0040008600498016886
:10246000086840F00A000860FFE7049801680868FF
:1024700040F00100086009E0FFE70499002081F8BE
:102480002000FFE702208DF80300FFE79DF803001E
:102490008DF81700FFE79DF8170006B080BD00001B
:1024A00080B584B0039000F0C5F9029003980190C4
:1024B0000198013048B1FFE740F20840C2F2000045
:1024C0000178019808440190FFE7FFE700F0B2F9B6
:1024D0000299401A0199884201D2FFE7F6E704B059
:1024E00080BD000090B00F900E9100200D900990DB
:1024F000FFE70E9800680D99C840002800F07F8122
:10250000FFE70D99012088400C900E9800680C9907
:1025100008400B900B980C99884240F06C81FFE7C3
:102520000E9840680590002851D0FFE705980128D3
:102530003AD0FFE7059802283FD0FFE70598032827
:102540005FD0FFE70598112832D0FFE705981228E1
:1025500038D0FFE705980021C1F21101884236D03A
:10256000FFE705980021C1F2120188422FD0FFE752
:1025700005980021C1F22101884228D0FFE7059883
:102580000021C1F22201884221D0FFE705980021F5
:10259000C1F2310188421AD0FFE705980021C1F24B
:1025A0003201884213D02FE00E98C06809902CE0C9
:1025B0000E98C0680430099027E00E98C068083073
:1025C000099022E00E98C0680C3009901DE00E982A
:1025D000806818B9FFE70420099011E00E98806820
:1025E000012806D1FFE7082009900C980F9908618F
:1025F00005E0082009900C980F994861FFE7FFE774
:1026000003E00020099000E0FFE70B98FF2803D8C3
:10261000FFE70F98049003E00F9804300490FFE761
:10262000049808900B98FF2804D8FFE70D988000C5
:10263000039006E00D996FF01F0000EB81000390FE
:10264000FFE70398079008980068079A0F219140C8
:102650008843099991400843089908600E98C07909
:10266000C006002840F1C680FFE7FFE741F21800EE
:10267000C4F20200016841F001010160006800F04D
:10268000010006900698FFE70D9820F0030008214E
:10269000C4F2010140580A900D9800F00300810037
:1026A0000F2000FA01F10A9888430A900F9840F62B
:1026B0000001C4F20101884203D1FFE7002002902B
:1026C00026E00F9840F60041C4F20101884203D190
:1026D000FFE70120019018E00F9841F20001C4F2D9
:1026E0000101884203D1FFE7022000900AE00F9920
:1026F00041F20042C4F201020420914208BF0320CB
:102700000090FFE700980190FFE701980290FFE733
:1027100002980D9901F00301890000FA01F10A986D
:1027200008430A900A980D9921F003010822C4F287
:10273000010288500E988079C00748B1FFE70B9AD4
:1027400040F20041C4F2010108681043086008E04B
:102750000B9A40F20041C4F20101086890430860FE
:10276000FFE70E9880798007002809D5FFE70B9ACC
:1027700040F20441C4F2010108681043086008E017
:102780000B9A40F20441C4F20101086890430860CA
:10279000FFE70E988079C006002809D5FFE70B9A5D
:1027A00040F20841C4F2010108681043086008E0E3
:1027B0000B9A40F20841C4F2010108689043086096
:1027C000FFE70E9880798006002809D5FFE70B9A6D
:1027D00040F20C41C4F2010108681043086008E0AF
:1027E0000B9A40F20C41C4F2010108689043086062
:1027F000FFE7FFE7FFE70D9801300D9079E610B095
:102800007047000082B00190ADF802108DF80120F1
:102810009DF8010028B1FFE7BDF8020001990861A9
:1028200005E0BDF80200000401990861FFE702B06D
:102830007047000040F62420C2F200000068704794
:1028400080B58EB00C900C9820B9FFE701208DF870
:10285000370043E10C9890F83D0040B9FFE70C9930
:10286000002081F83C000C9800F03CF9FFE70C993F
:10287000242081F83D000C980168086820F00100D0
:1028800008600C980168086840F4004008600C98E3
:102890000168086820F40040086000F06FFD0A90AD
:1028A0000C98406848F2A061C0F2010188420BD840
:1028B000FFE70A9948F28042C0F21E0200209142CE
:1028C00038BF012009900AE00A9940F60012C0F2D0
:1028D0003D020020914238BF01200990FFE709988E
:1028E000012804D1FFE701208DF83700F6E00A98AF
:1028F0004DF68361C4F21B31A0FB0110800C0B90DC
:102900000C980068406820F03F000B9908430C9930
:10291000096848600C980068006A20F03F00089041
:102920000C98406848F2A061C0F20101884204D8C6
:10293000FFE70B98013007900EE00B984FF496716B
:10294000484344F6D351C1F26201A0FB01010120CA
:1029500000EB91100790FFE70898079908430C993E
:10296000096808620C980068C0694CF6FF718843DA
:1029700006900C98406848F2A061C0F201018842BC
:102980001FD8FFE70A9801380C9949684900B0FB45
:10299000F1F001306FF31F30032803D8FFE7042064
:1029A00005900BE00A9801380C9949684900B0FB82
:1029B000F1F001306FF31F300590FFE705980490A8
:1029C0004CE00C98806868B9FFE70A9801380C99C8
:1029D000496801EB4101B0FBF1F001306FF31F30AA
:1029E00003900DE00A9801380C9949681922514367
:1029F000B0FBF1F00130042161F31F300390FFE7D9
:102A00000398000518B9FFE70120029023E00C9815
:102A1000806868B9FFE70A9801380C99496801EBAA
:102A20004101B0FBF1F001306FF31F3001900DE078
:102A30000A9801380C99496819225143B0FBF1F00A
:102A40000130042161F31F300190FFE7019840F449
:102A500000400290FFE702980490FFE7069804996F
:102A600008430C990968C8610C980068006820F058
:102A7000C0000C9B1968DA691B6A1A43104308608E
:102A80000C980068806848F2FF3188430C9A1168FE
:102A9000D36812691A43104388600C980068C068B4
:102AA00020F0FF000C9B19685A699B691A43104378
:102AB000C8600C980168086840F0010008600C9933
:102AC000002008640C9A202182F83D100C990863BC
:102AD0000C9981F83E008DF83700FFE79DF837002C
:102AE0000EB080BD80B58AB0099000200890079094
:102AF000069005900998006845F20041C4F2000173
:102B0000884240F08880FFE7FFE741F21800C4F2F6
:102B10000200016841F008010160006800F008004F
:102B200004900498FFE74FF440700590122006903F
:102B30000320089040F60040C4F2010005A9FFF709
:102B4000D1FCFFE70421C4F2010108680390039857
:102B500040F0E0600390039840F002000390039877
:102B60000860FFE7FFE741F21C00C4F202000168C1
:102B700041F400110160006800F400100290029816
:102B8000FFE740F25070C2F2000001906C21C4F2E5
:102B90000201016010214160002181608022C26039
:102BA000016141618161C161FFF7BCFB18B1FFE7C1
:102BB000FDF7CAFFFFE7FFE7099840F25071C2F244
:102BC0000001416309984862FFE740F20C70C2F2CD
:102BD000000000908021C4F20201016000214160E8
:102BE00081608022C2600161416181614FF4805146
:102BF000C161FFF797FB18B1FFE7FDF7A5FFFFE7FE
:102C0000FFE7099840F20C71C2F200018163099854
:102C10004862FFE7FFE70AB080BD000040F20840CD
:102C2000C2F20000027840F62421C2F200010868D6
:102C3000104408607047000080B582B042F2000185
:102C4000C4F20201086840F010000860032000F0A0
:102C500097F80020019000F005F800F03BF801988B
:102C600002B080BD80B582B0009040F20040C2F258
:102C70000000006840F20841C2F200010A784FF4F7
:102C80007A71B1FBF2F1B0FBF1F001F085F920B1FE
:102C9000FFE701208DF8070018E000980F280DD8F5
:102CA000FFE700994FF0FF30002200F04FF8009846
:102CB00040F20C41C2F20001086003E001208DF8EF
:102CC000070003E000208DF80700FFE79DF80700EC
:102CD00002B080BD83B0FFE741F21800C4F20200E9
:102CE000016841F001010160006800F001000290FC
:102CF0000298FFE7FFE741F21C00C4F202000168FE
:102D000041F080510160006800F08050019001980E
:102D1000FFE7FFE70421C4F2010108680090009872
:102D200020F0E0600090009840F000700090009863
:102D30000860FFE703B0704780B582B08DF80700E8
:102D40009DF9070004F0D8FF02B080BD80B586B0C1
:102D50008DF81700049103920020029004F0E4FF24
:102D600002909DF91700019002980499039A03F0CC
:102D700067FB0146019804F0DFFF06B080BD00004C
:102D800080B582B00190019804F0F8FF02B080BDD8
:102D900080B58CB00B9040F60E70C1F210000A9016
:102DA00040F60A30C0F60C50099040F20670C0F6AA
:102DB0000810089040F20230C0F20450079040F230
:102DC0000120ADF81A0000200590049003900290B5
:102DD00001900B980090012863D0FFE7009802282B
:102DE00000F0A280FFE70098102840F0AD80FFE7D8
:102DF00041F20400C4F202000068029041F20000B7
:102E0000C4F202000068C001002849D5FFE702981B
:102E1000C0F3834107A8405C03909DF80A00C007F7
:102E2000F0B1FFE741F20400C4F20200006800F4D0
:102E300000310DF11A0040EA5140007805909DF8EC
:102E40000A00C00758B1FFE7059941F20020C0F21F
:102E50007A00B0FBF1F0039948430490FFE707E0E4
:102E6000039840F60011C0F23D0148430490FFE78B
:102E700041F20400C4F2020000684002002803D5B9
:102E8000FFE7049801900AE0049840004AF6AB215D
:102E9000CAF6AA21A0FB011040080190FFE7FFE756
:102EA00053E041F22000C4F2020000680290029850
:102EB00000F44070B0F5807F0AD1FFE79DF808006C
:102EC0008007002804D5FFE74FF4004001902AE076
:102ED000029800F44070B0F5007F0DD1FFE741F299
:102EE0002400C4F2020000688007002804D5FFE730
:102EF00049F64040019015E0029800F44070B0F5AA
:102F0000407F0DD1FFE741F20000C4F202000068EB
:102F10008003002804D5FFE74FF22440019000E031
:102F2000FFE7FFE7FFE710E000F03AFA41F20401A3
:102F3000C4F20201096801F44042022101EB52315E
:102F4000B0FBF1F0019000E0FFE701980CB080BD0C
:102F500080B586B004900020039002900498007819
:102F6000C007002800F0AC80FFE700208DF80700C4
:102F700041F21C00C4F202000068C000002813D413
:102F8000FFE7FFE741F21C00C4F20200016841F0D4
:102F900080510160006800F0805000900098FFE7C9
:102FA00001208DF80700FFE747F20000C4F200009F
:102FB0000068C005002822D4FFE747F20001C4F2F0
:102FC0000001086840F480700860FFF733FC03904C
:102FD000FFE747F20000C4F200000068C0050028C7
:102FE0000CD4FFE7FFF726FC0399401A652804D3A9
:102FF000FFE703208DF817008AE0EAE7FFE741F2D8
:103000002000C4F20200006800F4407002900298B0
:10301000E0B3FFE702980499496801F440718842DF
:1030200034D0FFE741F22001C4F20201086820F425
:103030004070029040F24042C4F2422201201060EF
:1030400000201060029808609DF80800C007E0B1F9
:10305000FFE7FFF7EFFB0390FFE741F22000C4F228
:1030600002000068800700280ED4FFE7FFF7E2FBAC
:103070000399401A41F28931884204D3FFE70320C3
:103080008DF8170044E0E8E7FFE7FFE741F2200191
:10309000C4F20201086820F44070049A5268104398
:1030A00008609DF80700012809D1FFE741F21C01E3
:1030B000C4F20201086820F080500860FFE7FFE7D3
:1030C00004980078800700280CD5FFE741F204013E
:1030D000C4F20201086820F44040049A9268104348
:1030E0000860FFE704980078C00600280CD5FFE7C9
:1030F00041F20401C4F20201086820F48000049A3D
:10310000D26810430860FFE700208DF81700FFE742
:103110009DF8170006B080BD80B584B00290019183
:10312000029820B9FFE701208DF80F001BE10198FC
:1031300042F20001C4F20201096801F0070188426D
:1031400016D9FFE742F20000C4F20200016821F044
:103150000701019A11430160006800F0070001991E
:10316000884204D0FFE701208DF80F00FBE0FFE765
:1031700002980078800700282AD5FFE70298007897
:103180004007002809D5FFE741F20401C4F202011B
:10319000086840F4E0600860FFE7029800780007E4
:1031A000002809D5FFE741F20401C4F202010868D2
:1031B00040F460500860FFE741F20401C4F20201EC
:1031C000086820F0F000029A926810430860FFE758
:1031D00002980078C007002860D0FFE70298406896
:1031E00001280ED1FFE741F20000C4F2020000689E
:1031F0008003002804D4FFE701208DF80F00B2E01F
:1032000021E00298406802280ED1FFE741F2000059
:10321000C4F2020000688001002804D4FFE7012006
:103220008DF80F009FE00DE041F20000C4F20200B3
:1032300000688007002804D4FFE701208DF80F0004
:1032400091E0FFE7FFE741F20401C4F202010868E0
:1032500020F00300029A526810430860FFF7EAFA70
:103260000090FFE741F20400C4F20200006800F0A1
:103270000C0002994968B0EB810F0ED0FFE7FFF711
:10328000D9FA0099401A41F28931884204D3FFE704
:1032900003208DF80F0066E0E4E7FFE7019842F2B3
:1032A0000001C4F20201096801F00701884216D248
:1032B000FFE742F20000C4F20200016821F00701BA
:1032C000019A11430160006800F0070001998842EB
:1032D00004D0FFE701208DF80F0044E0FFE70298DB
:1032E0000078400700280CD5FFE741F20401C4F242
:1032F0000201086820F4E060029AD2681043086076
:10330000FFE702980078000700280DD5FFE741F29B
:103310000401C4F20201086820F46050029A1269A4
:1033200040EAC2000860FFE700F04CF841F20401F7
:10333000C4F202010968C9B20A0947F60A71C0F667
:103340000001895CC84040F20041C2F200010860FF
:1033500040F20C40C2F200000068FFF783FC00203E
:103360008DF80F00FFE79DF80F0004B080BD00004E
:1033700040F20040C2F200000068704780B5FFF7DD
:10338000F7FF41F20401C4F202010968C1F302220D
:1033900047F61A71C0F60001895CC84080BD000084
:1033A00080B5FFF7E5FF41F20401C4F202010968AC
:1033B000C1F3C22247F61A71C0F60001895CC84009
:1033C00080BD00008BB040F60E70C1F210000A9074
:1033D00040F60A30C0F60C50099040F20670C0F674
:1033E0000810089040F20230C0F20450079040F2FA
:1033F0000120ADF81A00002005900490039002907F
:10340000019041F20400C4F20200006805900598A2
:1034100000F00C0001460091E0B3FFE7009804289B
:1034200004D0FFE70098082806D034E041F20020DD
:10343000C0F27A00019034E00598C0F3834107A8F8
:10344000405C02909DF81600C007C0B1FFE741F252
:103450000400C4F20200006800F400310DF11A000B
:1034600040EA514000780490029841F20021C0F2F5
:103470007A0148430499B0FBF1F0039007E0029809
:1034800040F60011C0F23D0148430390FFE7039866
:10349000019006E0FFE741F20020C0F27A000190BF
:1034A000FFE701980BB0704780B586B00490049890
:1034B00020B9FFE701208DF817002EE3049800786B
:1034C000C007002800F0AE80FFE741F20400C4F21C
:1034D0000200006800F00C00042813D0FFE741F25E
:1034E0000400C4F20200006800F00C0008281BD1A0
:1034F000FFE741F20400C4F202000068C0030028A4
:1035000012D5FFE741F20000C4F202000068800318
:10351000002808D5FFE70498406820B9FFE701209C
:103520008DF81700F9E27CE0FFE704984068B0F5F9
:10353000803F09D1FFE741F20001C4F202010868AF
:1035400040F48030086032E00498406868B9FFE7D2
:1035500041F20001C4F20201086820F480300860E2
:10356000086820F48020086020E004984068B0F5E6
:10357000A02F0DD1FFE741F20001C4F2020108685B
:1035800040F480200860086840F4803008600CE057
:1035900041F20001C4F20201086820F480300860A2
:1035A000086820F480200860FFE7FFE7FFE7FFE7F7
:1035B00004984068D0B1FFE7FFF73CF90390FFE7BC
:1035C00041F20000C4F202000068800300280CD41D
:1035D000FFE7FFF72FF90399401A652804D3FFE7A7
:1035E00003208DF8170098E2EAE719E0FFF722F9C7
:1035F0000390FFE741F20000C4F20200006880037C
:1036000000280CD5FFE7FFF715F90399401A652844
:1036100004D3FFE703208DF817007EE2EAE7FFE717
:10362000FFE7FFE7049800788007002840F18D80CD
:10363000FFE741F20400C4F20200006810F00C0F32
:1036400013D0FFE741F20400C4F20200006800F06A
:103650000C00082829D1FFE741F20400C4F202005F
:103660000068C003002820D4FFE741F20000C4F244
:10367000020000688007002809D5FFE70498006968
:10368000012804D0FFE701208DF8170045E241F240
:103690000001C4F20201086820F0F800049A52699F
:1036A00040EAC2000860FFE74EE00498006958B3A2
:1036B000FFE70021C4F2422101200860FFF7BAF8B9
:1036C0000390FFE741F20000C4F2020000688007A7
:1036D00000280CD4FFE7FFF7ADF80399401A032840
:1036E00004D3FFE703208DF8170016E2EAE741F262
:1036F0000001C4F20201086820F0F800049A52693F
:1037000040EAC20008601EE00021C4F2422100200D
:103710000860FFF78FF80390FFE741F20000C4F262
:1037200002000068800700280CD5FFE7FFF782F849
:103730000399401A032804D3FFE703208DF81700EC
:10374000EBE1EAE7FFE7FFE7FFE70498007800070F
:10375000002848D5FFE70498806918B3FFE740F2D6
:103760008041C4F2422101200860FFF763F8039012
:10377000FFE741F22400C4F202000068800700283D
:103780000CD4FFE7FFF756F80399401A032804D337
:10379000FFE703208DF81700BFE1EAE7012003F0FF
:1037A00011F91FE040F28041C4F24221002008607C
:1037B000FFF740F80390FFE741F22400C4F2020053
:1037C0000068800700280CD5FFE7FFF733F803995E
:1037D000401A032804D3FFE703208DF817009CE16B
:1037E000EAE7FFE7FFE7049800784007002840F188
:1037F000D880FFE700208DF8070041F21C00C4F2DA
:1038000002000068C000002813D4FFE7FFE741F280
:103810001C00C4F20200016841F0805101600068A0
:1038200000F0805000900098FFE701208DF807001D
:10383000FFE747F20000C4F200000068C00500285E
:1038400022D4FFE747F20001C4F20001086840F407
:1038500080700860FEF7EEFF0390FFE747F200007C
:10386000C4F200000068C00500280CD4FFE7FEF792
:10387000E1FF0399401A652804D3FFE703208DF880
:1038800017004AE1EAE7FFE7FFE70498C06801286C
:1038900009D1FFE741F22001C4F20201086840F0BB
:1038A0000100086031E00498C06868B9FFE741F2A0
:1038B0002001C4F20201086820F0010008600868D5
:1038C00020F0040008601FE00498C06805280DD1AE
:1038D000FFE741F22001C4F20201086840F0040051
:1038E0000860086840F0010008600CE041F2200127
:1038F000C4F20201086820F001000860086820F0A6
:1039000004000860FFE7FFE7FFE7FFE70498C068EF
:10391000E0B1FFE7FEF78EFF0390FFE741F22000E2
:10392000C4F202000068800700280ED4FFE7FEF70B
:1039300081FF0399401A41F28931884204D3FFE79D
:1039400003208DF81700E8E0E8E71BE0FEF772FFC0
:103950000390FFE741F22000C4F2020000688007F4
:1039600000280ED5FFE7FEF765FF0399401A41F2E4
:103970008931884204D3FFE703208DF81700CCE09B
:10398000E8E7FFE79DF80700012809D1FFE741F2CA
:103990001C01C4F20201086820F080500860FFE7B3
:1039A000FFE70498C069002800F0B380FFE741F208
:1039B0000400C4F20200006800F00C00082800F0C7
:1039C0008280FFE70498C06902285CD1FFE760218C
:1039D000C4F2422100200860FEF72CFF0390FFE7AD
:1039E00041F20000C4F202000068800100280CD5FA
:1039F000FFE7FEF71FFF0399401A032804D3FFE7F0
:103A000003208DF8170088E0EAE70498006AB0F513
:103A1000803F0CD1FFE741F20401C4F202010868C3
:103A200020F40030049A926810430860FFE741F2E6
:103A30000401C4F20201086820F47410049B1A6A9D
:103A40005B6A1A43104308606021C4F242210120DE
:103A50000860FEF7EFFE0390FFE741F20000C4F2BA
:103A600002000068800100280CD4FFE7FEF7E2FEA8
:103A70000399401A032804D3FFE703208DF81700A9
:103A80004BE0EAE71EE06021C4F24221002008601A
:103A9000FEF7D0FE0390FFE741F20000C4F20200FF
:103AA0000068800100280CD5FFE7FEF7C3FE0399EC
:103AB000401A032804D3FFE703208DF817002CE0F9
:103AC000EAE7FFE724E00498C069012804D1FFE792
:103AD00001208DF8170020E041F20400C4F202003A
:103AE00000680290029800F480300499096A8842C4
:103AF00008D1FFE7029800F470100499496A8842DF
:103B000004D0FFE701208DF8170006E0FFE7FFE78C
:103B1000FFE700208DF81700FFE79DF8170006B0BB
:103B200080BD000081B0009001B0704780B584B0C6
:103B30000290029820B9FFE701208DF80F006DE098
:103B40000298406A60B9FFE702984068B0F5827F4A
:103B500001D1FFE703E002990020C861FFE705E01B
:103B600002990020086102994861FFE7029900204C
:103B70008862029890F8510040B9FFE7029900204E
:103B800081F85000029800F04DF8FFE702990220FA
:103B900081F8510002980168086820F04000086030
:103BA000029A019211685068D2F808C0D36800F4F4
:103BB00082700CF4044C604403F4006318441369ED
:103BC00003F002031844536903F001031844936996
:103BD00003F400731844D36903F038031844136ADC
:103BE00003F080031843926A02F400521043086005
:103BF0000299488B00F00400096848600298016847
:103C0000C86920F40060C861029900204865029AE2
:103C1000012182F851108DF80F00FFE79DF80F0089
:103C200004B080BD80B58CB00B9000200A90099044
:103C3000089007900B98006843F20001C4F201015C
:103C4000884240F08C80FFE7FFE741F21800C4F2A1
:103C50000200016841F480510160006800F4805066
:103C600006900698FFE7FFE741F21800C4F2020051
:103C7000016841F004010160006800F00400059053
:103C80000598FFE7A02007900220089003200A90E3
:103C900040F60000C4F20100019007A90291FEF76E
:103CA00021FC019802994022079200220392089277
:103CB0000992FEF717FC039940F29470C2F20000DB
:103CC00004901C22C4F202020260416081608022E2
:103CD000C2604FF4807202614FF480624261816180
:103CE0004FF44051C161FEF71DFB18B1FFE7FCF72F
:103CF0002BFFFFE7FFE70B9840F29471C2F200013F
:103D0000C1640B984862FFE740F2D870C2F200002D
:103D100000903021C4F202010160102141600021B5
:103D200081608022C2604FF4807202614FF4806231
:103D3000426181614FF44051C161FEF7F3FA18B15D
:103D4000FFE7FCF701FFFFE7FFE70B9840F2D871B0
:103D5000C2F2000181640B984862FFE7FFE70CB0F4
:103D600080BD000081B0009001B0704781B000902C
:103D700001B0704780B588B0069005910492ADF807
:103D80000E3000208DF80600FFE7069890F85000EE
:103D9000012804D1FFE702208DF81F00EFE006990B
:103DA000012081F85000FFE7FFE7069890F85100E6
:103DB0008DF807000698406802909DF807000128DA
:103DC00012D0FFE70298B0F5827F09D1FFE706988D
:103DD000806828B9FFE79DF80700042804D0FFE7B2
:103DE00002208DF80600BFE0059838B1FFE704987F
:103DF00020B1FFE7BDF80E0020B9FFE701208DF8E4
:103E00000600B1E0069890F85100042805D0FFE7BD
:103E10000699052081F85100FFE7069900204865C2
:103E20000599069A1163BDF80E10069A9186BDF8A1
:103E30000E10069AD1860499069A9163BDF80E1069
:103E4000069A9187BDF80E10069AD18706990864E4
:103E500006994864069890F8510004280FD1FFE7AE
:103E60000698C16C46F63520C0F60000C862069878
:103E7000C16C46F66520C0F6000088620EE0069828
:103E8000C16C46F64D20C0F60000C8620698C16CB1
:103E900046F60530C0F600008862FFE70698C16C60
:103EA00046F60120C0F6000008630698C16C0020A9
:103EB0004863069B19689A6BD86C0C31DB8FFEF750
:103EC00089FA60B1FFE70699486D40F01000486537
:103ED00001208DF80600069981F8510044E006980B
:103EE0000168486840F0010048600698816C002035
:103EF000C8620699896C88620699896C086306997C
:103F0000896C4863069B1A68196B986C0C32DB8EBF
:103F1000FEF760FA60B1FFE70699486D40F01000C7
:103F2000486501208DF80600069981F851001BE0D4
:103F300006980068006800F04000402807D0FFE7BE
:103F400006980168086840F040000860FFE706989E
:103F50000168486840F02000486006980168486899
:103F600040F002004860FFE7FFE70699002081F873
:103F70005000FFE79DF806008DF81F00FFE79DF851
:103F80001F0008B080BD000081B0009001B07047F4
:103F900081B0009001B0704780B582B00190019867
:103FA00003F078F802B080BD81B0009001B0704796
:103FB00081B0009001B0704784B002900191002060
:103FC0000090FFE7029890F83C00012804D1FFE739
:103FD00002208DF80F0044E00299012081F83C0096
:103FE000FFE7FFE7009820F0FF000199C968084348
:103FF0000090009820F4407001998968084300906F
:10400000009820F480600199496808430090009866
:1040100020F400600199096808430090009820F49A
:1040200080500199096908430090009820F40050DD
:104030000199496908430090009820F48040019953
:10404000C969084300900098029909684864FFE72D
:104050000299002081F83C00FFE700208DF80F0056
:10406000FFE79DF80F0004B07047000085B0039093
:104070000291FFE7039890F83C00012804D1FFE784
:1040800002208DF813005BE00399012081F83C00C9
:10409000FFE7FFE70399022081F83D0003980068DD
:1040A000406801900398006880680090019820F0B3
:1040B00070000190029801680198084301900198EE
:1040C0000399096848600398006842F60041C4F209
:1040D0000101884218D0FFE703980068B0F1804FD3
:1040E00012D0FFE70398006840F20041C4F20001DB
:1040F000884209D0FFE70398006840F60001C4F247
:10410000000188420ED1FFE7009820F08000009067
:104110000298416800980843009000980399096844
:104120008860FFE70399012081F83D00FFE70399CC
:10413000002081F83C00FFE700208DF81300FFE726
:104140009DF8130005B0704780B582B000900098CC
:1041500020B9FFE701208DF807003FE0009890F8B4
:104160003D0040B9FFE70099002081F83C0000982D
:1041700000F038F8FFE70099022081F83D0000992F
:1041800051F8040B03F006F80099012081F846006D
:10419000FFE70099012081F83E00009981F83F0077
:1041A000009981F84000009981F84100FFE7FFE79E
:1041B0000099012081F84200009981F8430000999C
:1041C00081F84400009981F84500FFE7009901203B
:1041D00081F83D0000208DF80700FFE79DF80700FB
:1041E00002B080BD80B584B003900398006842F6A9
:1041F0000041C4F20101884210D1FFE7FFE741F21C
:104200001800C4F20200016841F400610160006816
:1042100000F4006002900298FFE71FE00398006836
:10422000B0F1804F19D1FFE7FFE741F21C00C4F263
:104230000200016841F001010160006800F0010026
:1042400001900198FFE71C2000900D210022FEF74D
:104250007DFD0098FEF770FDFFE7FFE704B080BD2D
:1042600083B00190019890F83D00012804D0FFE749
:1042700001208DF80B0047E00199022081F83D00F4
:1042800001980168C86840F00100C86001980068A2
:1042900042F60041C4F20101884218D0FFE70198BC
:1042A0000068B0F1804F12D0FFE70198006840F23B
:1042B0000041C4F20001884209D0FFE7019800687C
:1042C00040F60001C4F20001884212D1FFE70198D4
:1042D0000068806800F0070000900098062807D06A
:1042E000FFE701980168086840F001000860FFE7F7
:1042F00006E001980168086840F001000860FFE7E7
:1043000000208DF80B00FFE79DF80B0003B070470D
:1043100080B586B004900391FFE7049890F83C00C4
:10432000012804D1FFE702208DF81700A7E00499C7
:10433000012081F83C00FFE7FFE70499022081F8A3
:104340003D000498006880680290029820F0770091
:104350000290029820F47F40029002980499096824
:104360008860039800680190002872D0FFE70198E8
:1043700010286ED0FFE7019820286AD0FFE7019847
:10438000302866D0FFE70198402855D0FFE7019814
:10439000502837D0FFE70198602840D0FFE7019808
:1043A00070280BD0FFE70198B0F5805F05D0FFE7DC
:1043B0000198B0F5005F16D052E052E00498006812
:1043C000039B5A689968DB6802F078FF04980068DC
:1043D00080680290029840F0770002900298049959
:1043E000096888603DE004980068039B5A689968F2
:1043F000DB6802F063FF04980168886840F480403D
:1044000088602EE004980068039A5168D26803F02F
:1044100011F904980068502102F06AFF21E0049825
:104420000068039A5168D26803F02CF90498006878
:10443000602102F05DFF14E004980068039A51685F
:10444000D26803F0F7F804980068402102F050FFAA
:1044500007E0049800680399096802F049FF00E04A
:10446000FFE70499012081F83D00FFE7049900204F
:1044700081F83C00FFE700208DF81700FFE79DF86A
:10448000170006B080BD000081B0009001B07047F9
:1044900080B582B0019001980068006900F00201C7
:1044A0000020B0EB510F28D0FFE701980068C068EA
:1044B00000F002010020B0EB510F1DD0FFE7019882
:1044C00001686FF0020008610199012008770198E6
:1044D00000688069800720B1FFE70198FFF7D4FFEB
:1044E00006E0019800F090F9019800F0CFFAFFE79C
:1044F000019900200877FFE7FFE70198006800694D
:1045000000F004010020B0EB910F29D0FFE70198E3
:104510000068C06800F004010020B0EB910F1ED0CD
:10452000FFE7019801686FF004000861019902201B
:10453000087701980068806910F4407F04D0FFE795
:104540000198FFF7A1FF06E0019800F05DF90198DE
:1045500000F09CFAFFE7019900200877FFE7FFE7EA
:1045600001980068006900F008010020B0EBD10F4D
:1045700028D0FFE701980068C06800F0080100201B
:10458000B0EBD10F1DD0FFE7019801686FF0080074
:10459000086101990420087701980068C0698007C4
:1045A00020B1FFE70198FFF76FFF06E0019800F0E8
:1045B0002BF9019800F06AFAFFE7019900200877CB
:1045C000FFE7FFE701980068006900F01001002094
:1045D000B0EB111F29D0FFE701980068C06800F018
:1045E00010010020B0EB111F1ED0FFE701980168F9
:1045F0006FF01000086101990820087701980068A1
:10460000C06910F4407F04D0FFE70198FFF73CFF3A
:1046100006E0019800F0F8F8019800F037FAFFE79B
:10462000019900200877FFE7FFE70198006800691B
:10463000C00780B1FFE701980068C068C00748B1B3
:10464000FFE7019801686FF001000861019800F030
:1046500043FBFFE7FFE7019800680069C1B2002053
:10466000B0EBD11F13D0FFE701980068C068C1B25A
:104670000020B0EBD11F09D0FFE7019801686FF06F
:10468000800008610198FFF78FFCFFE7FFE70198C2
:104690000068006900F040010020B0EB911F14D0C9
:1046A000FFE701980068C06800F040010020B0EB0F
:1046B000911F09D0FFE7019801686FF04000086181
:1046C000019800F019FBFFE7FFE701980068006917
:1046D00000F020010020B0EB511F14D0FFE701983B
:1046E0000068C06800F020010020B0EB511F09D025
:1046F000FFE7019801686FF0200008610198FFF75B
:1047000057FCFFE7FFE702B080BD000080B586B030
:104710000590002004900390029001900598006895
:1047200042F60041C4F2010188421ED1FFE7FFE7D3
:1047300041F21800C4F20200016841F00401016076
:10474000006800F0040000900098FFE74FF4E0607C
:104750000190022002900320049040F60000C4F271
:10476000010001A9FDF7BEFEFFE706B080BD000015
:1047700080B586B0049003910292FFE7049890F808
:104780003C00012804D1FFE702208DF8170036E035
:104790000499012081F83C00FFE7FFE702980190AF
:1047A0000C2821D80199DFE801F0071F1F1F0D1FFA
:1047B0001F1F131F1F1F190004980068039902F0A0
:1047C000ADFD12E004980068039902F00FFE0CE0C2
:1047D00004980068039902F075FE06E004980068EA
:1047E000039902F0DBFE00E0FFE7FFE704990020F9
:1047F00081F83C00FFE700208DF81700FFE79DF8E7
:10480000170006B080BD000081B0009001B0704775
:1048100080B582B00090009820B9FFE701208DF8A4
:1048200007003FE0009890F83D0040B9FFE700998D
:10483000002081F83C00009800F038F8FFE700996C
:10484000022081F83D00009951F8040B02F0A2FC0F
:104850000099012081F84600FFE70099012081F8C6
:104860003E00009981F83F00009981F840000099CE
:1048700081F84100FFE7FFE70099012081F842003D
:10488000009981F84300009981F84400009981F86B
:104890004500FFE70099012081F83D0000208DF8D8
:1048A0000700FFE79DF8070002B080BD81B00090CF
:1048B00001B0704780B586B0049003910292FFE783
:1048C000049890F83C00012804D1FFE702208DF8FD
:1048D000170085E00499012081F83C00FFE7FFE71D
:1048E000029801900C2800F270800199DFE801F035
:1048F000076D6D6D206D6D6D3A6D6D6D5300049893
:104900000068039902F00AFD04980168886940F084
:104910000800886104980168886920F004008861B3
:1049200003980269049801688869104388614DE022
:1049300004980068039902F059FD04980168886999
:1049400040F40060886104980168886920F4806000
:1049500088610398026904980168886940EA022026
:10496000886133E004980068039902F0ABFD049875
:104970000168C86940F00800C86104980168C86906
:1049800020F00400C8610398026904980168C869AE
:104990001043C8611AE004980068039902F0FEFD14
:1049A00004980168C86940F40060C861049801680F
:1049B000C86920F48060C86103980269049801689E
:1049C000C86940EA0220C86100E0FFE7FFE70499F8
:1049D000002081F83C00FFE700208DF81700FFE77A
:1049E0009DF8170006B080BD80B582B00090009899
:1049F00020B9FFE701208DF807003FE0009890F80C
:104A00003D0040B9FFE70099002081F83C00009884
:104A100000F038F8FFE70099022081F83D00009986
:104A200051F8040B02F0B6FB0099012081F8460012
:104A3000FFE70099012081F83E00009981F83F00CE
:104A4000009981F84000009981F84100FFE7FFE7F5
:104A50000099012081F84200009981F843000099F3
:104A600081F84400009981F84500FFE70099012092
:104A700081F83D0000208DF80700FFE79DF8070052
:104A800002B080BD81B0009001B0704781B000904D
:104A900001B0704780B58AB008900791079828B98F
:104AA000FFE7089890F83E0005901CE0079804285E
:104AB00005D1FFE7089890F83F00049010E00798B0
:104AC000082805D1FFE7089890F84000039004E01B
:104AD000089890F841000390FFE703980490FFE7DF
:104AE00004980590FFE70598012804D0FFE701200E
:104AF0008DF827007AE0079828B9FFE70899022087
:104B000081F83E001EE00798042806D1FFE70899C7
:104B1000022081F83F00029012E00798082806D191
:104B2000FFE70899022081F84000019005E008990C
:104B3000022081F841000190FFE701980290FFE711
:104B40000298FFE7089800680799012202F09AFB93
:104B50000898006842F60041C4F20101884207D17A
:104B6000FFE708980168486C40F400404864FFE79C
:104B70000898006842F60041C4F20101884218D04A
:104B8000FFE708980068B0F1804F12D0FFE708985F
:104B9000006840F20041C4F20001884209D0FFE7FA
:104BA0000898006840F60001C4F20001884212D162
:104BB000FFE708980068806800F0070006900698F4
:104BC000062807D0FFE708980168086840F0010050
:104BD0000860FFE706E008980168086840F00100F7
:104BE0000860FFE700208DF82700FFE79DF8270009
:104BF0000AB080BD80B584B003900291039800682C
:104C00000299002202F03EFB0398006842F6004140
:104C1000C4F2010188421BD1FFE7FFE70398006857
:104C2000006A41F21111084210D1FFE703980068B1
:104C3000006A40F24441084207D1FFE70398016847
:104C4000486C20F400404864FFE7FFE7FFE7FFE718
:104C5000FFE703980068006A41F21111084210D181
:104C6000FFE703980068006A40F24441084207D118
:104C7000FFE703980168086820F001000860FFE77B
:104C8000FFE7FFE7029828B9FFE70399012081F8C1
:104C90003E001EE00298042806D1FFE70399012098
:104CA00081F83F00019012E00298082806D1FFE742
:104CB0000399012081F84000009005E0039901204C
:104CC00081F841000090FFE700980190FFE701980C
:104CD000FFE7002004B080BD80B582B0019001984C
:104CE00040F69811C2F20001884203D1FFE700F0BC
:104CF000DBFBFFE702B080BD81B0009001B07047E0
:104D000082B00190ADF8021002B0704780B582B059
:104D1000019000200090019800684069C0B2C0096D
:104D20000090019890F83D00212816D1FFE70098E7
:104D300098B1FFE701980168486920F08000486158
:104D40000198406B28B1FFE70198406BFDF7DAF856
:104D5000FFE7019802F0D2FDFFE701980068406983
:104D6000C0F380100090019890F83E00222816D1E0
:104D7000FFE7009898B1FFE701980168486920F0C3
:104D8000400048610198806B28B1FFE70198806B73
:104D9000FDF7B8F8FFE7019802F078FDFFE7002083
:104DA00002B080BD81B0009001B0704780B588B07E
:104DB0000790079800680068069007980068C06828
:104DC00005900798006840690490002003900290C5
:104DD000069800F00F000390039888B9FFE79DF84C
:104DE0001800800600280AD5FFE79DF81400800609
:104DF000002804D5FFE7079802F08EFD76E1FFE773
:104E00000398002800F0B480FFE79DF81000C00769
:104E100038B9FFE7BDF8140010F4907F00F0A880C7
:104E2000FFE79DF81800C00758B1FFE79DF815008F
:104E3000C00730B1FFE70799086C40F00100086433
:104E4000FFE79DF81800400700280BD5FFE79DF805
:104E50001000C00730B1FFE70799086C40F002006E
:104E60000864FFE79DF81800800700280BD5FFE7CE
:104E70009DF81000C00730B1FFE70799086C40F0BB
:104E800004000864FFE79DF818000007002811D50A
:104E9000FFE79DF814008006002805D4FFE79DF881
:104EA0001000C00730B1FFE70799086C40F0080018
:104EB0000864FFE70798006C002858D0FFE79DF8CA
:104EC0001800800600280AD5FFE79DF81400800628
:104ED000002804D5FFE7079802F01EFDFFE70798BA
:104EE00000684069C0F3801002900798006C0007CA
:104EF000002803D4FFE7029888B3FFE7079802F081
:104F0000C5FC0798006840694006002822D5FFE7E5
:104F100007980168486920F0400048610798806B55
:104F200098B1FFE70798816B47F2D960C0F600009F
:104F300048630798806BFDF723F828B1FFE70798CF
:104F4000806B416B8847FFE703E00798FFF72AFF74
:104F5000FFE703E00798FFF725FFFFE706E0079864
:104F6000FFF720FF079900200864FFE7FFE7BDE097
:104F70000798006B012840F09980FFE79DF8180022
:104F8000C006002840F19280FFE79DF81400C0069B
:104F9000002840F18B80FFE7FFE700200190079891
:104FA00000680068019007980068406801900198C7
:104FB000FFE70798006840694006002848D5FFE7EA
:104FC0000798806B00684068ADF80200BDF80200E9
:104FD000E8B3FFE7BDF802000799898D884236DA09
:104FE000FFE7BDF802000799C8850798806B8069C4
:104FF000202824D0FFE707980168C86820F4807053
:10500000C86007980168486920F001004861079866
:105010000168486920F0400048610799202081F824
:105020003E0007990020086307980168C86820F0CF
:105030001000C8600798806BFCF764FFFFE70798D3
:10504000818DC28D891A89B2FFF75AFEFFE74DE0C4
:105050000799888DC98D401AADF800000798C08D5A
:1050600018B3FFE7BDF80000F8B1FFE70798016843
:10507000C86820F49070C86007980168486920F0FB
:10508000010048610799202081F83E00079900201F
:10509000086307980168C86820F01000C860079886
:1050A000BDF80010FFF72CFEFFE71FE09DF8180089
:1050B000000600280AD5FFE79DF814000006002826
:1050C00004D5FFE7079802F08BFD0FE09DF818006C
:1050D000400600280AD5FFE79DF814004006002886
:1050E00004D5FFE7079802F0F5FBFFE708B080BDA5
:1050F00080B582B00090009820B9FFE701208DF8BC
:1051000007003EE00098806908B1FFE700E0FFE794
:10511000009890F83D0040B9FFE70099002081F821
:105120003C00009800F032F8FFE70099242081F855
:105130003D0000980168C86820F40050C8600098DD
:1051400002F090FC00980168086920F49040086122
:1051500000980168486920F02A00486100980168B9
:10516000C86840F40050C860009900200864009AA4
:10517000202182F83D10009A82F83E108DF8070039
:10518000FFE79DF8070002B080BD000080B58EB03B
:105190000D9000200C900B900A9009900D980068DB
:1051A00043F60001C4F20101884240F09B80FFE712
:1051B000FFE741F21800C4F20200016841F48041A7
:1051C0000160006800F4804008900898FFE7FFE75E
:1051D00041F21800C4F20200016841F008010160C8
:1051E000006800F0080007900798FFE7402009904A
:1051F00002200A9003200C9040F60040C4F2010007
:10520000049009A90591FDF76DF90498059980228C
:10521000099200220A920B92FDF764F9FFE704213C
:10522000C4F2010108680690069840F0E06006901C
:10523000069840F00400069006980860FFE740F6E4
:105240006000C2F2000003904421C4F20201016038
:1052500010214160002181608022C26001614161B2
:105260008161C161FDF75EF818B1FFE7FBF76CFCE7
:10527000FFE7FFE70D9840F66001C2F200014163CD
:105280000D984862FFE740F61C00C2F20000029051
:105290005821C4F202010160002141608160802236
:1052A000C2600161416181614FF48051C161FDF7CC
:1052B00039F818B1FFE7FBF747FCFFE7FFE70D9868
:1052C00040F61C01C2F2000181630D984862FFE7BD
:1052D000252001900C210022FDF738FD0198FDF7F3
:1052E0002BFDFFE70EB080BD80B584B00290019128
:1052F000ADF80220029890F83E00202828D1FFE760
:10530000019820B1FFE7BDF8020020B9FFE70120B6
:105310008DF80F0020E0FFE7029890F83C0001288C
:1053200004D1FFE702208DF80F0015E0029901205B
:1053300081F83C00FFE7FFE702990020086302982C
:105340000199BDF8022002F0EBFB8DF80F0003E09D
:1053500002208DF80F00FFE79DF80F0004B080BD1C
:1053600081B0009001B0704781B0009001B07047EB
:1053700080B586B004900391ADF80A20049890F8A7
:105380003D00202867D1FFE7039820B1FFE7BDF873
:105390000A0020B9FFE701208DF817005FE0FFE762
:1053A000049890F83C00012804D1FFE702208DF812
:1053B000170054E00499012081F83C00FFE7FFE763
:1053C000039804990862BDF80A0004998884BDF81E
:1053D0000A000499C884049900200864049A2121D1
:1053E00082F83D1004994A6B47F62D01C0F6000182
:1053F000916204994A6B47F67501C0F60001D162CB
:1054000004994A6B47F2F961C0F6000111630499EF
:10541000496B486303A8019004980268406B0199A6
:1054200009680432BDF80A30FCF7D4FF049801681B
:105430006FF040000860FFE70499002081F83C000D
:10544000FFE704980168486940F080004861002047
:105450008DF8170003E002208DF81700FFE79DF894
:10546000170006B080BD000081B0009001B0704709
:1054700081B0009001B07047FFE7FEE740F2705145
:10548000C2F200010B2008700C20087140F2D842D3
:10549000C2F20002012010700E20907000205070A7
:1054A00040F6C9004880704780B501F0CFF880BD54
:1054B00081B000900099B1F962308A68C86853439E
:1054C000B1F9602000FB1230001308610099B1F9B6
:1054D00060208868CB68B1F962C003FB0CF300FB65
:1054E00002300013486101B07047000080B58EB0F3
:1054F000002101910D910C910B910A910991089154
:105500000791069105910491039140F2AC60C2F2BB
:105510000000029042F20042C4F201020260816087
:10552000017301754FF46022C26141600121016184
:10553000FCF77AFA18B1FFE7FBF706FBFFE74FF439
:10554000A0200D9040F2AC60C2F200000DA9FBF764
:10555000A5FF18B1FFE7FBF7F7FAFFE70820069071
:10556000012007900A9008904FF480500C90002082
:105570008DF82D008DF82C00099040F2AC60C2F23D
:10558000000006A9FBF748FC18B1FFE7FBF7DCFABF
:10559000FFE708200390012004900020059040F2CE
:1055A000AC60C2F2000003A9FCF794F818B1FFE761
:1055B000FBF7CAFAFFE70EB080BD000080B58CB0E3
:1055C000002100910B910A91099108910791069190
:1055D000059104910391029140F2DC60C2F2000057
:1055E000019042F60002C4F2010202608160017380
:1055F00001754FF46022C261416001210161FCF735
:1056000013FA18B1FFE7FBF79FFAFFE709200590AF
:10561000012006900990079000208DF829008DF850
:105620002800089040F2DC60C2F2000005A9FBF7F8
:10563000F3FB18B1FFE7FBF787FAFFE709200290B9
:10564000012003900020049040F2DC60C2F20000D0
:1056500002A9FCF73FF818B1FFE7FBF775FAFFE77F
:105660000CB080BD80B58AB0FFE741F21400C4F2EF
:105670000200016841F001010160006800F00100D2
:1056800009900998FFE70C2001900022079211462B
:10569000FDF75CFB0198FDF74FFB079A0D20029088
:1056A0001146FDF753FB0298FDF746FB079A0E20C3
:1056B00003900B210691FDF749FB0398FDF73CFB96
:1056C0000699079A0F200490FDF740FB0498FDF718
:1056D00033FB0699079A10200590FDF737FB0598D4
:1056E000FDF72AFB0699079A11200890FDF72EFB7B
:1056F0000898FDF721FB0AB080BD000080B58EB090
:1057000000200D900C900B900A90FFE741F21800DA
:10571000C4F20200016841F020010160006800F05D
:10572000200009900998FFE7FFE741F21800C4F252
:105730000200016841F004010160006800F004000B
:1057400008900898FFE7FFE741F21800C4F2020052
:10575000016841F008010160006800F0080007904E
:105760000798FFE740F60000C4F20100039041F201
:105770000A0100220492FDF745F8039810210091D8
:1057800001220192FDF73EF8049A40F60040C4F26F
:10579000010005904FF47041FDF734F8019A039829
:1057A00004990A230A930B920C9103210D910AA9E3
:1057B0000691FCF797FE0398049A069948F20403B1
:1057C0000A930B920C92FCF78DFE009B019A0398B2
:1057D00006990A930B920C920D92FCF783FE019AA4
:1057E000059806994FF4E0430A930B920C9202221B
:1057F00002920D92FCF776FE019A059806994FF4F5
:1058000000430A930B920C920D92FCF76BFE019BE6
:10581000029A039806994FF4805CCDF828C00B9348
:105820000C930D92FCF75EFE049A059806993823B6
:105830000A930B920C92FCF755FE0EB080BD00004F
:1058400080B582B040F6A400C2F20000019045F29B
:105850000041C4F20001016041F68021C0F206015E
:10586000416000218160C1604FF48042026141616A
:105870008161C1610162FCF7E3FF18B1FFE7FBF74B
:1058800063F9FFE702B080BD80B582B040F6F80052
:10589000C2F20000019043F20001C4F20101016074
:1058A0004FF482714160002181604FF40062C26058
:1058B00002220261012242614FF4007282611022D1
:1058C000C2610162416281620A21C162FEF72EF962
:1058D00018B1FFE7FBF738F9FFE702B080BD000021
:1058E00080B598B0002101911791169115911491EE
:1058F00013911291119110910F910E910D910C91A4
:105900000B910A91099108910791069105910491D3
:10591000039140F65010C2F20000029042F600429D
:10592000C4F20102026041602022826040F6C90296
:10593000C2600161416180218161FEF705FC18B1FF
:10594000FFE7FBF701F9FFE74FF48050149040F6B2
:105950005010C2F2000014A9FEF7DAFC18B1FFE7FC
:10596000FBF7F2F8FFE740F65010C2F20000FFF735
:105970003BF818B1FFE7FBF7E7F8FFE700201290CC
:10598000139040F65010C2F2000012A9FEF76EFB11
:1059900018B1FFE7FBF7D8F8FFE760200B90002273
:1059A0000C920D920E920F921092119240F650109E
:1059B000C2F200000BA9FEF77DFF18B1FFE7FBF76D
:1059C000C3F8FFE740F65010C2F200000BA9042212
:1059D000FEF770FF18B1FFE7FBF7B6F8FFE740F6F8
:1059E0005010C2F200000BA90822FEF763FF18B1A5
:1059F000FFE7FBF7A9F8FFE770200B9040F6AC003B
:105A00000C9040F65010C2F200000BA90C22FEF7D9
:105A100051FF18B1FFE7FBF797F8FFE7002003906D
:105A200004900590069007904FF4005108910A9059
:105A300040F65010C2F2000003A9FEF7BDFA18B1FB
:105A4000FFE7FBF781F8FFE740F65010C2F20000D5
:105A5000FEF75CFE18B080BD80B58EB000210091CD
:105A60000D910C910B910A91099108910791069162
:105A70000591049103910291019140F69810C2F2B0
:105A800000004FF08042026047224260816040F295
:105A9000E732C260016180218161FEF755FB18B1D8
:105AA000FFE7FBF751F8FFE74FF480500A9040F60C
:105AB0009810C2F200000AA9FEF72AFC18B1FFE70D
:105AC000FBF742F8FFE740F69810C2F20000FEF73D
:105AD0009FFE18B1FFE7FBF737F8FFE700200890BB
