:020000040800F2
:100000004010002005010008413B0008A531000810
:10001000ED360008E9050008AD48000800000000C2
:10002000000000000000000000000000D9400008AF
:100030004B07000800000000073E0008814200084E
:100040001F0100081F0100081F0100081F01000810
:100050001F0100081F0100081F0100081F01000800
:100060001F0100081F0100081F0100081F010008F0
:10007000B1060008D1060008F1060008FD060008D8
:100080000907000815070008310400081F010008CF
:100090001F0100081F0100081F0100081F010008C0
:1000A0001F0100081F0100081F0100081F010008B0
:1000B000014300081F0100081F0100081F0100087C
:1000C0001F0100081F0100081F0100081F01000890
:1000D0001F010008794800081F0100081F010008DF
:1000E0001F0100081F0100081F010008DFF810D0E1
:1000F00000F05CF900480047ED480008AFF30080CD
:10010000401000200648804706480047FEE7FEE70B
:10011000FEE7FEE7FEE7FEE7FEE7FEE7FEE7FEE7B7
:10012000FF420008ED000008202A04DB203A21FAF3
:1001300002F00021704721FA02F3D040C2F1200200
:10014000914008431946704740EA01039B0703D0DA
:1001500009E008C9121F08C0042AFAD203E011F806
:10016000013B00F8013B521EF9D27047D2B201E0C8
:1001700000F8012B491EFBD270470022F6E710B5AC
:1001800013460A4604461946FFF7F0FF204610BD05
:100190002DE9FE4F81EA030404F0004421F0004100
:1001A00000944FF0000B23F0004350EA01045ED0AE
:1001B00052EA03045BD0C3F30A54C1F30A552C443A
:1001C000A4F2F3340194A0FB0254C1F3130141F4EF
:1001D0008011C3F3130343F4801301FB024400FBBB
:1001E000034E840A970A44EA815447EA8357A4FBE2
:1001F000076802958D0A05FB07854FEA932C04FBDF
:100200000C542705029D4FEA065847EA1637B5EB0E
:1002100008056EEB070C870E920E47EA811742EA3B
:100220008312A7FB0201B6EB0B0164EB00042B0D5C
:1002300043EA0C335E1844EB1C50DA465146E7FBA8
:100240000201C5F313044FEA0B3343EA14534FEA98
:100250000432019C43EA0603A4F10C040294009CBE
:10026000CDE900B400F054F803B0BDE8F08F0020F1
:100270000146F9E70EB5C10F80EAE0700844CA07ED
:10028000002140F233438DE80E000A460B4600F091
:100290003FF803B000BD70B5C1F30A5201F000454C
:1002A0000024C1F3130140F2FF3341F480119A425C
:1002B00001DA002070BD40F233439A42A2F2334289
:1002C00003DC5242FFF730FF00E090402C43F1D0B6
:1002D000404270BD202A04DB203A00FA02F10020DF
:1002E00070479140C2F1200320FA03F31943904074
:1002F000704710B5141E73F1000408DA401C41F178
:10030000000192185B411A4301D120F0010010BD99
:100310002DE9F04D92469B4611B1B1FA81F202E00F
:10032000B0FA80F220329046FFF7D4FF04460F4621
:1003300040EA0A0041EA0B0153465A46084313D0EB
:10034000114653EA010019D0C8F140025046FFF7A8
:10035000EBFE05460E46504659464246FFF7BAFFA9
:10036000084305D0012004E020463946BDE8F08D61
:100370000020054346EAE0762C4337430A9863059C
:10038000E40AA0EB08000022FD0A44EA47540A30C0
:1003900002D500200146E9E7010510196941DDE9B0
:1003A000084500196941BDE8F04DA2E7064C074D2C
:1003B00006E0E06840F0010394E807009847103435
:1003C000AC42F6D3FFF796FED04D0008F04D000882
:1003D00070B58D1810F8014B14F0030201D110F81C
:1003E000012B231106D110F8013B03E010F8016B3B
:1003F00001F8016B521EF9D1ABB110F8012B04F0DA
:100400000C048A1A0C2C03D0A2EB84129B1C08E06B
:1004100010F8014BA2EB0422F8E712F8014B01F8A7
:10042000014B5B1EF9D5A942D4D3002070BD00005A
:1004300010B5044800F025FEBDE81040024800F069
:1004400020BE0000B4080020E408002070B5044677
:1004500000688168C943C90716D1816821F001018C
:10046000816001F03DFA054609E001F039FA401BD0
:10047000022804D920688068C043C00706D02068DD
:100480008068C043C007F0D0002070BDA06A40F073
:100490001000A062E06A40F00100E062012070BD3F
:1004A0002DE9F047044614480026374601784FF0FE
:1004B000200841F0400101702685B14666854FF461
:1004C0007A7001F00FF90125B4F924003F1AB4F94C
:1004D0002600361A022001F005F96D1CEDB24545E3
:1004E000F2D97811208570116085A4F82690A4F8BF
:1004F0002490BDE8F08700004204002010B50146BA
:10050000406A826A12F0500F05D0006A026BBDE8A3
:10051000104008461047816A41F400718162016809
:100520008968C1F3424107290CD1017B51B9816A25
:1005300021F480718162816AC90403D4816A41F027
:100540000101816200F09AFD10BD10B5406A816A18
:1005500041F040018162C16A41F00401C16200F0D2
:100560008FFD10BD10B5406A00F089FD10BD000080
:10057000F8B500260446009600688168C943C9079B
:100580002CD0816841F0010181601548154900684F
:10059000B0FBF1F000E0401E00900028FBD101F01C
:1005A0009FF9054615E001F09BF9401B022810D980
:1005B00020688068C043C0070BD0A06A40F01000DC
:1005C000A062E06A40F00100E06284F8246001204B
:1005D000F8BD20688068C043C007E4D10020F8BDA2
:1005E0000000002040420F00FEE7B0F92410818592
:1005F00040F24F225143B0F9262040F24F235A4394
:1006000001EB42018912C1857047000000B500F07E
:1006100075F90349088003490020088000BD0000E7
:10062000380000204004002000210160416081600A
:10063000C16001743223438201228282C18203831A
:10064000428381831923C38302840A2343848184E0
:10065000C2844FF4406282624FF40062C0E90B2111
:10066000416370470021017041708170C170017158
:100670001022427105228271C271017232224272CD
:100680008272C27201734173704710B5B0F93020A5
:100690004368C168846903FB0213C16E01FB034315
:1006A000836183685943436901FB1231416110BD85
:1006B00010B5054800F004FF0122BDE810401021EC
:1006C000024801F007B90000480A00200008014074
:1006D00010B5054800F0F4FE0122BDE810401021DD
:1006E000024801F0F7B800008C0A00200008014021
:1006F000014800F0E5BE0000A40B0020014800F016
:10070000DFBE0000E80B0020014800F0D9BE000069
:1007100068090020014800F0D3BE0000AC090020A9
:1007200030B590F840500124AC40C56B6C60046853
:1007300063604368102B036803D099600068C2604F
:1007400030BD9A600068C16030BD704770B51B4A0B
:100750001B4E1C4C90784FF40045012802D0507875
:10076000012814D000222946304601F0B3F80021B8
:10077000154802F0A1FA0421134802F09DFA08215D
:10078000114802F099FA207820F0010013E00021CE
:100790000D4802F041FA04210B4802F03DFA08210D
:1007A000094802F039FA01222946304601F092F850
:1007B000207840F00100207070BD00002C0C00205B
:1007C000000C014042040020D00A00201C4910B552
:1007D0000A784988120242EA11218A088178102990
:1007E00005D8C1F110018A4051428AB201E01039A6
:1007F000CA40144B828059780C0703D5C28021F07F
:1008000008015970C188511AB1F5004F01DDC1F5D9
:10081000803111F5004F01DA01F580318368194408
:100820008160B1F1807F02DDA1F1007104E0B1F1DE
:100830007F4F02DA01F100718160C28010BD0000BB
:10084000140000204204002010B504461948FFF7A8
:10085000BDFF184803F0FCFC16484FF6FF72818874
:10086000606E8142A1EB000000D21044E065A16EF1
:100870000844B0F5803F03DBA0F57F40FF3802E07D
:10088000002800DA1044217841434FF6FE70014001
:100890000948CA09216630F81220A4F87020802285
:1008A00002EBD111C1F3080130F81100A4F8720075
:1008B00010BD0000440400203A00002072B6FEE79C
:1008C00010B50446FFF7C0FF2046FFF78EFE204616
:1008D00003F084FA204603F03FF80749097802291B
:1008E00005D0204602F07BFC204603F0F7FB2046B3
:1008F000BDE8104003F0AEB92C0C00204FF4F871A5
:100900001020B1FBF0F07047F0B5214C217801299F
:1009100007D16178012904D11E4A918811B1491E7D
:100920009180F0BD517801263503C1B19580B0F8B2
:100930005C101389C91A09B201F58073B3F5007F01
:1009400001D980F8816013489378134A40891BB11C
:1009500032F910301944491022F81010F0BD0F4B35
:10096000416E4FF448779B8819444166D3885B1EDB
:100970001B041B0CD3809780F0D1E379D9404166EA
:10098000567000209070508110819580F0BD00005D
:100990002C0C002018000020B40600204404002085
:1009A000F8B500260446009690F82400012808D0E7
:1009B000012084F824002046FFF748FD070002D0FC
:1009C00053E00220F8BDA06A20F4885040F00200F5
:1009D000A062022001F04CF926490968B1FBF0F051
:1009E000400000E0401E00900028FBD12046FFF7A9
:1009F000BFFD2068816841F00801816000F070FF50
:100A0000054608E000F06CFF401B0A2803D9206867
:100A10008068000715D4206880680007F2D4206839
:100A2000816841F00401816000F05AFF054612E040
:100A300000F056FF401B0A280DD920688068400747
:100A400009D5A06A20F0020040F01000A06284F8EE
:100A500024600120F8BD206880684007E8D4A06ABF
:100A600020F0020040F00100A06284F824603846C3
:100A7000F8BD000000000020F8B50022009290F8B8
:100A8000245083681446012D1CD0012580F8245081
:100A9000D3B14D680B691F269D4226D81F055B1BED
:100AA000C3F103030D6803EB83039D40A7F5801793
:100AB0002F439E40036846F440169D6BB5432F4379
:100AC0009F631EE00220F8BD4B68012B05D0826AAF
:100AD00042F020028262012213E003689D6B0E68DF
:100AE0006FF3150545EAC6350AE05B1BC3F1030346
:100AF00003EB83039E40036846F440169D6BB543A9
:100B00009D6303689D68ED43ED0706D09D6847F23D
:100B10000106B5438E6935439D604B7D012B08D19D
:100B20008B69B3F5E04F08D0826A42F020028262FE
:100B300001220B7D012B06D00CE003685D6845F4B3
:100B400080655D60F5E74B7DA3B1826A42F02002CB
:100B5000826201220B68072605680A2B10D3EF6812
:100B60000A3B03EB43039E40B7438E689E403743E6
:100B7000EF600EE003685D6845F480555D60E9E76D
:100B80002F6903EB43039E40B7438E689E40374373
:100B90002F610B68102B01D0112B04D103689D68C5
:100BA00045F400059D604B68012B10D0022B16D038
:100BB000032B03681BD01D6ACE686FF30B0535430A
:100BC0001D620B68102B19D0112B17D037E003686A
:100BD0005D69CE686FF30B0535435D61F1E703682E
:100BE0009D69CE686FF30B0535439D61E9E7DD69CB
:100BF000CE686FF30B053543DD61E2E7124D036804
:100C0000AB4217D19D682D0219D49D6845F40005AB
:100C10009D600968102912D10C490D4B0968B1FB80
:100C2000F3F101EB8101490000E0491E0091002928
:100C3000FBD104E0816A41F020018162012280F849
:100C400024401046F8BD00000024014000000020B0
:100C500040420F0010B501210F4800F023F80F4C5F
:100C6000218D081AA08401210D4800F01BF8618D28
:100C7000081AE084FFF76AFD2046FFF721FE2046B0
:100C800003F0DAF92046FFF73FFE034800684168A9
:100C900041F08001416010BDB40800203006002002
:100CA000E40800200068022909D0032905D004299E
:100CB00001D0C06B7047806C7047406C7047006C0F
:100CC0007047000070B5044690F8240001280DD04C
:100CD000012084F824002046FFF74AFC01004FF071
:100CE000000205D084F82420084670BD022070BDA3
:100CF000A06A42F20103984340F48050A062194B6D
:100D00002068194D98421AD12E6816F4702F16D00B
:100D1000A66A46F48016A662A66AF60500D4E262C8
:100D200084F824206FF004020260206842685205B3
:100D3000DAD48268C2F30232072A04D009E0A66A34
:100D400026F48016E7E7984208D12A6812F4702F3B
:100D500004D0826842F400428260C5E7826842F4AF
:100D60000212F9E7002801400424014070B504464E
:100D700090F8240001280DD0012084F8240020469A
:100D8000FFF7F6FB01004FF0000205D084F82420A5
:100D9000084670BD022070BDA06A42F2010398436C
:100DA00040F48050A0621C4B20681C4D98421FD11B
:100DB0002E6816F4702F1BD0A66A46F48016A66221
:100DC000A66AF60500D4E26284F824206FF00402DB
:100DD00002602068426842F08002426020684268F7
:100DE0005205D5D48268C2F30232072A04D009E042
:100DF000A66A26F48016E2E7984208D12A6812F41F
:100E0000702F04D0826842F400428260C0E782689A
:100E100042F40212F9E700000028014004240140D6
:100E200070B58CB00E460446002530216846FFF7A9
:100E3000A4F994F82400012818D0012084F8240093
:100E40001148009020688168C943C90711D00099F2
:100E50008968C943C9070CD00C49884209D1416847
:100E6000326821F470211143416007E002200CB088
:100E700070BDA06A40F02000A0620125002084F827
:100E800024002846F3E70000002801400024014028
:100E90002DE9F0418CB0884604461646302168465C
:100EA000FFF76BF994F82400012814D0012084F88E
:100EB00024002E48009080680027C0F34240072895
:100EC0000BD0A06A40F02000A06284F824700120BA
:100ED0000CB0BDE8F0810220FAE72046FFF748FB9E
:100EE000050004D16846FFF743FB050003D084F8F2
:100EF00024702846ECE7A06A1D49084040F4807041
:100F0000A06220684068400505D5A06A20F4005022
:100F100040F48050A06284F82470E762216A15488A
:100F20008862216A1448C862216A144808632168EB
:100F30006FF0020008602068816841F48071816070
:100F40002168334642464C31206A00F093FB20680A
:100F50008168C1F342410729816803D041F48011BF
:100F60008160C6E741F4A001FAE7000000280140D3
:100F7000FEFDEFFFFD040008650500084B050008B5
:100F8000F8B50023009390F824201C46012A12D0C3
:100F9000012280F824204A681F26072A0DD20568FE
:100FA0006F6B521E02EB82029640B7430E6896406A
:100FB00037436F6319E00220F8BD05680D2A0AD295
:100FC0002F6BD21F02EB82029640B7430E68964009
:100FD00037432F6309E0EF6A0D3A02EB8202964035
:100FE000B7430E6896403743EF620A6807260568E4
:100FF0000A2A0AD3EF680A3A02EB42029640B74344
:101000008E6896403743EF6008E02F6902EB42029A
:101010009640B7438E68964037432F610A68102A7E
:1010200001D0112A20D1124D0268AA4217D1956829
:101030002D0219D4956845F40005956009681029BA
:1010400012D10C490C4A0968B1FBF2F101EB8101A4
:10105000490000E0491E00910029FBD104E0816AAB
:1010600041F020018162012380F824401846F8BD38
:10107000002401400000002040420F0070477047EC
:10108000704710B5044600684168890626D5016896
:10109000890723D5A16AC90603D4A16A41F4007166
:1010A000A1628168C1F34241072910D1217B71B946
:1010B000416821F020014160A06A20F48070A062A4
:1010C000A06AC00403D4A06A40F00100A0622046D8
:1010D000FFF7D4FF21686FF01200086020684168B4
:1010E00009062ED5016849072BD5A16AC90603D484
:1010F000A16A41F40051A1628168C1F3023107295C
:1011000009D04168490515D48168C1F342410729D6
:1011100010D1217B71B9416821F080014160A06A42
:1011200020F48050A062A06AC00503D4A06A40F0F9
:101130000100A0622046FFF78DFD21686FF00C00D2
:1011400008602068416849060DD50068C0070AD0CC
:10115000A06A40F48030A062204600F093F8216835
:101160006FF00100086010BD2DE9F0414FF000065E
:10117000040035467DD0A06A002728B9E76284F8CC
:101180002470204600F080F82046FFF75FF9A16A3E
:10119000C90600D420B1A06A40F01000A06268E047
:1011A000A16A21F4885141F00201A1626268E169FB
:1011B000237B0A4346EA43010A43A1684FF4807641
:1011C000B14208D0012906D0002194F814C0BCF126
:1011D000010F02D00AE03146F7E7F3B1A36A43F00A
:1011E0002003A362E36A43F00103E3622368D3F8B8
:1011F00004C02CF4694C4CEA010CC3F804C021680B
:101200008B68DFF874C003EA0C0313438B60A1689A
:10121000B1420BD0012909D00CE0DFF860C0A3690E
:101220000CEB43330B4343F40061DFE7218A0D05E8
:10123000A5F580152168CB6A23F470032B43CB629C
:10124000216889680E4B1940914208D1E762A16A72
:1012500021F0020141F00101A162BDE8F081A06A24
:1012600020F0020040F01000A062E06A40F00100AF
:10127000E0620120F1E70000FDF7E1FF00E0FFFF81
:10128000FE0E1FFF7047000010B586B000210091D0
:101290000191029103911E4C02681E4903231E48CE
:1012A000A24213D18A6942F400728A618A6902F407
:1012B000007204928A6942F008028A61896901F029
:1012C000080104910121CDE9001314E0134CA2425E
:1012D0001CD18A6942F480628A618A6902F4806260
:1012E00004928A6942F008028A618969009301F0D8
:1012F000080101930491694600F006FA00220121D9
:10130000122000F083FC122000F072FC06B010BD29
:101310000024014000100240000C01400028014060
:1013200070B5044690F8240001280DD0012084F8FF
:1013300024002046FFF71CF901004FF0000205D001
:1013400084F82420084670BD022070BDA06A40F2D7
:101350000123984340F48070A0621F4D20681F4B0A
:10136000A84218D11E6816F4702F14D0A66A46F44D
:101370008016A6621E68760505D5A66A26F4005674
:1013800046F48056A662A66AF6040AD5E66A26F0F6
:101390000606E66206E0A66A26F48016A66246689D
:1013A000E9E7E26284F824206FF00202026020681C
:1013B0008268C2F34242072A05D1A84208D11A68BE
:1013C00012F4702F04D0826842F480128260B9E770
:1013D000826842F4A002F9E7002801400424014099
:1013E00010B590F821100022022905D00421816354
:1013F00080F82020012010BD01680B6823F00E0347
:101400000B6001680B6823F001030B6090F840301B
:10141000012404FA03F1C36B596080F8214080F87D
:101420002020104610BD000010B590F821100024B7
:10143000022903D00421816301243DE001680A6888
:1014400022F00E020A6001680A6822F001020A60B6
:101450001A4A0168914201D1012121E0174A143250
:10146000914201D110211BE0144A2832914201D14E
:10147000891515E0114A3C32914201D189140FE0DF
:101480000E4A5032914202D14FF4803108E00B4AAB
:101490006432914202D14FF4801101E04FF080712B
:1014A000064A083A5160012180F82110002180F895
:1014B0002010416B01B18847204610BD0800024052
:1014C0002DE9F05FC16B0B6801680A68046C4FF08E
:1014D000040C0CFA04FC4A4DDFF828A14A4E4B4F8D
:1014E000DFF82CB1DFF82CE11CEA030F2DD05FEA06
:1014F000427C2AD50A68920603D40A6822F00402C4
:101500000A600168A94201D1042119E0514501D1C5
:10151000402115E0B14202D14FF4806110E0B942A0
:1015200002D14FF480410BE0594502D14FF48021A4
:1015300006E0714502D14FF4800101E04FF0806177
:101540002F4A083A5160C16A3BE04FF0020808FA9E
:1015500004F818EA030F4FF000094FF0010C35D0E2
:101560005FEA827832D50A68920605D40A6822F0CA
:101570000A020A6080F821C00168A94201D1022153
:1015800019E0514501D1202115E0B14202D14FF4BB
:10159000007110E0B94202D14FF400510BE05945FF
:1015A00002D14FF4003106E0714502D14FF4001131
:1015B00001E04FF00071124A083A516080F8209023
:1015C000816A00291AD0BDE8F05F08470825A540C8
:1015D0001D4213D0120711D50A6822F00E020A60CC
:1015E00090F84010C26B0CFA01F15160C0F838C09D
:1015F00080F821C080F82090016BE2E7BDE8F09F01
:10160000080002401C00024030000240440002403A
:10161000580002406C00024030B528B302C8134A9B
:1016200014230A44B2FBF3F29200C263104A8263AD
:10163000022242770B6843F6F0729343D0E900240C
:101640002243D0E902452C432243046922434469E2
:101650002243846922431A430A6000214163012224
:1016600042770177084630BD012030BDF8FFFDBF4D
:101670000000024070B5044690F8200000250128C3
:101680000CD0012084F8200094F821600020012E65
:1016900006D084F820000225284670BD022070BDC7
:1016A000022684F82160A0632068066826F00106FF
:1016B00006602046FFF734F8E06A002820680168D9
:1016C00002D041F00E0106E021F004010160206823
:1016D000016841F00A0101602068016841F00101E0
:1016E0000160D9E770B5044600F0FAF80546601CC1
:1016F00002D004480078044400F0F2F8401BA042F5
:10170000FAD370BD040000202DE9F84FDFF8A49152
:10171000002409F1040A0AF1040B23464FF00F08D4
:101720000BF1040EBEE00127A7403A40BA4272D145
:10173000DFF884C14D68A5EB0C0665452BD00DDCA8
:10174000032D34D005DC35B3012D19D0022D2FD156
:101750001BE0112D16D0122D2AD119E0B6F5881FE5
:1017600019D006DCB6F5803F15D0B6F5801F1FD125
:1017700011E0B6F5001F0ED0B6F5041F18D10AE02F
:10178000CB6815E0CB681B1D12E0CB6808330FE077
:10179000CB680C330CE08B682BB1012B4FF00803A6
:1017A00003D0476104E0042302E0076100E0002366
:1017B000FF2A01D8064601E000F104064FEA84053D
:1017C00001D9A5F12005376808FA05FC27EA0C07BE
:1017D00003FA05F547EA050737604D68ED0060D567
:1017E000364DAE6946F00106AE61AD6924F00306E0
:1017F00005F001050095324D7719BE68A5072D0F3C
:1018000008FA05FC26EA0C06DFF8B8C0604503D1EB
:101810004FF0000C17E044E0DFF8ACC0604502D1A7
:101820004FF0010C0FE0DFF8A4C0604502D14FF08B
:10183000020C08E0DFF898C0604502D14FF0030CBD
:1018400001E04FF0040C0CFA05FC4CEA060CC7F85A
:1018500008C04D68D9F80060ED034D4601D5164328
:1018600000E096432E604D68DAF80060AD035546FF
:1018700001D5164300E096432E604D68DBF800600A
:10188000ED025D4601D5164300E096432E604D689B
:10189000DEF80060AD02754601D5164300E09643C0
:1018A0002E60641C0A6832FA04F57FF43CAFBDE890
:1018B000F88F0000000401400000111000100240E9
:1018C0000000014000080140000C014000100140F0
:1018D000001401400AB1016170470904FBE70000F0
:1018E00001488068704700000400002070B50400C3
:1018F00025D094F83D00002520B984F83C502046BE
:1019000000F0B8F8242084F83D002068016821F038
:10191000010101602068016841F400410160206814
:10192000016821F40041016000F014FB4D4B616837
:10193000994201D84C4900E04C49884201D201202B
:1019400070BD4B492268B0FBF1F1566826F03F06A6
:101950000E43566062689A4206D94FF4967251431C
:101960004FF47A72B1FBF2F12268491C166A26F034
:101970003F06314311626168994210D84900401E08
:10198000B0FBF1F2521CC2F30B02042A01D2042074
:1019900022E0B0FBF1F0401CC0F30B001CE0A26899
:1019A000F2B301EBC10303EB0116431EB3FBF6F3E5
:1019B0005B1C43F480431B0549D092B301EBC10289
:1019C00002EB0111401EB0FBF1F0401CC0F30B0014
:1019D00040F4804040F400402168CA694CF6FF732F
:1019E0009A431043C861D4E9071001432068026894
:1019F00022F0C00211430160D4E9030101432068D1
:101A0000826848F2FF339A4311438160D4E905109C
:101A100001432068C26822F0FF021143C16001E067
:101A20000EE016E02068016841F0010101602564C4
:101A3000202084F83D00256384F83E50002070BDCE
:101A400001EB4106431EB3FBF6F35B1CB3E7012039
:101A5000C2E701EB4101401EB0FBF1F0401CC0F3B6
:101A60000B00B7E7A086010080841E0000093D003E
:101A700040420F00F0B585B0002504460095019561
:101A8000029503950068284988424AD1274EB069DB
:101A900040F00800B061B069694600F008000490A9
:101AA0004FF44070009012200190032003902048D2
:101AB000FFF72AFE1F49486840F0E06040F002004E
:101AC0004860F06940F40010F061F0691B4E00F4CA
:101AD000001004901848802701C61020A1C617489E
:101AE00046F810597561B561F561FFF795FD08B1CC
:101AF000FEF7E4FE66637462104E0F4844361430FD
:101B0000C6E90005C6E90257356180147561C6E96A
:101B100006503046FFF780FD08B1FEF7CFFEA66302
:101B2000746205B0F0BD0000005400400010024097
:101B3000000C0140000001406C00024068090020D8
:101B400002488168027811448160704704000020D7
:101B5000074810B5016841F010010160032000F052
:101B600075F8002000F006F800F024F8002010BD01
:101B70000020024070B50D4D04464FF47A7128786C
:101B8000B1FBF0F00A490968B1FBF0F000F01EFD6E
:101B900048B9102C07D200222146501E00F036F81A
:101BA00000206C6070BD012070BD000004000020AA
:101BB000000000200C4808B5816941F001018161F5
:101BC000816901F001010091C16941F08051C16159
:101BD000C069064900F080500090486820F0E0603D
:101BE00040F00070486008BD001002400000014055
:101BF000002809DB00F01F0201219140400980000C
:101C000000F1E020C0F8001170470000F0B40E4B66
:101C10001B68C3F30223C3F10704042C00D9042476
:101C20001D1D072D01D2002300E0DB1E012606FA50
:101C300004F56D1E0D409D409E40761E164045EAFF
:101C40000601F0BC02F033BE0CED00E0064A00F0E5
:101C5000070110684FF6FF03184040EA01200349CE
:101C600008431060704700000CED00E00000FA052A
:101C700010B5014627A086B01DC88DE81D0029A01B
:101C8000294C006804900020012922D0022939D073
:101C900010291CD161682268D20118D5C1F3834292
:101CA000C9031DF8020009D5616804AAC1F34041C7
:101CB000515C1E4AB2FBF1F1484301E01C49484324
:101CC0006168490203D440000321B0FBF1F006B083
:101CD00010BD216AC1F30122012A03D1890701D570
:101CE000D003F4E7022A05D1616A890702D549F6D3
:101CF0004040ECE7032AEAD121688903E7D54FF297
:101D00002440E4E700F036F96168C1F38131491CF1
:101D10004900DAE702030405060708090A0B0C0D5F
:101D20000E0F1010010200000010024000127A0095
:101D300000093D002DE9F84304460078344FC00700
:101D400052D0F8690025C00008D4F86940F08050EE
:101D5000F861F869012500F0805000902D48016875
:101D6000C90511D40168804641F480710160FFF714
:101D7000B7FD064604E0FFF7B3FD801B642822D8B8
:101D8000D8F80000C005F6D5386A10F4407020D0AD
:101D9000A18801F4407181421BD0386A1E4901229A
:101DA00020F440700A6000220A603862C00710D038
:101DB000FFF796FD064641F2883807E0FFF790FDF1
:101DC000811B414502D90320BDE8F883386A8007AA
:101DD000F4D5386A616820F44070084338621DB158
:101DE000F86920F08050F8612078800705D5786880
:101DF000A16820F44040084378602078C00605D5EB
:101E00007868E16820F48000084378600020DBE710
:101E10000010024000700040400442422DE9F047AB
:101E20000D46040067D0DFF81881D8F8000000F0F4
:101E30000700A8420CD2D8F8001021F0070129436E
:101E4000C8F80010D8F8000000F00700A84252D1EE
:101E500020683C4E810712D5400703D5706840F4D6
:101E6000E06070602078000703D5706840F460502F
:101E700070607068A16820F0F000084370602078FE
:101E8000C00727D06068012810D03168022810D020
:101E9000890700292FDA716821F00301014371607D
:101EA000FFF71EFD074641F288390CE031688903CF
:101EB000EFE78901EDE7FFF713FDC11B494502D9A3
:101EC0000320BDE8F0877068616800F00C00B0EB9B
:101ED000810FF0D1D8F80010404601F00701A94267
:101EE0000BD9016821F0070129430160006800F067
:101EF0000700A84201D00120E3E72078400705D57C
:101F00007068E16820F4E0600843706020780007A2
:101F100006D57068216920F4605040EAC100706005
:101F200000F038F87168084AC1F30311515CC840E9
:101F30000649086006480068FFF71CFE0020C0E75D
:101F40000020024000100240C849000800000020A4
:101F5000080000200448054900684968044AC1F3A4
:101F60000221515CC8407047000000200010024070
:101F7000D84900080448054900684968044AC1F383
:101F8000C221515CC8407047000000200010024090
:101F9000D849000812A085B00FC88DE80F0014A022
:101FA000144B006804905968134801F00C02042A8D
:101FB00010D0082A0ED1C1F38342C9031DF80200D4
:101FC0000AD5596804AAC1F34041515C0A4A5043FA
:101FD000B0FBF1F005B0704708494843FAE700004C
:101FE00002030405060708090A0B0C0D0E0F10105A
:101FF000010200000010024000127A0000093D00BA
:102000002DE9F84F04006FD02078BE4DC00747D0AF
:102010006868C0F38100012807D06868C0F38100B8
:10202000022809D16868C00306D52868800337D51F
:1020300060680028E7D033E06068B0F5803F0BD0DF
:1020400010B1B0F5A02F11D0286820F4803028609E
:10205000286820F4802002E0286840F4803028605E
:10206000606888B1FFF73CFC064609E0286840F448
:1020700080202860F0E7FFF733FC801B642873D8CA
:1020800028688003F7D50BE0FFF72AFC064604E03A
:10209000FFF726FC801B6428F1D828688003F7D45A
:1020A0002078DFF8648280074FF0010A4FF00009C2
:1020B00039D5686810F00C0F07D06868C0F381004C
:1020C000022809D16868C00306D42868800714D59F
:1020D0002069012808D110E02069B0B1C8F800A03B
:1020E000FFF7FEFB064605E007E1FFF7F9FB801B63
:1020F0000228C4D828688007F7D52868616920F0CD
:10210000F80040EAC10028600DE0C8F80090FFF731
:10211000E7FB064604E0FFF7E3FB801B022823D819
:1021200028688007F7D4207800072CD57748A16964
:10213000D9B1C0F800A0FFF7D3FB064604E0FFF7D3
:10214000CFFB801B02280FD8686A8007F7D570483C
:102150004FF4FA510068B0FBF1F0009000BF009816
:10216000411E0091FAD20EE07CE0C0F80090FFF72B
:10217000B7FB064604E0FFF7B3FB801B022871D8CB
:10218000686A8007F7D4207840075BD5E8690027A4
:10219000C00008D4E86940F08050E861E869012790
:1021A00000F0805000905B480168C90511D40168B7
:1021B000834641F480710160FFF792FB064604E01C
:1021C000FFF78EFB801B64284CD8DBF80000C005AD
:1021D000F6D5E06801280AD008B1052813D0286A8E
:1021E00020F001002862286A20F0040002E0286A3A
:1021F00040F001002862E06841F2883B88B1FFF7B7
:102200006FFB064609E0286A40F004002862EEE70A
:10221000FFF766FB811B59455BD8286A8007F7D515
:102220000BE0FFF75DFB064604E0FFF759FB811B5F
:1022300059454ED8286A8007F7D41FB1E86920F0C5
:102240008050E861E069A8B36968C1F3810102299F
:1022500046D00228484606D0C8F86000FFF740FB89
:10226000044639E035E04746C8F86000FFF738FB20
:10227000064604E0FFF734FB801B022829D82868B3
:102280008001F7D4206AB0F5803F05D16868A16865
:1022900020F4003008436860D4E908010843696805
:1022A00021F4741108436860C7F860A0FFF718FBB9
:1022B000044605E023E0FFF713FB001B022808D8C3
:1022C00028688001F7D51AE0FFF70AFB001B0228F7
:1022D00002D90320BDE8F88F28688001F4D40EE00D
:1022E0000128F7D06868226A00F48031914204D155
:1022F000616A00F47010884201D00120EAE70020F2
:10230000E8E7000000100240000042428004424220
:102310000000002000700040704770B5040009D034
:10232000606A002540B125616561A56294F851009D
:1023300040B10CE0012070BD6068B0F5827FF4D040
:10234000E561F2E784F85050204600F03FF80220A3
:1023500084F851002068016821F040010160A088E4
:10236000218900F4827001F404410843A18901F439
:1023700000610843217C01F002010843217D01F046
:1023800001010843218B01F400710843217F01F012
:102390003801084394F8201001F080010843218D92
:1023A00001F40051084321680860A069042101EA92
:1023B0001040216848602068C16921F40061C16152
:1023C0006565012084F85100002070BD2DE9F047BB
:1023D00086B0002504460095019502950395006896
:1023E0002A4988424ED12A48816941F4805181614D
:1023F000816901F480510491816941F00401816196
:102400008069244E00F004000490A0200090022077
:1024100001900320039069463046FFF775F940208C
:10242000CDE90005694630460295FFF76DF91B4E70
:1024300019484FF08008E6E802054FF480794FF420
:10244000806AA6E820074FF4405766E8065713480D
:10245000FFF7E2F808B1FEF731FAE66474620F4E56
:102460000D484436143001C61020A6E821070B4859
:1024700066E806574430FFF7CFF808B1FEF71EFABA
:10248000A664746206B0BDE8F08700000030014029
:1024900000100240000801401C000240480A0020D1
:1024A000704770472DE9F041044690F85000002530
:1024B00001280DD0012684F8506094F851000027BF
:1024C000D4F804C001280FD0BCF5827F0AD102E005
:1024D0000220BDE8F081D4F808C0BCF1000F01D1A2
:1024E000042801D0022560E049B342B33BB394F81D
:1024F0005100042802D0052084F85100676521634B
:10250000A386E386A263A387E3872764676494F8BE
:102510005100042815D0E16C2648C8622648E16CB9
:102520008862E16C25480863E06C4763E38F2168AB
:10253000A26B0C31E06CFFF79DF8E0B906E00125D5
:1025400033E0E16C1E48C8621E48E8E72068416835
:1025500041F001014160A06CC762A06C8762A06C71
:102560000763A06C4763E38E2268216B0C32A06C7A
:10257000FFF780F838B1606D40F01000606501250C
:1025800084F8516011E020680168490603D40168AD
:1025900041F0400101602068416841F02001416044
:1025A0002068416841F00201416084F8507028467B
:1025B0008FE70000353E0008A93E0008093E0008EC
:1025C0002B3E00083F3E00087047704710B5401E84
:1025D000B0F1807F01D3012010BD4FF0E024606195
:1025E0000F21601702F063F90020A061072020612D
:1025F000002010BD7047704710B590F83C20012AAC
:1026000022D0012280F83C20CA688C6822F44072F3
:1026100022434C6822F4806222430C6822F4006258
:1026200022430C6922F4805222434C6922F4005266
:102630002243C969002322F480420A4301684A64A4
:1026400080F83C30002010BD022010BD70B590F81D
:102650003C20012A26D0012580F83C50022280F837
:102660003D2002685368946823F070060B6833437A
:1026700053600D4B02689A4208D0B2F1804F05D0EA
:102680000A4B9A4202D00A4B9A4204D1496824F07C
:1026900080031943916080F83D50002180F83C1080
:1026A000084670BD022070BD002C014000040040AF
:1026B0000008004010B5040003D094F83D0010B1AC
:1026C00007E0012010BD002084F83C00204600F007
:1026D0001FF8022084F83D00211D206801F016FE3D
:1026E000012084F8460084F83E0084F83F0084F816
:1026F000400084F8410084F8420084F8430084F8E4
:10270000440084F8450084F83D00002010BD00001E
:1027100008B50068104A1149904208D1886940F410
:1027200000608861886900F40060009008BDB0F125
:10273000804FFBD1C86940F00100C861C869002220
:1027400000F0010000900D211C20FFF75FFABDE8AA
:1027500008401C20FFF74CBA002C0140001002403A
:1027600090F83D10012901D001207047022180F826
:102770003D100168CA6842F00102CA6000680B4956
:10278000884208D0B0F1804F05D00949884202D074
:102790000849884204D1816801F00701062903D065
:1027A000016841F00101016000207047002C0140E8
:1027B000000400400008004070B5044690F83C005A
:1027C000012817D0012584F83C50022084F83D00F0
:1027D0002068826822F0770222F47F4282600868D3
:1027E000502830D00DDC20284DD005DC98B31028BF
:1027F0003BD148E0022070BD302844D0402834D17D
:1028000039E0602828D0702806D0B0F5805F2CD041
:10281000B0F5005F29D10AE0CB68D1E90121206839
:1028200001F0B7FD2068816841F0770109E0CB68CD
:10283000D1E90121206801F0ACFD2068816841F4F4
:102840008041816011E0CA684968206801F05CFE3F
:102850005021206807E016E0CA684968206801F046
:1028600064FE6021206801F09EFD84F83D50002048
:1028700084F83C0070BDCA684968206801F044FED5
:1028800040212068EFE7226801461046EBE77047D9
:1028900070B50446006801694FF00005C943890717
:1028A00015D4C168C943890711D4E91E016101200B
:1028B0002077206880698007204602D0FFF7E7FF75
:1028C00004E000F0E7F8204600F0A4F9257720683E
:1028D0000169C943490717D4C168C943490713D4DB
:1028E0006FF004010161022020772068806910F4F4
:1028F000407F204602D0FFF7CAFF04E000F0CAF88C
:10290000204600F087F9257720680169C943090747
:1029100016D4C168C943090712D46FF008010161D8
:10292000042020772068C0698007204602D0FFF786
:10293000AEFF04E000F0AEF8204600F06BF925771A
:1029400020680169C943C90617D4C168C943C906CB
:1029500013D46FF010010161082020772068C0694E
:1029600010F4407F204602D0FFF791FF04E000F012
:1029700091F8204600F04EF9257720680169C94397
:10298000C90708D1C168C943C90704D1891E0161BB
:10299000204600F0C9F920680169C943090609D435
:1029A000C168C943090605D46FF080010161204662
:1029B000FFF720FE20680169C943490609D4C168B0
:1029C000C943490605D46FF040010161204600F07B
:1029D000B3F920680169C94389060BD4C168C943AA
:1029E000890607D46FF0200101612046BDE87040E0
:1029F000FFF701BE70BD000000B585B00021009159
:102A000001910291039100680C49884213D10C484E
:102A1000816941F0040181618069694600F0040028
:102A200004904FF4E0600090022001900320039096
:102A30000448FEF769FE05B000BD0000002C01400F
:102A4000001002400008014010B5044690F83C0018
:102A500001280AD0012084F83C0042B1042A0AD09F
:102A6000082A0CD00C2A11D10DE0022010BD2068DC
:102A700001F0A2FC0AE0206801F0CAFC06E0206830
:102A800001F0F4FC02E0206801F01CFD002084F855
:102A90003C0010BD704710B5040003D094F83D0011
:102AA00010B107E0012010BD002084F83C00204652
:102AB00000F01EF8022084F83D00211D206801F07E
:102AC00025FC012084F8460084F83E0084F83F008D
:102AD00084F8400084F8410084F8420084F8430000
:102AE00084F8440084F8450084F83D00002010BDBF
:102AF000704770B5044690F83C000D4601280AD096
:102B0000012084F83C0042B1042A18D0082A2AD0B7
:102B10000C2A4DD139E0022070BD206801F04CFC38
:102B20002068816941F0080181612068816921F094
:102B300004018161206881692A69114311E02068DC
:102B400001F066FC2068816941F4006181612068C0
:102B5000816921F480618161206881692A6941EA83
:102B60000221816124E0206801F080FC2068C169B5
:102B700041F00801C1612068C16921F00401C1610F
:102B80002068C1692A69114311E0206801F09AFCAC
:102B90002068C16941F40061C1612068C16921F404
:102BA0008061C1612068C1692A6941EA0221C1616D
:102BB000002084F83C0070BD10B5040003D094F8E8
:102BC0003D0010B107E0012010BD002084F83C005A
:102BD000204600F01EF8022084F83D00211D2068E8
:102BE00001F094FB012084F8460084F83E0084F84C
:102BF0003F0084F8400084F8410084F8420084F8E3
:102C0000430084F8440084F8450084F83D00002027
:102C100010BD70477047000010B5044649B1042943
:102C20000AD008290BD094F8410001280AD00120CD
:102C300010BD94F83E00F8E794F83F00F5E794F8EB
:102C40004000F2E7022041B3042929D008292AD004
:102C500084F841000122206801F08EFB13492068AE
:102C6000884203D1426C42F40042426420688842A8
:102C700008D0B0F1804F05D00D49884202D00D49EF
:102C8000884204D1816801F00701062903D0016858
:102C900041F001010160002010BD84F83E00D9E739
:102CA00084F83F00D6E784F84000D3E7002C0140C9
:102CB000000400400008004030B504460D4600689E
:102CC000002201F059FB174A41F2111120688B10C4
:102CD000904209D1026A0A4206D1026A1A4203D11D
:102CE000426C22F4004242642068026A0A4206D121
:102CF000016A194203D1016821F00101016001203C
:102D00003DB1042D08D0082D09D084F841000020E1
:102D100030BD84F83E00FAE784F83F00F7E784F816
:102D20004000F4E7002C01400249884201D100F044
:102D30004FBA7047180B00207047704710B5044613
:102D40000068416994F83D20C1F3C011212A0BD1DC
:102D500051B1416921F080014161606B08B1FEF71A
:102D60003FFB204601F08EFC2068416994F83E202C
:102D7000C1F38011222A0BD151B1416921F04001E8
:102D80004161A06B08B1FEF72BFB204601F062FC0D
:102D9000002010BD70470000F8B5026804461068B6
:102DA000D168536910F00F0F4FF0000553D003F0B6
:102DB000010601F4907737435FD0C20705D0CA05FA
:102DC00003D5226C42F001022264420705D5DA07DE
:102DD00003D0226C42F002022264820705D5DA0792
:102DE00003D0226C42F004022264020707D501F0EE
:102DF0002002324303D0226C42F008022264226C8B
:102E0000002A34D0800604D5880602D5204601F079
:102E100042FC20684069216CC0F38010090700D48F
:102E200030B3204601F016FC2068416949061BD5E5
:102E3000416921F040014161A06BA8B1584941634B
:102E4000A06BFEF7F1FA002811D0A06B416B01B026
:102E5000BDE8F040084783060FD58B060DD5204608
:102E6000BDE8F84001F017BC2046FFF793FFF8BD1E
:102E70002046FFF78FFF2564F8BD266B2023012E27
:102E800052D1C60650D5CE064ED510685068009077
:102E9000506940062AD5A16B086840680004000C00
:102EA000EAD0A68D8642E7D9E0858869202818D027
:102EB000D06820F48070D0602068416921F0010161
:102EC00041612068416921F04001416184F83E3050
:102ED00025632068C16821F01001C160A06BFEF776
:102EE0007FFAA08DE18D401A81B219E0A08DE18DAD
:102EF000401A81B2E08D0028BED00029BCD0D06835
:102F000020F49070D0602068426922F00102426192
:102F100084F83E3025632068C26822F01002C26047
:102F20002046FFF70AFFF8BD05062BD50D0629D56B
:102F300094F83D002128F6D1A068B0F5805F01D15A
:102F40002069B0B1206A411C216221680078486084
:102F5000E08C401E0004000CE084E4D12068C168CD
:102F600021F08001C1602068C16841F04001C1606A
:102F7000F8BD206A0088C0F308005060206A801CF9
:102F80002062E5E74006F3D54806F1D5D168204632
:102F900021F04001D16084F83D3000F001F9F8BD26
:102FA0004F45000870B5040004D094F83D0000259A
:102FB00010B106E0012070BD84F83C50204600F0BE
:102FC00023F8242084F83D002068C16821F40051D2
:102FD000C160204601F0BAFB2068016921F49041EC
:102FE00001612068416921F02A0141612068C168BE
:102FF00041F40051C1602564202084F83D0084F82C
:103000003E00002070BD0000F0B585B000250446EC
:10301000009501950295039500682F49884259D182
:103020002E48816941F480418161816901F48041C8
:103030000491816941F0080181618069284E00F0A6
:10304000080004904020009002200190032003908B
:1030500069463046FEF758FB8027CDE90075694682
:1030600030460295FEF750FB1E49486840F0E0608C
:1030700040F0040048601D4E1B4801C61020A1C648
:103080001A4846F810597561B561F561FEF7C4FA42
:1030900008B1FDF713FC66637462144E124844369F
:1030A0001430C6E90005C6E9025735618014756120
:1030B000C6E906503046FEF7AFFA08B1FDF7FEFB51
:1030C000A66300220C2125207462FEF79FFD2520B7
:1030D000FEF78EFD05B0F0BD003801400010024043
:1030E000000C01400000014044000240A40B0020FD
:1030F00090F83E30202B0ED159B152B190F83C30AF
:10310000012B08D0012380F83C300023036301F039
:1031100079BB01207047022070477047704700005C
:10312000F7B5044690F83D00202831D1019969B3E4
:1031300062B394F83C0001282AD0012084F83C00B6
:103140002162A284E28400252564212084F83D00C8
:10315000636B10489862636B0F48D862636B0F48CB
:103160001863606B134645632668606B321DFEF77B
:1031700081FA21686FF04000086084F83C502068B4
:10318000416941F0800141610020FEBD0120FEBD8A
:103190000220FEBD1D4600084B4600085F450008A2
:1031A00070477047FEE7000007480B2101220170BD
:1031B0000C21017405490A700E228A7000224A709F
:1031C00040F6C901418070473006002044040020C9
:1031D00010B501F015F8BDE8104000F009BD30B59C
:1031E000B0F972404169B0F9703001FB04F58269B1
:1031F000594302FB135502FB04112D130913C0E9B7
:10320000075130BD70B58CB000241C2168460A946B
:10321000FCF7B3FF1F480794089409941C49846085
:10322000016004730475012505614FF46021446059
:10323000C161FDF799FF08B1FDF740FB4FF4A020F5
:103240000A900AA91348FDF7EBFD08B1FDF736FB1C
:103250000826CDE90065700206908DF815400495AA
:1032600002958DF8144069460A480394FDF704FC62
:1032700008B1FDF723FBCDE9085407A905480796D7
:10328000FDF77EFE002801D0FDF718FB0CB070BDE5
:1032900000240140B408002070B58AB01C216846A3
:1032A000FCF76BFF00241A48079408940994174907
:1032B0008460016004730475012505614FF4602189
:1032C0004460C161FDF750FF08B1FDF7F7FA092628
:1032D000CDE900658DF81540049502958DF81440F0
:1032E00069460B480394FDF7C7FB08B1FDF7E6FA02
:1032F000CDE9085407A906480796FDF741FE0028C6
:1033000001D0FDF7DBFA0AB070BD000000280140D3
:10331000E40800201D4808B5416941F00101416100
:103320004069002200F00100009011460C20FEF7D9
:103330006DFC0C20FEF75CFC002211460D20FEF710
:1033400065FC0D20FEF754FC00220B210E20FEF739
:103350005DFC0E20FEF74CFC00220B210F20FEF737
:1033600055FC0F20FEF744FC00220B211020FEF735
:103370004DFC1020FEF73CFC00220B211120FEF733
:1033800045FCBDE808401120FEF732BC00100240A9
:103390002DE9F04186B000253A4800950195029547
:1033A0000395816941F020018161816901F020016B
:1033B0000491816941F004018161816901F0040196
:1033C0000491816941F00801816180692E4F00F00C
:1033D00008000490002241F20A013846FEF77AFA0A
:1033E000012210213846FEF775FADFF8A08000228E
:1033F0004FF470414046FEF76DFA0A2001248DE833
:1034000031000320039069463846FEF77DF948F203
:103410000400CDE90005694638460295FEF774F9C7
:103420001020CDE900040294694638460394FEF763
:103430006BF94FF4E040CDE900040226CDE90246E5
:1034400069464046FEF760F9E003CDE900040294C6
:10345000694640460394FEF757F92003CDE900047E
:10346000CDE9024669463846FEF74EF93820CDE9E7
:103470000005694640460295FEF746F906B0BDE8EC
:10348000F08100000010024000080140000C0140E3
:103490000D4810B50B4901600C49416000214FF403
:1034A00080428160C0E9031241618161C1610162B2
:1034B000FEF71CFA002803D0BDE81040FDF7FEB966
:1034C00010BD00000054004014090020801A0600BE
:1034D000114810B50F4901604FF48271416000211D
:1034E0004FF40062C0E9021202220261012242612D
:1034F000520282611022C0E90721416281620A21E1
:10350000C162FEF70AFF002803D0BDE81040FDF7B6
:10351000D5B910BD00300140F009002010B596B0BB
:1035200000240F9410941194129413941C21684653
:103530001494FCF722FE202107A8FCF71EFE374852
:103540003549C0E900142021816040F6C901C0E975
:1035500003148021C0E90541FFF7ACF808B1FDF77D
:10356000ADF94FF480500F900FA92C48FFF724F9C4
:1035700008B1FDF7A3F92948FFF71EFB08B1FDF7D5
:103580009DF9139413A925481494FFF75FF808B127
:10359000FDF794F96020CDE90004029403940494AB
:1035A0000594002269461D480694FFF7A2FA08B167
:1035B000FDF784F9042269461848FFF79AFA08B122
:1035C000FDF77CF9082269461448FFF792FA08B122
:1035D000FDF774F97020009040F6AC0001900C22C9
:1035E00069460E48FFF785FA08B1FDF767F90794B9
:1035F000089409944FF400500A94CDE90B4007A9B0
:1036000006480E94FEF7F8FF08B1FDF757F9034896
:10361000FFF7F2F916B010BD002C0140D00A0020CF
:1036200010B58EB000240794089409940A940B9462
:103630001C2168460C94FCF7A0FD1D484FF080410A
:1036400001604721C0E9011440F2E731C0E90314E9
:1036500080218161FFF72EF808B1FDF72FF94FF4B3
:103660008050079007A91248FFF7A6F808B1FDF7A8
:1036700025F90F48FFF70FFA08B1FDF71FF90B9472
:103680000BA90B480C94FEF7E1FF08B1FDF716F902
:103690000094019402940022694605480494FFF7BF
:1036A000D3F9002801D0FDF709F90EB010BD0000D4
:1036B000180B00200C4810B50A4901604FF4E131A5
:1036C0004160002181600C22C160C0E90412816167
:1036D000C161FFF767FC002803D0BDE81040FDF78B
:1036E000EDB810BD00380140600B0020FEE700007F
:1036F00070B5094DFF231A4605F5807605E010F8F0
:10370000014B54402A5D5A40335D491E89B2F6D2BE
:1037100043EA022070BD0000E04900082DE9F05F97
:103720000E4605469946144650218748FCF725FD6C
:10373000B01E81B22846FFF7DBFF834FA919834BE8
:10374000A7F8460031F8021C49BAA7F8441088428D
:103750002AD128783870012826D16E787E70688842
:103760007B4942BA7A8000204FF0010ADFF8E481F9
:1037700009880FE008EB001CBCF800C0944502D19A
:1037800087F84E0008E0884202D187F84AA00FE08F
:10379000401CC0B28842EDD9032E0CD04FF0080B6C
:1037A000062E5AD0102E7DD0187840F008001870E0
:1037B0000020BDE8F09FA88842BABA805000B871D6
:1037C00097F84E001044884202D9401A101A82B26B
:1037D00000201EE097F84E10014408EB0111D1E9DA
:1037E00000311B0E022B02D0012B0BD00FE00B88F7
:1037F00007EB40010B814B7A81F830300B7A81F86E
:10380000313004E007EB4003097883F83110401CA5
:10381000C0B29042DED33878207078786070B87982
:10382000A0704949BA793031E01CFCF78DFCB979B8
:103830002046C91CFFF75CFFA7F84800BA79E01CD6
:1038400097F849101154B979241D97F84800085584
:10385000B879401DA9F8000073E097F84E0008EB16
:103860000010D0E90021A888120E40BAA7F84C0039
:10387000012A02D0022A04D004E0FF2885D808706B
:1038800000E0088038782070787860707888000AC6
:10389000A070B878E070B7F84C00000A207197F873
:1038A0004C0000E00CE0607106212046FFF720FF8D
:1038B000A7F8480097F84900A07197F848003DE044
:1038C000A88846BABE80AA79BA7197F84E003044EB
:1038D000884202D9401A301A86B21B487200E91D8C
:1038E0001C30FCF731FC00203D460CE095F84E10F2
:1038F00005EB4002014408EB0111928B496852BA72
:10390000401C0A80C0B2B042F0D32878207068789A
:10391000607068880621000AA070A878E070A88806
:10392000000A2071287960712046FFF7E1FEA5F8B2
:10393000480095F84900A07195F84800E071A9F891
:1039400000B0012035E7000098040020400400206A
:1039500038000020E04B00082DE9F05F6F4D704EFD
:1039600004462A783078DFF8BCB1DFF8BCA16F4993
:103970004FF0000982420BD06A78012A12D06C4ABB
:10398000CBF82090C2F82090CAF82090C1F820907F
:103990002878684F072828D2DFE800F0B306627065
:1039A000908376002870F3E7A8794FF4805AC0021C
:1039B000C4E90509DFF880C1A4F872A0A4F87090EA
:1039C0009CF800104B4688074FF001080ED441F0D8
:1039D00002008CF800004FF4A0706366B080E879B4
:1039E00008FA00F8A6F8068073708AE0707801285B
:1039F00035D1B288100702D13089401C3081524540
:103A000018D14748B278408942B1401E708180B2D7
:103A1000B0F5807F04D0012A05D00BE0401CF5E70B
:103A200086F8028006E028B92B706B7021F0020046
:103A30008CF800002078318948434FF6FE71084029
:103A40003E49C20931F81220A4F87020802202EB0E
:103A5000D010C0F3080031F81000A4F8720050E054
:103A6000697A6020602900D96872A97A602900D932
:103A7000A872E97A602944D9E87242E0C4F8149047
:103A80002879C002A0613CE0387C400709D4884610
:103A9000F9682648C8F8141000F053F8D8F8280040
:103AA000B860387C800709D4B968D0461E48CAF887
:103AB000141000F046F8D8F828003860B4F9321035
:103AC000DFF86CA0CBF81410B4F93010CAF8141059
:103AD0003968CBF810107968D8461248CAF8101027
:103AE00000F02FF8504600F02CF8D8F82800A0611C
:103AF000DAF828006061687B012802D12046FCF7D3
:103B0000C4FD28783070387C401CC0B23874082856
:103B100001D987F81090BDE8F09F00002C0C002020
:103B20001800002040050020B8050020F405002002
:103B30007C05002008050020420400203A000020F7
:103B4000FEE730B5D0E904128B1A8360016ACA1807
:103B5000026204885C43C461C56841885D1B838838
:103B600051435D434562C36A9C4202D85B429C421A
:103B700000D2C361036B8B4202D35C428C4200D9FA
:103B80001946436B9D4202D85B429D4200D243627C
:103B9000446AC36923440B448362816B8B4202D81D
:103BA00049428B4200D28162846AC1881B1B5943FF
:103BB000002902DD8A4203DC04E003DA8A4201DAEA
:103BC000511A00E00021016230BD002101804180D6
:103BD0008180C1808160C160416101618161C16199
:103BE000016241628162C16201634163704700000A
:103BF000174800F13801428A0A80828A4A80C28AC4
:103C00008A80826A0A63CA6252104A633C31028B1C
:103C10000A80428B4A80828B8A80C26A0A63CA62A7
:103C200052104A6300F1B002C18B1180018C5180A7
:103C3000016B1163D16200F1EC01428C0A80828C2D
:103C40004A80426B0A63CA62C08C88617047000078
:103C5000080500202DE9F041474E0446307865887C
:103C6000022809D094F85800072876D2DFE800F03F
:103C700075313A454E556300707AC0F1640068436F
:103C80000012FCF7F7FA3D4FDFF8F4803A4643465E
:103C9000FCF77EFAFCF7FFFA6067B07AC0F16400C7
:103CA00068430012FCF7E6FA3A464346FCF770FA1E
:103CB000FCF7F1FAA067F07AC0F1640068430012E3
:103CC000FCF7D8FA3A464346FCF762FAFCF7E3FA07
:103CD0002FE0216D606D6A1A121A52102944626732
:103CE0000A1A07E0226D606DA9180B1A5B10AA1A58
:103CF000121A63675210084427E0226D606DA918FC
:103D00000B185B10AA1A121A63671CE0226D606D13
:103D1000A9180B185B10091A05E0226D606DA9182F
:103D20000B1A5B1001444910C4E91D31A91A081A85
:103D30004010E0670CE0216D606D6A1A121A521093
:103D4000294462670A185210081A4010C4E91E205C
:103D5000616F012029B105E0FFE768086067A0678F
:103D6000E7E76067A16F01B9A067E16F002900D1A3
:103D7000E067BDE8F08100002C0C00207B14AE470A
:103D8000E17A044010B5FFF70FFAFCF73FFC0C484E
:103D9000FCF768FC0B4900200880891C08800A4851
:103DA000FFF713FF0948FFF710FF0948FFF70DFF62
:103DB0000848FFF70AFFBDE810400748FCF734BC8D
:103DC0002C0C002040040020400500207C05002031
:103DD000B8050020F40500200805002030B5B0F932
:103DE0002E10B0F97240B0F9703001FB04F5B0F953
:103DF0002C20594302FB13552D1302FB0411458659
:103E00000913018630BD704710B5406A01684A68E1
:103E100022F003024A60416D41F010014165012129
:103E200080F85110FEF778FA10BD10B5406AFEF721
:103E300038FB10BD10B5406AFEF7C7FB10BD70B56A
:103E40000546446AFDF74CFD024628680068800676
:103E500026D42068416821F020014160A06818B98B
:103E60006068B0F5827F16D02068416821F00101BA
:103E700041606421204600F044F808B120206065CC
:103E80000020E087012084F85100606D40B1204699
:103E9000FEF742FA70BD2068416821F00301E7E7B0
:103EA0002046FEF7FDFA70BD70B50546446AFDF781
:103EB00017FD02462868006880061ED42068416805
:103EC00021F0200141606421204600F048F818B13B
:103ED000606D40F0200060652068416821F00301BA
:103EE00041600020E086E087012084F85100606D89
:103EF00018B12046FEF710FA70BD2046FEF764FBAD
:103F000070BDF8B5044640684FF48273984217D1EB
:103F1000A0684FF48065B0F5004F01D0A8420FD1E2
:103F20002068066826F0400606606068984207D15F
:103F3000A068A84204D100920B460022012103E0B0
:103F400000920B4600228021204600F019F800283C
:103F500004D0606D40F0200060650320F8BD38B5E6
:103F60000B46009204460022802100F009F8002848
:103F700004D0606D40F020006065032038BD000073
:103F80002DE9F8431E46914688460446089DFDF7F4
:103F9000A7FC401B351AFDF7A3FC0746254800681F
:103FA000C0F3CB30684338E0701C37D0FDF798FC85
:103FB000C01BA84203D215B1009860B32CE0206862
:103FC000416821F0E00141606068B0F5827F0BD16B
:103FD000A068B0F5004F02D0B0F5806F04D1206822
:103FE000016821F040010160A06AB0F5005F09D1CD
:103FF0002068016821F4005101602068016841F4E3
:1040000000510160012084F85100002084F8500024
:104010000320BDE8F8830025401E009020688168D9
:1040200038EA010004D000204845BDD10020F0E767
:104030000120F9E7000000200549426F0B685A6330
:104040000B68826F9A630968C06FC863704700008D
:10405000D00A002010B51848FCF7A2FC1748FCF75E
:104060009FFC1648FDF75CF91348FDF759F9124813
:10407000FCF728FE1148FCF779FE022210490E4891
:10408000FCF706FF0C210F48FEF7C6FD0E48FEF7B1
:1040900067FB1E220D490E48FFF72AF80C480068FE
:1040A000C16841F01001C1600122BDE81040110358
:1040B0000848FDF70FBC0000B4080020E408002009
:1040C0002C000020D00A0020180B00207A040020C9
:1040D000600B00200008014070470000F0B5036A43
:1040E000C363C16940F6DB524A43444D5C426943B5
:1040F00002EBC42201EBC42112130913C0E9102101
:1041000001250026002B02DD80F84C5001E080F8EC
:104110004C60002A02DD80F84D5001E080F84D60CF
:10412000002902DD80F84E5001E080F84E6090F8E2
:104130004D7090F84EC07F0007EB8C0790F84CC094
:104140006744FFB2072F2CD2DFE807F02B040C13D3
:10415000181F25000223524280F858304942C0E916
:10416000142122E0062280F858204942C0E91414A4
:104170001BE080F85850C0E9142316E0042180F8B1
:1041800058105142C0E914410FE0032280F8582032
:10419000C0E9143109E0052380F85830C0E9141251
:1041A00003E080F8586006654665016D40F2EE62F6
:1041B000514390F9102040F2EE6491FBF2F1491264
:1041C0000165436D634393FBF2F252128B1840F684
:1041D0005C744265A34207DD6143B1FBF3F16243C6
:1041E0000165B2FBF3F141654188026D4A43121348
:1041F0000265426D4A4311134165F0BD25F2FFFF90
:1042000030B50F4C0F4B104A61789868CD0603D437
:1042100041F010016170D0609189411A09B2998111
:1042200001F58041B1F5004F01D9118A9981D06023
:10423000B3F90C0005491061C010886630BD00005C
:104240004204002044040020180000203006002012
:1042500010B5007801280CD1002210210548FDF787
:1042600039FB054A0223BDE81040111F0348FEF741
:1042700019B910BD0008014014000020F009002009
:10428000FDF75EBC30B593B028216846FBF775FF9B
:1042900014210AA8FBF771FF002401210F94109448
:1042A0000804CDE90010119412940294022504919F
:1042B000CDE907504FF4E01009906846FDF7A0FEE5
:1042C00008B172B6FEE70F20CDE90A054FF4806011
:1042D000CDE90C4002210AA80E94FDF79FFD08B11C
:1042E00072B6FEE74FF4004011900F950FA8FDF74E
:1042F00021FD002801D072B6FEE713B030BD704733
:104300000148FEF7C5BA0000180B0020F0B502689E
:10431000164C174D174E4FF08047A04205D0B842BB
:1043200003D0A84201D0B04203D122F070034A6802
:104330001A43A04205D0B84203D0A84201D0B042EF
:1043400003D122F44073CA681A434B6922F08002F9
:104350001A4302608A68C2620A688262A04201D17E
:104360000969016301214161F0BD0000002C014099
:10437000000400400008004010B501F01F010123B7
:10438000046A8B409C430462036A8A4013430362BD
:1043900010BD10B5846842EA032224F47F440A4326
:1043A0002243826010BD826822F070020A4342F00C
:1043B000070181607047000030B5026A22F00102F7
:1043C0000262036A4268846924F073050C682C4316
:1043D00023F002058B682B430C4DA84206D123F035
:1043E0000805CB6843EA050323F0040307D14D69B0
:1043F00022F4407245EA02058A6942EA05024260F7
:10440000846149684163036230BD0000002C0140B3
:1044100030B5026A22F010020262026A43688469BF
:104420000D6824F4E64444EA05248D6822F0200255
:1044300042EA05120C4DA84206D1CD6822F0800256
:1044400042EA051222F0400207D14D6923F440638D
:1044500043EA85038D6943EA8503436084614968C3
:104460008163026230BD0000002C014030B5026A59
:1044700022F480720262036A4268C46923F4007302
:1044800024F073050C682C438D6843EA05230C4D1A
:10449000A84206D1CD6823F4006343EA052323F440
:1044A000806307D14D6922F4405242EA05128D69BA
:1044B00042EA05124260C4614968C163036230BDCB
:1044C000002C014030B5026A22F480520262036A75
:1044D0004268C4690D6824F4E64444EA05248D6802
:1044E00023F4005343EA0533064DA84204D14D6935
:1044F00022F4804242EA85124260C4614968016444
:10450000036230BD002C014010B5046A036A23F039
:1045100001030362836923F0F00343EA021324F0EA
:104520000A020A438361026210BD10B5036A23F0D8
:10453000100303628469036A24F4704444EA02327B
:1045400023F0A00343EA01118261016210BD10B59E
:10455000406A0021C185C184FEF71CFC10BD70B506
:10456000446A2068406994F83D10C0F3C0100025EB
:10457000212904D118B1E584204600F083F8206891
:10458000406994F83E10C0F38010222904D118B17C
:10459000E585204600F05EF8206C40F010002064B5
:1045A0002046FEF7F7FB70BD10B50146406A09686A
:1045B000096889061BD40021C1850168CA6822F4F4
:1045C0008072CA6001684A6922F001024A6101688A
:1045D0004A6922F040024A61202180F83E10016BB6
:1045E000012904D10168CA6822F01002CA60016B77
:1045F000012902D0FEF791FD10BD818DFEF79DFBD4
:1046000010BD10B5406A016B012902D0FEF786FD8E
:1046100010BD818D4908FEF790FB10BD10B5014615
:10462000406A0968096889060CD40021C1840168C0
:104630004A6922F080024A610068C16841F0400185
:10464000C16010BDFEF7ACFD10BD10B5406AFEF7AD
:10465000A8FD10BD0168CA6822F49072CA600168A2
:104660004A6922F001024A61016B012904D1016803
:10467000CA6822F01002CA60202180F83E10002192
:10468000016370470168CA6822F0C002CA60202135
:1046900080F83D10704708B590F83E10222901D0EF
:1046A000022008BD81684FF48053994201D102690C
:1046B00022B1826A99421BD049B10AE00268816A3C
:1046C0005268C2F308020A80816A891C08E0016905
:1046D00071B10168496801F07F011170816A491C5C
:1046E0008162C18D491E0904090CC18503D019E0FE
:1046F00001684968F1E70168CA6822F02002CA60CF
:104700000168CA6822F48072CA6001684A6922F0AE
:1047100001024A61202180F83E10016B012903D07B
:10472000FEF7FBFC002008BD002101630168CA6898
:1047300022F01002CA6001680A68D20602D50A682F
:1047400049680091818DFEF7F8FAEBE770B50446F1
:1047500000680169E26821F4405111430161A168D8
:1047600020690143606901432068C26841F20C631B
:104770009A430A43C26020684169A26921F44071EA
:10478000114341611E492068884202D1FDF7F2FBC6
:1047900001E0FDF7DFFB00EBC00101EB00116068F9
:1047A00064228000B1FBF0F3B3FBF2F36FF0180664
:1047B0007343B1FBF0F5B1FBF0F605EB8305322353
:1047C00003EB0515B5FBF2F5B6FBF2F605F0F005C7
:1047D00005EB0615B1FBF0F6B1FBF0F0B0FBF2F023
:1047E0006FF01801484306EB800003EB0010B0FBAC
:1047F000F2F0216800F00F002844886070BD0000CE
:104800000038014037B582B01346039A826283852F
:10481000002504460564222084F83E00A16B13485D
:104820008862A16B1248C862A16B12480863A06B32
:1048300045632168A06B091DFCF71CFF2068016817
:104840004168009184F83C50C16841F48071C160B6
:104850002068416941F0010141612068416941F0EE
:104860004001416105B0002030BD0000A9450008AD
:10487000034600085F45000808B50A48FEF78CFAB1
:1048800008480949006888420BD10168C943C90634
:1048900007D4016840680090BDE80840014800F076
:1048A0005BB808BD600B002000380140FEE7090737
:1048B000090E002804DB00F1E02080F800147047A6
:1048C00000F00F0000F1E02080F8141D704702E0B6
:1048D00008C8121F08C1002AFAD17047704700208B
:1048E00001E001C1121F002AFBD17047FDF730F92A
:1048F000FFF7C8FCFEF74CFDFEF70CFDFEF7DAFEF5
:10490000FEF780FCFEF7C8FCFEF7E2FDFEF706FEB0
:10491000FEF7BEFDFEF784FEFFF79CFBFFF732FAC1
:104920000B48FBF7BDFD0B4C00224FF40051204615
:10493000FCF7D0FF012291032046FCF7CBFF0022B9
:10494000A1142046FCF7C6FF0A20FCF7CBFEFBE7CC
:1049500030060020000C014010B51548FEF7EEF9B6
:104960001348883000684068124CC0B2C0F11E0085
:10497000C2B2227010491148FBF7E6FB21780E48BD
:10498000FBF7FBFB0E4B0F4A21780C48FEF7C6FEE7
:10499000012805D10A480B4902880548FEF7C0FBEB
:1049A000BDE810401E2204490148FEF7A1BB0000EB
:1049B000600B0020340000207A040020E80400206E
:1049C000360000205C040020000000000000000011
:1049D00001020304060708090000000001020304A5
:1049E00000C1814001C0804101C0804100C18140BF
:1049F00001C0804100C1814000C1814001C08041AF
:104A000001C0804100C1814000C1814001C080419E
:104A100000C1814001C0804101C0804100C181408E
:104A200001C0804100C1814000C1814001C080417E
:104A300000C1814001C0804101C0804100C181406E
:104A400000C1814001C0804101C0804100C181405E
:104A500001C0804100C1814000C1814001C080414E
:104A600001C0804100C1814000C1814001C080413E
:104A700000C1814001C0804101C0804100C181402E
:104A800000C1814001C0804101C0804100C181401E
:104A900001C0804100C1814000C1814001C080410E
:104AA00000C1814001C0804101C0804100C18140FE
:104AB00001C0804100C1814000C1814001C08041EE
:104AC00001C0804100C1814000C1814001C08041DE
:104AD00000C1814001C0804101C0804100C18140CE
:104AE00000C0C101C30302C2C60607C705C5C4048E
:104AF000CC0C0DCD0FCFCE0E0ACACB0BC90908C8FE
:104B0000D81819D91BDBDA1A1EDEDF1FDD1D1CDCED
:104B100014D4D515D71716D6D21213D311D1D0105D
:104B2000F03031F133F3F23236F6F737F53534F44D
:104B30003CFCFD3DFF3F3EFEFA3A3BFB39F9F838BD
:104B400028E8E929EB2B2AEAEE2E2FEF2DEDEC2CAD
:104B5000E42425E527E7E62622E2E323E12120E01D
:104B6000A06061A163A3A26266A6A767A56564A40D
:104B70006CACAD6DAF6F6EAEAA6A6BAB69A9A8687D
:104B800078B8B979BB7B7ABABE7E7FBF7DBDBC7C6D
:104B9000B47475B577B7B67672B2B373B17170B0DD
:104BA00050909151935352929656579755959454CD
:104BB0009C5C5D9D5F9F9E5E5A9A9B5B995958983D
:104BC000884849894B8B8A4A4E8E8F4F8D4D4C8C2D
:104BD000448485458747468682424383418180409D
:104BE00000000001E7040020FF00000000000000BA
:104BF000010000012C0C0020FF000000000000005C
:104C000002000001330C0020FF0000000000000043
:104C1000030000012D0C0020FF0000000000000038
:104C2000040000012E0C0020FF0000000000000026
:104C300005000001300C0020FF0000000000000013
:104C4000060000012F0C0020FF0000000000000003
:104C500007000001310C0020FF00000000000000F0
:104C60000800000208050020FFFF0000000000000F
:104C7000090000023A040020FFFF000000000000CD
:104C80000A00000214050020FFFF000000000000E1
:104C90000B0000021A050020FFFF000000000000CA
:104CA0000C0000021C050020FFFF000000000000B7
:104CB0000D0000021E050020FFFF000000000000A4
:104CC0000E00000220050020FFFF00000000000091
:104CD0000F00000222050020FFFF0000000000007E
:104CE0001000000224050020FFFF0000000000006B
:104CF0001100000226050020FFFF00000000000058
:104D00001200000228050020FFFF00000000000044
:104D1000130000022A050020FFFF00000000000031
:104D2000140000022C050020FFFF0000000000001E
:104D3000150000023C050020FFFF000000000000FD
:104D4000160000022E050020FFFF000000000000FA
:104D50001700000240040020FFFF000000000000D8
:104D60001800000230050020FFFF000000000000D6
:104D70001900000234050020FFFF000000000000C1
:104D80001A00000238050020FFFF000000000000AC
:104D90001B00000238050020FFFF0000000000009B
:104DA0001C00000238050020FFFF0000000000008A
:104DB0001D00000238050020FFFF00000000000079
:104DC0001E0000023E040020FFFF00000000000063
:104DD000F04D00080000002044040000D00300084B
:104DE000B851000844040020FC0B0000DE48000815
:104DF000500B0024F4000100000010000103278381
:104E0000000114FD320065009700C900FB002D0170
:104E10005F019101C301F501270259028B02BC0217
:104E2000EE021F0350038103B203E303140444049E
:104E30007504A504D5040505340564059305C2056C
:104E4000F1051F064E067C06AA06D706050732079F
:104E50005E078B07B707E3070E083A0865088F0857
:104E6000BA08E4080D0937095F098809B009D809AB
:104E7000FF09260A4D0A730A990ABF0AE40A080BB9
:104E80002D0B500B740B970BB90BDB0BFC0B1E0C93
:104E90003E0C5E0C7E0C9D0CBC0CDA0CF80C150D57
:104EA000320D4E0D690D850D9F0DB90DD30DEC0D15
:104EB000040E1C0E340E4B0E610E770E8C0EA10EDE
:104EC000B50EC80EDB0EEE0EFF0E110F210F310FC7
:104ED000410F500F5E0F6C0F790F850F910F9C0FD4
:104EE000A70FB10FBB0FC40FCC0FD40FDB0FE10F17
:104EF000E70FEC0FF10FF50FF80FFB0FFD0FFF0F92
:104F000031110212FF0C12FB1412F51C12EC2412C8
:104F1000E12C12D43412C43C12B144129C4C1285C0
:104F200054126C5C12506412316C1004110FFF7833
:104F300012DB8012B588128C901261981234A01086
:104F400004040EECAC12B9B41285BC124EC41004A9
:104F5000150DF8D012BCD8127EE010063E0C1E0CC7
:104F6000FCF012B9F816740014062D0B080BE410AF
:104F700016991814064D0A260AFF2816B030165F37
:104F80003814040D09E444168F4C14063A080E0830
:104F9000E35C168B64140632070507D774167C7C15
:104FA00014041F06F188169390140634050505D5E0
:104FB000A01675A814041404E3B41681BC14041FCD
:104FC00003EEC8168BD014042702F5DC1691E41406
:104FD000042D01FBF01697F81A322B30FECEFF9B02
:104FE000FF69FF37FF05FFD3FEA1FE6FFE3DFE0BFD
:104FF000FED9FDA7FD75FD44FD12FDE1FCB0FC7F6F
:10500000FC4EFC1DFCECFBBCFB8BFB5BFB2BFBFBA6
:10501000FACCFA9CFA6DFA3EFA0FFAE1F9B2F98489
:10502000F956F929F9FBF8CEF8A2F875F849F81DF8
:10503000F8F2F7C6F79BF771F746F71CF7F3F6C9D6
:10504000F6A1F678F650F628F601F6DAF5B3F58D06
:10505000F567F541F51CF5F8F4D3F4B0F48CF46978
:10506000F447F425F404F4E2F3C2F3A2F382F36309
:10507000F344F326F308F3EBF2CEF2B2F297F27BAD
:10508000F261F247F22DF214F2FCF1E4F1CCF1B549
:10509000F19FF189F174F15FF14BF138F125F112D3
:1050A000F101F1EFF0DFF0CFF0BFF0B0F0A2F0943B
:1050B000F087F07BF06FF064F059F04FF045F03C72
:1050C000F034F02CF025F01FF019F014F00FF00B75
:1050D000F008F005F003F001F0000212010C1205D7
:1050E00014120B1C121424121F2C122C34123C3CD0
:1050F000124F4412644C127B5412945C12B064122E
:10510000CF6C1004EFF00178122580124B881274D6
:1051100090129F9812CCA01004FCF114AC1247B46A
:10512000127BBC12B2C41004EBF208D01244D812A5
:1051300082E01006C2F3E2F304F01247F8168C0086
:105140001406D3F4F8F41C101667181406B3F5DA35
:10515000F5012816503016A1381404F3F61C441635
:10516000714C1406C6F7F2F71D5C1675641406CE72
:10517000F8FBF8297416847C1404E1F90F88166D85
:10518000901406CCFAFBFA2BA0168BA81404ECFBA7
:105190001DB4167FBC1404E1FC12C81675D01404AB
:1051A000D9FD0BDC166FE41404D3FE05F01669F884
:0851B0008FCEFF28040000006F
:04000005080000ED02
:00000001FF
