:020000040800F2
:10000000084D00200501000815350008152F0008CF
:100010000D340008DD0800089D45000800000000C0
:100020000000000000000000000000006D3B000820
:10003000970A000800000000AB380008CF3D000818
:100040001F0100081F0100081F0100081F01000810
:100050001F0100081F0100081F0100081F01000800
:100060001F0100081F0100081F0100081F010008F0
:10007000FD0900081D0A00083D0A0008490A000899
:10008000550A0008610A0008810700081F010008DE
:100090001F0100081F0100081F0100081F010008C0
:1000A0001F0100081F0100081F0100081F010008B0
:1000B000A13E00081F0100081F0100081F010008E1
:1000C0001F0100081F0100081F0100081F01000890
:1000D0001F010008554300081F0100081F01000808
:1000E0001F0100081F0100081F010008DFF810D0E1
:1000F00000F008FB0048004701460008AFF300800D
:10010000084D00200648804706480047FEE7FEE706
:10011000FEE7FEE7FEE7FEE7FEE7FEE7FEE7FEE7B7
:100120004D3E0008ED000008202A04DB203A21FAA9
:1001300002F00021704721FA02F3D040C2F1200200
:10014000914008431946704740EA01039B0703D0DA
:1001500009E008C9121F08C0042AFAD203E011F806
:10016000013B00F8013B521EF9D27047D2B201E0C8
:1001700000F8012B491EFBD270470022F6E710B5AC
:1001800013460A4604461946FFF7F0FF204610BD05
:100190002DE9FE4F804681EA0300C00F0C46009017
:1001A00021F0004123F00045B8EB0200A94105D23F
:1001B0004046214690461C460B46024623F000402E
:1001C000104347D0270DC7F30A00C3F30A5102902A
:1001D000401A019040286BDAC3F3130040F4801BEF
:1001E0000098924620B10023D2EB030A63EB0B0B7D
:1001F00001985946C0F14002504600F0CDF906463C
:100200000D4650465946019A00F0D5F910EB08000A
:100210006141002487EA115284EAE7731A4340D00F
:10022000009A62B3019A012A4FEA075215DC001BBB
:1002300061EB02014FF0004202EA0752CDE90042B1
:10024000001C41F5801132462B4600F00CFA03B039
:10025000BDE8F08F40462146F9E7001B61EB020143
:10026000001C41F5801300185B412018A2F500170F
:1002700047EB030140EAD570B6196D4111E06D08F6
:100280004FEA360645EAC0754FEA0752001B61EB9C
:100290000201001C41F5801149084FEA30000019A5
:1002A000514132462B4603B0BDE8F04F00F0CCB9C7
:1002B0000098012240000023D0EB020263EBE073C0
:1002C000009821464FEAE074B8EB000061EB0401AE
:1002D000E9E783F000435BE781F0004158E72DE94F
:1002E000FE4F81EA030404F0004421F00041009431
:1002F0004FF0000B23F0004350EA01045ED052EAB5
:1003000003045BD0C3F30A54C1F30A552C44A4F28E
:10031000F3340194A0FB0254C1F3130141F48011A2
:10032000C3F3130343F4801301FB024400FB034EA9
:10033000840A970A44EA815447EA8357A4FB076872
:1003400002958D0A05FB07854FEA932C04FB0C549C
:100350002705029D4FEA065847EA1637B5EB080510
:100360006EEB070C870E920E47EA811742EA831262
:10037000A7FB0201B6EB0B0164EB00042B0D43EA73
:100380000C335E1844EB1C50DA465146E7FB020181
:10039000C5F313044FEA0B3343EA14534FEA043214
:1003A000019C43EA0603A4F10C040294009CCDE9ED
:1003B00000B400F058F903B0BDE8F08F002001460A
:1003C000F9E72DE9F04D81EA030404F0004B21F038
:1003D000004514464FF0000A23F0004150EA0502A0
:1003E00020D054EA01021DD0C5F30A570246C5F3D6
:1003F0001303C1F31300C1F30A5640F4801543F40C
:100400008013A7EB0608101BD64608F2FD3873EBE5
:10041000050002D308F1010801E092185B41B8F130
:10042000000F03DA00200146BDE8F08D00204FF4F4
:100430008011064684460EE0171B73EB050705D3B3
:10044000121B63EB050306434CEA010C49084FEA13
:10045000300092185B4150EA0107EDD152EA0300E7
:1004600012D082EA040083EA0501084305D0101B7C
:10047000AB4106D20122002306E000224FF00043E8
:1004800002E06FF0010253101AEB06004CEB08512A
:1004900010EB0A0041EB0B01BDE8F04D00F0D4B8C1
:1004A000C10F80EAE0700844CA079623002100F0DB
:1004B0009DB896230022114600F098B80EB5C10FE2
:1004C00080EAE0700844CA07002140F233438DE817
:1004D0000E000A460B4600F0C6F803B000BD0EB58C
:1004E00040F2334102910021CDE900110A460B464A
:1004F00000F0B9F803B000BD70B5C1F30A5201F0C5
:1005000000450024C1F3130140F2FF3341F4801190
:100510009A4201DA002070BD40F233439A42A2F2BF
:10052000334203DC5242FFF7FFFD00E090402C43D2
:10053000F1D0404270BDC1F30A5210B5C1F31301AE
:1005400040F2FF3341F480119A4201DA002010BDDD
:1005500040F233439A42A2F2334203DC5242FFF7A5
:10056000E3FD10BD904010BD30B5041E71F10004D4
:1005700004DB4FF00044404264EB0101141E73F1B0
:10058000000405DB1C464FF00043524263EB0403BA
:10059000994208BF904230BD202A04DB203A00FA7D
:1005A00002F1002070479140C2F1200320FA03F3CA
:1005B000194390407047202A06DBCB17203A41FAB6
:1005C00002F043EAE07306E041FA02F3D040C2F1E0
:1005D000200291400843194670470029A8BF704780
:1005E000401C490008BF20F00100704710B4B0FA69
:1005F00080FC00FA0CF050EA010404BF10BC704704
:1006000049B1CCF1200421FA04F411FA0CF118BF1D
:10061000012121430843A3EB0C01CB1D4FEA0061EC
:100620004FEA102042BF002010BC704700EBC350BF
:1006300010440029A4BF10BC7047401C490008BFEB
:1006400020F0010010BC704710B5141E73F10004B7
:1006500008DA401C41F1000192185B411A4301D1B4
:1006600020F0010010BD2DE9F04D92469B4611B1DE
:10067000B1FA81F202E0B0FA80F220329046FFF740
:100680008BFF04460F4640EA0A0041EA0B0153463D
:100690005A46084313D0114653EA010019D0C8F155
:1006A00040025046FFF740FD05460E46504659466B
:1006B0004246FFF771FF084305D0012004E02046C1
:1006C0003946BDE8F08D0020054346EAE0762C432C
:1006D00037430A986305E40AA0EB08000022FD0AEC
:1006E00044EA47540A3002D500200146E9E70105F3
:1006F00010196941DDE9084500196941BDE8F04D6F
:10070000A2E70000064C074D06E0E06840F0010358
:1007100094E8070098471034AC42F6D3FFF7EAFCA0
:100720004C4700086C47000870B58C1810F8015B46
:1007300015F0070301D110F8013B2A1106D110F87A
:10074000012B03E010F8016B01F8016B5B1EF9D17E
:100750002B0705D40023521E0DD401F8013BFAE704
:1007600010F8013BCB1A921C03E013F8015B01F86F
:10077000015B521EF9D5A142D8D3002070BD000004
:1007800010B5044800F0E7FDBDE81040024800F055
:10079000E2BD0000380500206805002070B5044661
:1007A00000688168C943C90716D1816821F0010139
:1007B000816001F053F9054609E001F04FF9401B53
:1007C000022804D920688068C043C00706D020688A
:1007D0008068C043C007F0D0002070BDA06A40F020
:1007E0001000A062E06A40F00100E062012070BDEC
:1007F0002DE9F047054619480026374601784FF0A5
:10080000200841F0080101706E84B146AE844FF4B7
:100810007A7001F025F8DFF848A00024A6F50066FC
:10082000BAF82000BAF81E10A7F5006706440F4476
:10083000022001F015F8641CE4B24445EEDB4FF4ED
:10084000006000EB6711698400EB6610A884A5F8CE
:100850001C90A5F81A90BDE8F0870000C8010020A0
:10086000E8040020F8B50026044600960068816878
:10087000C943C9072CD0816841F001018160154846
:1008800015490068B0FBF1F000E0401E0090002820
:10089000FBD101F0E3F8054615E001F0DFF8401B5D
:1008A000022810D920688068C043C0070BD0A06A16
:1008B00040F01000A062E06A40F00100E06284F8BD
:1008C00024600120F8BD20688068C043C007E4D1DF
:1008D0000020F8BD0000002040420F00FEE70000AD
:1008E0002DE9F041B0F91A500446C584B0F91C0056
:1008F0004010FFF7E3FD06460F462846FFF7DEFDF2
:10090000064A074BFFF7EBFC32463B46FFF740FC3D
:10091000FFF7F2FD2085BDE8F0810000280F0BB540
:10092000A679E23F00B500F081FA03490880034947
:100930000020486000BD00009C000020C80100208D
:10094000002101600178032221F00F01491C017090
:1009500041780C2321F00F01891D4170C2700121E3
:100960000171C37101754275322280F82C2080F824
:100970002D2080F82E2080228284044802220280CA
:10098000418003480280418070470000F803002046
:10099000340400202DE9F041164C0746144D204642
:1009A000FFF79EFF204602F06BFFA878124EC107AA
:1009B0004FF0000006F13C0515D03978092910D117
:1009C000B4F92C107161B4F92A10C5E9040130465C
:1009D00002F0FBFE284602F0F8FE308DA082288D42
:1009E0006082BDE8F0813062F0602862E860F8E77C
:1009F000D4480020E8040020F803002010B5054882
:100A000000F01CFE0122BDE810401021024801F058
:100A10001FB80000CC0600200008014010B50548B2
:100A200000F00CFE0122BDE810401021024801F048
:100A30000FB800001007002000080140014800F036
:100A4000FDBD00004C480020014800F0F7BD00004B
:100A500090480020014800F0F1BD0000EC050020A6
:100A6000014800F0EBBD00003006002030B590F8E2
:100A700040500124AC40C56B6C60046863604368FF
:100A8000102B036803D099600068C26030BD9A6083
:100A90000068C16030BD704770B51D481D4E1E4CCA
:100AA00082784FF40045900714D50022294630463D
:100AB00000F0CEFF0021194802F092F804211748F7
:100AC00002F08EF80821154802F08AF8207820F00C
:100AD00001001AE02078C007B0EBC27F16D0D00723
:100AE000E3D000210D4802F02BF804210B4802F05E
:100AF00027F80821094802F023F801222946304648
:100B000000F0A6FF207840F00100207070BD0000CA
:100B1000D4480020000C0140C801002054070020E8
:100B20002DE9F04E044600F1220B00F11A0690F870
:100B30002AA00078012804D002280AD0032808D16E
:100B400006E030787188000240EA1120850800E054
:100B50003588617804F11800102981464FF00101B1
:100B60001CD803F028FD00286078C0F1100005FAB9
:100B700000F511D0684285B2A078264FD8B1012186
:100B8000484603F018FD98B1A17802208840A0EBF8
:100B9000080005EB004025E0ADB2EDE703F00BFDEA
:100BA00000286078A0F1100025FA00F5E4D0E1E714
:100BB00005EB084016E0787820B9387810B1A581A7
:100BC00001207870A089281AB0F5004F01DBC0F52C
:100BD000803010F5004F01DA00F5803021690844BB
:100BE0002061A58125F00F01A180A06000221021C5
:100BF000094800F02DFF534632465946074801F098
:100C0000E5FB7878002802D13878401C3870BDE8C0
:100C1000F08E000010000020000801407406002043
:100C20000B49C97801F00F01012907D0022909D029
:100C300003290BD12C220749FFF786BA05492C223C
:100C40005839F9E703492C222C39F5E770470000A1
:100C5000D44800206C00002070B50446324E334D5D
:100C60003348FFF75DFF32484FF6FF728188606BB3
:100C70008142A1EB000000D21044208680B2B0F582
:100C8000803F03DBA0F57F40FF3802E0002800DA58
:100C900010443178490703D421784143618601E04B
:100CA000A88B6086608E2349C009B0F5C07F08809C
:100CB00021490DD3A1EB400201EB4000B2F8FE2325
:100CC000A0F58050524224F8402FB0F8000D0FE0FC
:100CD000FF280FD901EB4002A2F58052A1EB4000A2
:100CE000B2F8002E524224F8402FB0F8FE020FE076
:100CF000608070BD80280DD3C0F1FF0201EB400081
:100D000031F81220A0F5805024F8402FB0F8000FE1
:100D10004042EDE731F81020C0F17F0024F8402F69
:100D200031F81000E4E70000C8010020D44800209A
:100D3000D001002098000020B800002072B6FEE725
:100D40002DE9F047304D04463049284602F060FB5B
:100D50002F4F3878800709D12E4905F12F0002F076
:100D6000A5FD2D4905F1300003F030F826482B4948
:100D70003130FFF70FFE24482949323002F0CCFB16
:100D8000214890F83200072806D0204602F0D9F812
:100D9000204602F0EDFE30E015F82C0F34F82E6FEF
:100DA000C0F164007043FFF789FBDFF87880DFF85B
:100DB000789042464B46FFF792FAFFF7BCFB000AD9
:100DC000E0826878C0F164007043FFF777FB424629
:100DD0004B46FFF784FAFFF7AEFB000A2083A878A2
:100DE000C0F164007043FFF769FB42464B46FFF7D2
:100DF00076FAFFF7A0FB000A60833878401C00F009
:100E00000F003870BDE8F087D4480020C8010020EA
:100E1000A80000209C03002040030020E4020020E2
:100E2000880200207B14AE47E17A04403021102074
:100E3000B1FBF0F070470000F8B5002604460096BC
:100E400090F82400012808D0012084F824002046CE
:100E5000FFF7A4FC070002D053E00220F8BDA06A0F
:100E600020F4885040F00200A062022000F094FEBE
:100E700026490968B1FBF0F0400000E0401E0090F8
:100E80000028FBD12046FFF7EDFC2068816841F087
:100E90000801816000F0E2FD054608E000F0DEFD9B
:100EA000401B0A2803D920688068000715D42068F1
:100EB00080680007F2D42068816841F004018160F5
:100EC00000F0CCFD054612E000F0C8FD401B0A28EA
:100ED0000DD920688068400709D5A06A20F002007B
:100EE00040F01000A06284F824600120F8BD206862
:100EF00080684007E8D4A06A20F0020040F00100BA
:100F0000A06284F824603846F8BD0000000000208C
:100F1000F8B50022009290F8245083681446012D01
:100F20001CD0012580F82450D3B14D680B691F26D1
:100F30009D4226D81F055B1BC3F103030D6803EB1D
:100F400083039D40A7F580172F439E40036846F416
:100F500040169D6BB5432F439F631EE00220F8BDF2
:100F60004B68012B05D0826A42F020028262012286
:100F700013E003689D6B0E686FF3150545EAC635EF
:100F80000AE05B1BC3F1030303EB83039E4003688A
:100F900046F440169D6BB5439D6303689D68ED4321
:100FA000ED0706D09D6847F20106B5438E693543CB
:100FB0009D604B7D012B08D18B69B3F5E04F08D0C4
:100FC000826A42F02002826201220B7D012B06D050
:100FD0000CE003685D6845F480655D60F5E74B7D76
:100FE000A3B1826A42F02002826201220B680726C6
:100FF00005680A2B10D3EF680A3B03EB43039E40BE
:10100000B7438E689E403743EF600EE003685D682B
:1010100045F480555D60E9E72F6903EB43039E408B
:10102000B7438E689E4037432F610B68102B01D069
:10103000112B04D103689D6845F400059D604B6841
:10104000012B10D0022B16D0032B03681BD01D6A76
:10105000CE686FF30B0535431D620B68102B19D05A
:10106000112B17D037E003685D69CE686FF30B056D
:1010700035435D61F1E703689D69CE686FF30B0549
:1010800035439D61E9E7DD69CE686FF30B053543B4
:10109000DD61E2E7124D0368AB4217D19D682D0276
:1010A00019D49D6845F400059D600968102912D186
:1010B0000C490D4B0968B1FBF3F101EB81014900CB
:1010C00000E0491E00910029FBD104E0816A41F053
:1010D00020018162012280F824401046F8BD000002
:1010E000002401400000002040420F0070B50122A2
:1010F000184E55022946304600F0AAFC0121164838
:1011000000F032F8154C0121E083154800F02CF86E
:10111000144A2084E18B11805080628C511A6183C3
:10112000A18C081AA083FFF7B7FC2046FFF708FE42
:10113000204602F0D9FC03F035F90022294630465A
:1011400000F086FC04480068416841F0800141607D
:1011500070BD0000000C014038050020E8040020AC
:1011600068050020B80100200068022909D0032981
:1011700005D0042901D0C06B7047806C7047406C6B
:101180007047006C7047000070B5044690F824006A
:1011900001280DD0012084F824002046FFF762FBCF
:1011A00001004FF0000205D084F82420084670BDED
:1011B000022070BDA06A42F20103984340F48050BF
:1011C000A062194B2068194D98421AD12E6816F466
:1011D000702F16D0A66A46F48016A662A66AF60597
:1011E00000D4E26284F824206FF0040202602068D8
:1011F00042685205DAD48268C2F30232072A04D068
:1012000009E0A66A26F48016E7E7984208D12A6822
:1012100012F4702F04D0826842F400428260C5E765
:10122000826842F40212F9E70028014004240140D8
:1012300070B5044690F8240001280DD0012084F8F0
:1012400024002046FFF70EFB01004FF0000205D0FE
:1012500084F82420084670BD022070BDA06A42F2C6
:101260000103984340F48050A0621C4B20681C4D41
:1012700098421FD12E6816F4702F1BD0A66A46F430
:101280008016A662A66AF60500D4E26284F82420DD
:101290006FF0040202602068426842F080024260FF
:1012A000206842685205D5D48268C2F30232072A08
:1012B00004D009E0A66A26F48016E2E7984208D135
:1012C0002A6812F4702F04D0826842F400428260CF
:1012D000C0E7826842F40212F9E7000000280140EA
:1012E0000424014070B58CB00E4604460025302120
:1012F0006846FEF742FF94F82400012818D0012028
:1013000084F824001148009020688168C943C90707
:1013100011D000998968C943C9070CD00C4988428B
:1013200009D14168326821F470211143416007E01E
:1013300002200CB070BDA06A40F02000A062012520
:10134000002084F824002846F3E70000002801402C
:1013500000240140704710B50446006841688906C2
:1013600026D50168890723D5A16AC90603D4A16AD5
:1013700041F40071A1628168C1F34241072910D193
:10138000217B71B9416821F020014160A06A20F4FD
:101390008070A062A06AC00403D4A06A40F001007B
:1013A000A0622046FFF7D6FF21686FF012000860A8
:1013B0002068416809062ED5016849072BD5A16A26
:1013C000C90603D4A16A41F40051A1628168C1F346
:1013D0000231072909D04168490515D48168C1F354
:1013E0004241072910D1217B71B9416821F0800168
:1013F0004160A06A20F48050A062A06AC00503D4B6
:10140000A06A40F00100A0622046FFF76FFE21684D
:101410006FF00C0008602068416849060DD500682F
:10142000C0070AD0A06A40F48030A062204600F0D5
:1014300093F821686FF00100086010BD2DE9F041BC
:101440004FF00006040035467DD0A06A002728B979
:10145000E76284F82470204600F080F82046FFF709
:101460009DF9A16AC90600D420B1A06A40F010001D
:10147000A06268E0A16A21F4885141F00201A162F2
:101480006268E169237B0A4346EA43010A43A16893
:101490004FF48076B14208D0012906D0002194F89B
:1014A00014C0BCF1010F02D00AE03146F7E7F3B1F6
:1014B000A36A43F02003A362E36A43F00103E362FB
:1014C0002368D3F804C02CF4694C4CEA010CC3F82F
:1014D00004C021688B68DFF874C003EA0C0313436F
:1014E0008B60A168B1420BD0012909D00CE0DFF874
:1014F00060C0A3690CEB43330B4343F40061DFE7A7
:10150000218A0D05A5F580152168CB6A23F47003A7
:101510002B43CB62216889680E4B1940914208D158
:10152000E762A16A21F0020141F00101A162BDE878
:10153000F081A06A20F0020040F01000A062E06A92
:1015400040F00100E0620120F1E70000FDF7E1FF5B
:1015500000E0FFFFFE0E1FFF7047000010B586B0D1
:10156000002100910191029103911E4C02681E49D5
:1015700003231E48A24213D18A6942F400728A6191
:101580008A6902F4007204928A6942F008028A6150
:10159000896901F0080104910121CDE9001314E0EB
:1015A000134CA2421CD18A6942F480628A618A6922
:1015B00002F4806204928A6942F008028A618969B1
:1015C000009301F0080101930491694600F05AF973
:1015D00000220121122000F0ADFA122000F09CFA46
:1015E00006B010BD0024014000100240000C014074
:1015F0000028014010B590F821100022022905D0E2
:101600000421816380F82020012010BD01680B684F
:1016100023F00E030B6001680B6823F001030B60DD
:1016200090F84030012404FA03F1C36B596080F84C
:10163000214080F82020104610BD00002DE9F05F09
:10164000C16B0B6801680A68046C4FF0040C0CFA5B
:1016500004FC4A4DDFF828A14A4E4B4FDFF82CB16D
:10166000DFF82CE11CEA030F2DD05FEA427C2AD57B
:101670000A68920603D40A6822F004020A6001682C
:10168000A94201D1042119E0514501D1402115E0C1
:10169000B14202D14FF4806110E0B94202D14FF45F
:1016A00080410BE0594502D14FF4802106E071459D
:1016B00002D14FF4800101E04FF080612F4A083AD7
:1016C0005160C16A3BE04FF0020808FA04F818EADA
:1016D000030F4FF000094FF0010C35D05FEA82781C
:1016E00032D50A68920605D40A6822F00A020A6016
:1016F00080F821C00168A94201D1022119E05145B9
:1017000001D1202115E0B14202D14FF4007110E067
:10171000B94202D14FF400510BE0594502D14FF4C8
:10172000003106E0714502D14FF4001101E04FF0A5
:101730000071124A083A516080F82090816A0029AD
:101740001AD0BDE8F05F08470825A5401D4213D018
:10175000120711D50A6822F00E020A6090F84010B4
:10176000C26B0CFA01F15160C0F838C080F821C09A
:1017700080F82090016BE2E7BDE8F09F080002408E
:101780001C00024030000240440002405800024069
:101790006C00024030B528B302C8134A14230A442F
:1017A000B2FBF3F29200C263104A826302224277D4
:1017B0000B6843F6F0729343D0E900242243D0E94A
:1017C00002452C432243046922434469224384692D
:1017D00022431A430A6000214163012242770177C4
:1017E000084630BD012030BDF8FFFDBF00000240BB
:1017F00070B5044690F82000002501280CD0012087
:1018000084F8200094F821600020012E06D084F88E
:1018100020000225284670BD022070BD022684F8F3
:101820002160A0632068066826F001060660204655
:10183000FFF71CF9E06A00282068016802D041F037
:101840000E0106E021F0040101602068016841F00A
:101850000A0101602068016841F001010160D9E7D7
:1018600070B5044600F0FAF80546601C02D0044842
:101870000078044400F0F2F8401BA042FAD370BD97
:10188000040000202DE9F84FDFF8A491002409F1AD
:10189000040A0AF1040B23464FF00F080BF1040E63
:1018A000BEE00127A7403A40BA4272D1DFF884C1B6
:1018B0004D68A5EB0C0665452BD00DDC032D34D00F
:1018C00005DC35B3012D19D0022D2FD11BE0112DD0
:1018D00016D0122D2AD119E0B6F5881F19D006DCD2
:1018E000B6F5803F15D0B6F5801F1FD111E0B6F5D3
:1018F000001F0ED0B6F5041F18D10AE0CB6815E022
:10190000CB681B1D12E0CB6808330FE0CB680C33AB
:101910000CE08B682BB1012B4FF0080303D047611B
:1019200004E0042302E0076100E00023FF2A01D85D
:10193000064601E000F104064FEA840501D9A5F14D
:101940002005376808FA05FC27EA0C0703FA05F5B5
:1019500047EA050737604D68ED0060D5364DAE6942
:1019600046F00106AE61AD6924F0030605F00105FD
:101970000095324D7719BE68A5072D0F08FA05FCB2
:1019800026EA0C06DFF8B8C0604503D14FF0000C22
:1019900017E044E0DFF8ACC0604502D14FF0010C25
:1019A0000FE0DFF8A4C0604502D14FF0020C08E060
:1019B000DFF898C0604502D14FF0030C01E04FF012
:1019C000040C0CFA05FC4CEA060CC7F808C04D687C
:1019D000D9F80060ED034D4601D5164300E096436B
:1019E0002E604D68DAF80060AD03554601D5164308
:1019F00000E096432E604D68DBF80060ED025D4626
:101A000001D5164300E096432E604D68DEF8006075
:101A1000AD02754601D5164300E096432E60641C66
:101A20000A6832FA04F57FF43CAFBDE8F88F000095
:101A300000040140000011100010024000000140AD
:101A400000080140000C014000100140001401405A
:101A50000AB1016170470904FBE700000148806892
:101A60007047000004000020024881680278114499
:101A70008160704704000020074810B5016841F0FC
:101A800010010160032000F075F8002000F006F856
:101A900000F024F8002010BD0020024070B50D4D6C
:101AA00004464FF47A712878B1FBF0F00A490968CE
:101AB000B1FBF0F000F01EFD48B9102C07D2002257
:101AC0002146501E00F036F800206C6070BD0120E9
:101AD00070BD000004000020000000200C4808B584
:101AE000816941F001018161816901F00101009189
:101AF000C16941F08051C161C069064900F0805060
:101B00000090486820F0E06040F00070486008BD38
:101B10000010024000000140002809DB00F01F0215
:101B2000012191404009800000F1E020C0F800113F
:101B300070470000F0B40E4B1B68C3F30223C3F1DF
:101B40000704042C00D904241D1D072D01D20023F5
:101B500000E0DB1E012606FA04F56D1E0D409D40D7
:101B60009E40761E164045EA0601F0BC02F028BDF4
:101B70000CED00E0064A00F0070110684FF6FF0385
:101B8000184040EA012003490843106070470000F4
:101B90000CED00E00000FA0510B5014627A086B064
:101BA0001DC88DE81D0029A0294C00680490002064
:101BB000012922D0022939D010291CD1616822685C
:101BC000D20118D5C1F38342C9031DF8020009D51B
:101BD000616804AAC1F34041515C1E4AB2FBF1F1B5
:101BE000484301E01C4948436168490203D440006E
:101BF0000321B0FBF1F006B010BD216AC1F3012250
:101C0000012A03D1890701D5D003F4E7022A05D1BF
:101C1000616A890702D549F64040ECE7032AEAD118
:101C200021688903E7D54FF22440E4E700F036F954
:101C30006168C1F38131491C4900DAE702030405F8
:101C4000060708090A0B0C0D0E0F10100102000008
:101C50000010024000127A0000093D002DE9F8430F
:101C600004460078344FC00752D0F8690025C00000
:101C700008D4F86940F08050F861F869012500F057
:101C8000805000902D480168C90511D40168804634
:101C900041F480710160FFF7E1FE064604E0FFF7C2
:101CA000DDFE801B642822D8D8F80000C005F6D5D8
:101CB000386A10F4407020D0A18801F4407181424C
:101CC0001BD0386A1E49012220F440700A600022AD
:101CD0000A603862C00710D0FFF7C0FE064641F226
:101CE000883807E0FFF7BAFE811B414502D903207F
:101CF000BDE8F883386A8007F4D5386A616820F453
:101D00004070084338621DB1F86920F08050F861D6
:101D10002078800705D57868A16820F44040084302
:101D200078602078C00605D57868E16820F48000E6
:101D3000084378600020DBE700100240007000409C
:101D4000400442422DE9F0470D46040067D0DFF819
:101D50001881D8F8000000F00700A8420CD2D8F88B
:101D6000001021F007012943C8F80010D8F800003E
:101D700000F00700A84252D120683C4E810712D5DE
:101D8000400703D5706840F4E06070602078000779
:101D900003D5706840F4605070607068A16820F0EE
:101DA000F000084370602078C00727D060680128E1
:101DB00010D03168022810D0890700292FDA716805
:101DC00021F0030101437160FFF748FE074641F22D
:101DD00088390CE031688903EFE78901EDE7FFF707
:101DE0003DFEC11B494502D90320BDE8F08770685C
:101DF000616800F00C00B0EB810FF0D1D8F8001052
:101E0000404601F00701A9420BD9016821F0070102
:101E100029430160006800F00700A84201D00120BA
:101E2000E3E72078400705D57068E16820F4E060BA
:101E3000084370602078000706D57068216920F497
:101E4000605040EAC100706000F038F87168084ADC
:101E5000C1F30311515CC840064908600648006898
:101E6000FFF71CFE0020C0E70020024000100240E7
:101E700034470008000000200800002004480549FD
:101E800000684968044AC1F30221515CC8407047A8
:101E900000000020001002404447000804480549A3
:101EA00000684968044AC1F3C221515CC8407047C8
:101EB00000000020001002404447000812A085B036
:101EC0000FC88DE80F0014A0144B006804905968E7
:101ED000134801F00C02042A10D0082A0ED1C1F3D5
:101EE0008342C9031DF802000AD5596804AAC1F348
:101EF0004041515C0A4A5043B0FBF1F005B07047D5
:101F000008494843FAE700000203040506070809E8
:101F10000A0B0C0D0E0F1010010200000010024001
:101F200000127A0000093D002DE9F84F04006FD03F
:101F30002078BE4DC00747D06868C0F381000128F3
:101F400007D06868C0F38100022809D16868C0031F
:101F500006D52868800337D560680028E7D033E0CD
:101F60006068B0F5803F0BD010B1B0F5A02F11D054
:101F7000286820F480302860286820F4802002E05F
:101F8000286840F480302860606888B1FFF766FDFB
:101F9000064609E0286840F480202860F0E7FFF753
:101FA0005DFD801B642873D828688003F7D50BE09B
:101FB000FFF754FD064604E0FFF750FD801B642840
:101FC000F1D828688003F7D42078DFF8648280078E
:101FD0004FF0010A4FF0000939D5686810F00C0F76
:101FE00007D06868C0F38100022809D16868C0037F
:101FF00006D42868800714D52069012808D110E08C
:102000002069B0B1C8F800A0FFF728FD064605E03A
:1020100007E1FFF723FD801B0228C4D8286880074A
:10202000F7D52868616920F0F80040EAC10028600F
:102030000DE0C8F80090FFF711FD064604E0FFF739
:102040000DFD801B022823D828688007F7D420784C
:1020500000072CD57748A169D9B1C0F800A0FFF7D7
:10206000FDFC064604E0FFF7F9FC801B02280FD8B0
:10207000686A8007F7D570484FF4FA510068B0FBE2
:10208000F1F0009000BF0098411E0091FAD20EE0DE
:102090007CE0C0F80090FFF7E1FC064604E0FFF7A3
:1020A000DDFC801B022871D8686A8007F7D420788D
:1020B00040075BD5E8690027C00008D4E86940F014
:1020C0008050E861E869012700F0805000905B488B
:1020D0000168C90511D40168834641F4807101602B
:1020E000FFF7BCFC064604E0FFF7B8FC801B642841
:1020F0004CD8DBF80000C005F6D5E06801280AD00E
:1021000008B1052813D0286A20F001002862286A47
:1021100020F0040002E0286A40F001002862E06834
:1021200041F2883B88B1FFF799FC064609E0286A2E
:1021300040F004002862EEE7FFF790FC811B594550
:102140005BD8286A8007F7D50BE0FFF787FC0646C7
:1021500004E0FFF783FC811B59454ED8286A8007AD
:10216000F7D41FB1E86920F08050E861E069A8B3B6
:102170006968C1F38101022946D00228484606D089
:10218000C8F86000FFF76AFC044639E035E04746CE
:10219000C8F86000FFF762FC064604E0FFF75EFC4B
:1021A000801B022829D828688001F7D4206AB0F55E
:1021B000803F05D16868A16820F40030084368605A
:1021C000D4E908010843696821F474110843686080
:1021D000C7F860A0FFF742FC044605E023E0FFF7E4
:1021E0003DFC001B022808D828688001F7D51AE0BA
:1021F000FFF734FC001B022802D90320BDE8F88F4A
:1022000028688001F4D40EE00128F7D06868226ABB
:1022100000F48031914204D1616A00F47010884268
:1022200001D00120EAE70020E8E7000000100240AA
:102230000000424280044242000000200070004042
:10224000704770B5040009D0606A002540B125616F
:102250006561A56294F8510040B10CE0012070BDA9
:102260006068B0F5827FF4D0E561F2E784F8505001
:10227000204600F03FF8022084F8510020680168F1
:1022800021F040010160A088218900F4827001F4EE
:1022900004410843A18901F400610843217C01F055
:1022A00002010843217D01F001010843218B01F463
:1022B00000710843217F01F03801084394F8201091
:1022C00001F080010843218D01F400510843216889
:1022D0000860A069042101EA104021684860206874
:1022E000C16921F40061C1616565012084F8510074
:1022F000002070BD2DE9F04786B00025044600950A
:1023000001950295039500682A4988424ED12A48D2
:10231000816941F480518161816901F480510491A6
:10232000816941F0040181618069244E00F004005C
:102330000490A020009002200190032003906946A1
:102340003046FFF79FFA4020CDE900056946304648
:102350000295FFF797FA1B4E19484FF08008E6E800
:1023600002054FF480794FF4806AA6E820074FF405
:10237000405766E806571348FFF70CFA08B1FEF716
:10238000DDFCE66474620F4E0D484436143001C61D
:102390001020A6E821070B4866E806574430FFF7EF
:1023A000F9F908B1FEF7CAFCA664746206B0BDE88C
:1023B000F08700000030014000100240000801409A
:1023C0001C000240CC060020704770472DE9F04108
:1023D000044690F85000002501280DD0012684F80D
:1023E000506094F851000027D4F804C001280FD0A1
:1023F000BCF5827F0AD102E00220BDE8F081D4F86A
:1024000008C0BCF1000F01D1042801D0022560E012
:1024100049B342B33BB394F85100042802D00520DD
:1024200084F8510067652163A386E386A263A387CE
:10243000E3872764676494F85100042815D0E16CA1
:102440002648C8622648E16C8862E16C254808632A
:10245000E06C4763E38F2168A26B0C31E06CFFF7FF
:10246000C7F9E0B906E0012533E0E16C1E48C86217
:102470001E48E8E72068416841F001014160A06C16
:10248000C762A06C8762A06C0763A06C4763E38E91
:102490002268216B0C32A06CFFF7AAF938B1606D8D
:1024A00040F010006065012584F8516011E020685B
:1024B0000168490603D4016841F0400101602068C9
:1024C000416841F0200141602068416841F002010B
:1024D000416084F8507028468FE70000E538000816
:1024E00059390008B9380008DB380008EF3800080F
:1024F0007047704710B5401EB0F1807F01D30120B6
:1025000010BD4FF0E02460610F21601702F058F811
:102510000020A06107202061002010BD7047704797
:1025200010B590F83C20012A22D0012280F83C20EE
:10253000CA688C6822F4407222434C6822F480629C
:1025400022430C6822F4006222430C6922F4805278
:1025500022434C6922F400522243C969002322F429
:1025600080420A4301684A6480F83C30002010BD74
:10257000022010BD70B590F83C20012A26D001251C
:1025800080F83C50022280F83D200268536894682D
:1025900023F070060B68334353600D4B02689A4278
:1025A00008D0B2F1804F05D00A4B9A4202D00A4BB4
:1025B0009A4204D1496824F080031943916080F85D
:1025C0003D50002180F83C10084670BD022070BDCF
:1025D000002C0140000400400008004010B5040039
:1025E00003D094F83D0010B107E0012010BD002099
:1025F00084F83C00204600F01FF8022084F83D00DB
:10260000211D206801F052FC012084F8460084F866
:102610003E0084F83F0084F8400084F8410084F8CC
:10262000420084F8430084F8440084F8450084F8AC
:102630003D00002010BD000008B50068104A114997
:10264000904208D1886940F400608861886900F48C
:102650000060009008BDB0F1804FFBD1C86940F028
:102660000100C861C869002200F0010000900D213E
:102670001C20FFF75FFABDE808401C20FFF74CBAAA
:10268000002C01400010024090F83D10012901D0BB
:1026900001207047022180F83D100168CA6842F0AD
:1026A0000102CA6000680B49884208D0B0F1804F2F
:1026B00005D00949884202D00849884204D181687E
:1026C00001F00701062903D0016841F00101016012
:1026D00000207047002C014000040040000800402A
:1026E00070B5044690F83C00012817D0012584F805
:1026F0003C50022084F83D002068826822F0770276
:1027000022F47F4282600868502830D00DDC2028F7
:102710004DD005DC98B310283BD148E0022070BDB5
:10272000302844D0402834D139E0602828D070289F
:1027300006D0B0F5805F2CD0B0F5005F29D10AE05B
:10274000CB68D1E90121206801F0F3FB20688168A2
:1027500041F0770109E0CB68D1E90121206801F05F
:10276000E8FB2068816841F48041816011E0CA681B
:102770004968206801F098FC5021206807E016E0C5
:10278000CA684968206801F0A0FC6021206801F057
:10279000DAFB84F83D50002084F83C0070BDCA6824
:1027A0004968206801F080FC40212068EFE722683A
:1027B00001461046EBE7704770B5044600680169B2
:1027C0004FF00005C943890715D4C168C94389077B
:1027D00011D4E91E016101202077206880698007FB
:1027E000204602D0FFF7E7FF04E000F0E7F82046BC
:1027F00000F0A4F9257720680169C943490717D477
:10280000C168C943490713D46FF004010161022074
:1028100020772068806910F4407F204602D0FFF7BF
:10282000CAFF04E000F0CAF8204600F087F92577D7
:1028300020680169C943090716D4C168C94309075B
:1028400012D46FF008010161042020772068C0696C
:102850008007204602D0FFF7AEFF04E000F0AEF89C
:10286000204600F06BF9257720680169C943C90645
:1028700017D4C168C943C90613D46FF010010161B0
:10288000082020772068C06910F4407F204602D0DD
:10289000FFF791FF04E000F091F8204600F04EF9B8
:1028A000257720680169C943C90708D1C168C943B0
:1028B000C90704D1891E0161204600F0C9F92068CA
:1028C0000169C943090609D4C168C943090605D489
:1028D0006FF0800101612046FFF720FE206801694A
:1028E000C943490609D4C168C943490605D46FF0F4
:1028F00040010161204600F0B3F920680169C94335
:1029000089060BD4C168C943890607D46FF020013A
:1029100001612046BDE87040FFF701BE70BD0000B8
:1029200000B585B0002100910191029103910068EA
:102930000C49884213D10C48816941F0040181613E
:102940008069694600F0040004904FF4E060009054
:1029500002200190032003900448FEF793FF05B086
:1029600000BD0000002C01400010024000080140A2
:1029700010B5044690F83C0001280AD0012084F8E4
:102980003C0042B1042A0AD0082A0CD00C2A11D1EA
:102990000DE0022010BD206801F0DEFA0AE0206898
:1029A00001F006FB06E0206801F030FB02E0206841
:1029B00001F058FB002084F83C0010BD704710B5B2
:1029C000040003D094F83D0010B107E0012010BDD1
:1029D000002084F83C00204600F01EF8022084F815
:1029E0003D00211D206801F061FA012084F84600B5
:1029F00084F83E0084F83F0084F8400084F84100E9
:102A000084F8420084F8430084F8440084F84500C8
:102A100084F83D00002010BD704770B5044690F862
:102A20003C000D4601280AD0012084F83C0042B148
:102A3000042A18D0082A2AD00C2A4DD139E00220C5
:102A400070BD206801F088FA2068816941F00801B2
:102A500081612068816921F00401816120688169B8
:102A60002A69114311E0206801F0A2FA2068816907
:102A700041F4006181612068816921F48061816194
:102A8000206881692A6941EA0221816124E0206885
:102A900001F0BCFA2068C16941F00801C1612068F9
:102AA000C16921F00401C1612068C1692A6911432B
:102AB00011E0206801F0D6FA2068C16941F4006194
:102AC000C1612068C16921F48061C1612068C16968
:102AD0002A6941EA0221C161002084F83C0070BDEE
:102AE00010B5040003D094F83D0010B107E00120B8
:102AF00010BD002084F83C00204600F01EF80220A3
:102B000084F83D00211D206801F0D0F9012084F8EF
:102B1000460084F83E0084F83F0084F8400084F8C2
:102B2000410084F8420084F8430084F8440084F8AB
:102B3000450084F83D00002010BD7047704700003C
:102B400010B5044649B104290AD008290BD094F8DD
:102B5000410001280AD0012010BD94F83E00F8E79A
:102B600094F83F00F5E794F84000F2E7022041B303
:102B7000042929D008292AD084F84100012220689C
:102B800001F0CAF913492068884203D1426C42F42B
:102B9000004242642068884208D0B0F1804F05D0DE
:102BA0000D49884202D00D49884204D1816801F064
:102BB0000701062903D0016841F0010101600020EE
:102BC00010BD84F83E00D9E784F83F00D6E784F8CA
:102BD0004000D3E7002C0140000400400008004002
:102BE00030B504460D460068002201F095F9174AF9
:102BF00041F2111120688B10904209D1026A0A42F9
:102C000006D1026A1A4203D1426C22F400424264A5
:102C10002068026A0A4206D1016A194203D101689A
:102C200021F00101016001203DB1042D08D0082DE3
:102C300009D084F84100002030BD84F83E00FAE756
:102C400084F83F00F7E784F84000F4E7002C0140E7
:102C50000249884201D100F073B970479C070020F7
:102C60007047704710B504460068416994F83D20EC
:102C7000C1F3C011212A0BD151B1416921F080016A
:102C80004161606B08B1FEF7B5FC204601F0C2FA65
:102C90002068416994F83E20C1F38011222A0BD1AB
:102CA00051B1416921F040014161A06B08B1FEF7CB
:102CB000A1FC204601F096FA002010BD704770B5C7
:102CC000040004D094F83D00002510B106E0012076
:102CD00070BD84F83C50204600F022F8242084F88F
:102CE0003D002068C16821F40051C160204601F018
:102CF0009BFA2068016921F49041016120684169D3
:102D000021F02A0141612068C16841F40051C1608D
:102D10002564202084F83D0084F83E00002070BD2A
:102D20002DE9F04186B000250446009501950295F5
:102D300003950068314988425CD13148816941F48A
:102D400080418161816901F480410491816941F090
:102D50000801816180692B4E00F00800049040203A
:102D60000090022001900320039069463046FEF750
:102D700089FD4FF08008CDE9008547466946304619
:102D80000295FEF77FFD2049486840F0E06040F082
:102D9000040048601E4E1D4801C61020A1C6470110
:102DA00046F810791A48C6E90575F561FEF7F2FC98
:102DB00008B1FDF7C3FF66637462154E13484436CD
:102DC0001430C6E90005B560C6E903878014776151
:102DD000C6E906503046FEF7DDFC08B1FDF7AEFF50
:102DE000A66300220C2125207462FEF7A3FE252095
:102DF000FEF792FE06B0BDE8F08100000038014009
:102E000000100240000C014000000140440002405C
:102E10004C48002090F83E30202B0ED159B152B1D1
:102E200090F83C30012B08D0012380F83C3000237F
:102E3000036301F055BA01207047022070477047C4
:102E400070470000F7B5044690F83D00202831D1C6
:102E5000019969B362B394F83C0001282AD001209B
:102E600084F83C002162A284E284002525642120AC
:102E700084F83D00636B10489862636B0F48D8621A
:102E8000636B0F481863606B134645632668606B7D
:102E9000321DFEF7ADFC21686FF04000086084F839
:102EA0003C502068416941F0800141610020FEBD35
:102EB0000120FEBD0220FEBDAD410008DB4100083F
:102EC000EF40000870477047114910B5087908288D
:102ED0001CD8487978B9C8780A8900EB4000C988BD
:102EE00002EB4000884206D309480421BDE81040A7
:102EF000801C01F05CBB06480221801C01F05BFBDA
:102F0000002803D1BDE8104001F0B2BB10BD0000A5
:102F1000BE010020FEE70000064840F6C901C18559
:102F20000B2101700C210182034832218180034969
:102F300001607047E8040020B00000208C2E3A4366
:102F4000704730B530F9121FB0F93040B0F92E306B
:102F500001FB04F5B0F90220594302FB13552D1370
:102F600002FB041185800913C18030BD10B50848EB
:102F700000F020FC06483C3000F01CFC044878308F
:102F800000F018FC0248BDE81040B43000F012BC5C
:102F9000F803002030B589B000241C21684607944E
:102FA000FDF7EBF8194818490125846001600473A6
:102FB000047505614FF460214460C161FEF73EFA7B
:102FC00008B1FDF7BBFE4FF4A020079007A90F48FA
:102FD000FEF788F908B1FDF7B1FE0820CDE900053C
:102FE000400206908DF81540049502948DF8145017
:102FF000694606480394FDF78BFF002801D0FDF7D2
:103000009DFE09B030BD00000024014038050020BD
:1030100030B587B01C216846FDF7AFF8134800248F
:1030200011498460016004730475012505614FF442
:1030300060214460C161FEF701FA08B1FDF77EFE30
:103040000920CDE900058DF81540049502948DF80E
:103050001450694605480394FDF75AFF002801D033
:10306000FDF76CFE07B030BD002801406805002068
:103070001D4808B5416941F00101416140690022E4
:1030800000F00100009001210C20FEF753FD0C2000
:10309000FEF742FD002201210D20FEF74BFD0D2021
:1030A000FEF73AFD00220B210E20FEF743FD0E2015
:1030B000FEF732FD00220B210F20FEF73BFD0F2013
:1030C000FEF72AFD00220B211020FEF733FD102011
:1030D000FEF722FD00220B211120FEF72BFDBDE89B
:1030E00008401120FEF718BD001002402DE9F04104
:1030F00086B000253A4800950195029503958169AF
:1031000041F020018161816901F020010491816910
:1031100041F004018161816901F004010491816938
:1031200041F00801816180692E4F00F00800049091
:10313000002241F20A013846FEF78AFC01221021E2
:103140003846FEF785FCDFF8A08000224FF470417E
:103150004046FEF77DFC0A2001248DE83100032063
:10316000039069463846FEF78DFB48F20400CDE92E
:103170000005694638460295FEF784FB1020CDE92C
:1031800000040294694638460394FEF77BFB4FF433
:10319000E040CDE900040226CDE9024669464046FA
:1031A000FEF770FBE003CDE9000402946946404657
:1031B0000394FEF767FB2003CDE90004CDE9024646
:1031C00069463846FEF75EFB3820CDE900056946C2
:1031D00040460295FEF756FB06B0BDE8F0810000C0
:1031E0000010024000080140000C0140114810B5D9
:1031F0000F4901604FF48271416000214FF4006279
:10320000C0E902120222026101224261520282617D
:103210001022C0E90721416281620A21C162FFF7E1
:1032200010F8002803D0BDE81040FDF787BD10BDA1
:10323000003001407406002010B596B000240F94B1
:1032400010941194129413941C2168461494FCF762
:1032500094FF202107A8FCF790FF37483549C0E9C3
:1032600000142021816040F6C901C0E903148021C7
:10327000C0E90541FFF7B2F908B1FDF75FFD4FF472
:1032800080500F900FA92C48FFF72AFA08B1FDF7DC
:1032900055FD2948FFF724FC08B1FDF74FFD1394B5
:1032A00013A925481494FFF765F908B1FDF746FD09
:1032B0006020CDE900040294039404940594002254
:1032C00069461D480694FFF7A8FB08B1FDF736FDD7
:1032D000042269461848FFF7A0FB08B1FDF72EFD50
:1032E000082269461448FFF798FB08B1FDF726FD50
:1032F0007020009040F64C0001900C2269460E4868
:10330000FFF78BFB08B1FDF719FD079408940994AA
:103310004FF400500A94CDE90B4007A906480E94DB
:10332000FFF7FEF808B1FDF709FD0348FFF7F8FACB
:1033300016B010BD002C01405407002010B58EB00F
:1033400000240794089409940A940B941C2168465D
:103350000C94FCF712FF1D484FF08041016047219B
:10336000C0E9011440F2E731C0E903148021816112
:10337000FFF734F908B1FDF7E1FC4FF480500790F6
:1033800007A91248FFF7ACF908B1FDF7D7FC0F48C1
:10339000FFF715FB08B1FDF7D1FC0B940BA90B4807
:1033A0000C94FFF7E7F808B1FDF7C8FC009401940E
:1033B00002940022694605480494FFF7D9FA0028D0
:1033C00001D0FDF7BBFC0EB010BD00009C07002033
:1033D0000C4810B50A4901600B4941600021816029
:1033E0000C22C160C0E904128161C161FFF767FC72
:1033F000002803D0BDE81040FDF7A0BC10BD0000C0
:10340000003801400848002060E31600FEE7000095
:1034100030B501780E250B09417800220909062BE9
:1034200053D2DFE803F052033F2A155780F82F20CC
:1034300080F8302080F83120062906D0072904D0F2
:10344000082902D080F8322044E080F8321041E0B0
:10345000042480F8304080F8314080F832400D2953
:1034600004D00E2906D080F82F2033E00D2180F8FB
:103470002F102FE080F82F502CE0032480F82F200D
:1034800080F8314080F832400C2904D00E2906D053
:1034900080F830201EE00C2180F830101AE080F80F
:1034A000305017E080F82F20022480F8302080F878
:1034B0003240092906D00A2904D00B2902D080F80D
:1034C000312007E080F8311004E000F82F2F42701F
:1034D0008270C2700D480078C00714D10C4C20785F
:1034E00000F00F01B1EB101F05D1627802F00F055B
:1034F000B5EB121F07D061F307102070607801460A
:1035000060F307116170184630BD0000C80100204B
:10351000D4480020FEE700002DE9F05F80469E4C75
:103520009E4E9F4D9F4F02219F4801F044F8A17885
:1035300001F0010108432BD098F80000DFF86C82FD
:10354000DFF86CA24FF00009062823D0072845D0E9
:1035500008281DD10221944801F029F830784FF055
:10356000020A40F004003070207D4FF00108000393
:103570006882A5F81490208D78B3401E2085A0782D
:10358000C00705D1A4F8289086F8058084F82AA001
:10359000BDE8F09F288AFCF7A2FF42465346FCF79D
:1035A0009EFE06460F4694F90400FCF787FF32465C
:1035B0003B46FCF7D9FF0AD2288A0003FCF78FFFAD
:1035C00042465346FCF78BFEFCF796FF01E020795C
:1035D0000003A882A5F81290DAE713E094F82C1003
:1035E0006020602901D984F82C0094F82D106029FE
:1035F00001D984F82D0094F82E106029C8D984F8D8
:103600002E00C5E794F82A0008B3DFF89CB1012822
:10361000ABF1010B52D00228BAD1A5F81290A5F84F
:1036200014908BF8009084F82B90A4F81690C4F8AE
:103630001890A4F81C9084F82A906078032120F058
:10364000F0006070307820F00400307031E001212B
:10365000554800F0B0FF88B1607DE38A08FA00F1B8
:1036600042468B421CDAB988A0690844A0614FF435
:1036700048702085E08A401CE08289E7C5F83490D4
:10368000A5F83290A5F840904FF48051A5F842106B
:10369000A4F816904FF47A60C4F81890208521E0C1
:1036A000A169C140696384F82A204FF47A702085AB
:1036B0000121BDE8F05F3C4800F071BF01213A48AC
:1036C00000F079FF28B1A4F828A0A08B80050FD0C6
:1036D0005DE0288EB98A0844ABF802000A202085F4
:1036E00084F82B90BDE8F05F01212F4800F05FBF08
:1036F000288EBBF80230216AC01A20622B8E5A46EF
:10370000ABF80230091A00D54942002801DB034614
:1037100000E0434297F801C0C646E346ACF1010C15
:1037200008FA0CF8434514DD137893B12B7082F836
:1037300000905068002809DA012107F1180000F014
:1037400032FF686B4FF6FF71081A686384F82AA08D
:103750001DE0A38B5D0407D133B11178491C1170B2
:1037600051680844506012E04FEA5B020EFA02F022
:1037700088420CDA94F82B00401CC0B284F82B006D
:10378000052804D9307940F008003071DEE7A08BBD
:10379000A18C0844A083FBE6D4480020C801002087
:1037A000E8040020D0010020A1000020280F0BB564
:1037B000A679E23F44F62061C16201634FF4FA61E9
:1037C000416347F2305181637047F0B5D0E904128C
:1037D0008B1A836005885D4385614288066A72435F
:1037E000C261C1685C1A81884C434462C360016B4A
:1037F000002B04DAC1F10007BA4203DC04E003DD68
:103800008A4201DA33440362C36A9D4202DC5B42AE
:103810009D4200DA83618A4202DC49428A4200DA30
:10382000C161416B8C4202DC49428C4200DA416248
:10383000D0E906121144426A11448162826B9142BE
:1038400002DC5242914200DA8262F0BD10B5FFF70D
:1038500063FBFDF767F80748FDF772F8064800219B
:1038600001604160FFF782FBBDE810400348FDF7AF
:10387000D7B90000D4480020C8010020D0010020A2
:1038800030B5B0F92810B0F9424030F9262F01FBCD
:1038900004F5B0F91A3002FB135559432D1302FBFE
:1038A0000411C5800913818030BD70470148FDF7C0
:1038B000D3B90000E804002010B5406A01684A68E6
:1038C00022F003024A60416D41F01001416501217F
:1038D00080F85110FEF7B4FC10BD10B5406AFEF739
:1038E00074FD10BD10B5406AFEF703FE10BD70B543
:1038F0000546446AFEF7B2F802462868006880066A
:1039000026D42068416821F020014160A06818B9E0
:103910006068B0F5827F16D02068416821F001010F
:1039200041606421204600F044F808B12020606521
:103930000020E087012084F85100606D40B12046EE
:10394000FEF77EFC70BD2068416821F00301E7E7C7
:103950002046FEF739FD70BD70B50546446AFEF796
:103960007DF802462868006880061ED420684168F9
:1039700021F0200141606421204600F048F818B190
:10398000606D40F0200060652068416821F003010F
:1039900041600020E086E087012084F85100606DDE
:1039A00018B12046FEF74CFC70BD2046FEF7A0FD86
:1039B00070BDF8B5044640684FF48273984217D141
:1039C000A0684FF48065B0F5004F01D0A8420FD138
:1039D0002068066826F0400606606068984207D1B5
:1039E000A068A84204D100920B460022012103E006
:1039F00000920B4600228021204600F019F8002892
:103A000004D0606D40F0200060650320F8BD38B53B
:103A10000B46009204460022802100F009F800289D
:103A200004D0606D40F020006065032038BD0000C8
:103A30002DE9F8431E46914688460446089DFEF748
:103A40000DF8401B351AFEF709F8074625480068AF
:103A5000C0F3CB30684338E0701C37D0FDF7FEFF71
:103A6000C01BA84203D215B1009860B32CE02068B7
:103A7000416821F0E00141606068B0F5827F0BD1C0
:103A8000A068B0F5004F02D0B0F5806F04D1206877
:103A9000016821F040010160A06AB0F5005F09D122
:103AA0002068016821F4005101602068016841F438
:103AB00000510160012084F85100002084F850007A
:103AC0000320BDE8F8830025401E0090206881682F
:103AD00038EA010004D000204845BDD10020F0E7BD
:103AE0000120F9E700000020054930F8442F0B6859
:103AF0005A630B6842889A6309688088C863704774
:103B00005407002010B51248FDF796F91148FDF74B
:103B100093F91048FDF738FB0D48FDF789FB0C21A0
:103B20000D48FFF70DF80D48FEF7AEFD1E220C49BB
:103B30000C48FFF76FF90B480068C16841F01001AD
:103B4000C1600122BDE8104011030748FDF780BFA6
:103B50003805002068050020540700209C0700203D
:103B60004C02002008480020000801407047000077
:103B70002DE9FE4FB0F91850044600266810FCF7F6
:103B80009DFC81464F468846B4F91600FCF796FC2A
:103B9000DFF81CB282465A46864B0091FCF79FFB29
:103BA0003A464346FCF795FBFCF7A6FC4146C8465F
:103BB00007B2894650465A467F4B0099FCF78FFB67
:103BC00042464B46FCF785FBFCF796FC00B2002D05
:103BD00000DD0126002F01DD46F00206002801DD90
:103BE00046F00406072E26D2DFE806F025040A1167
:103BF000151B200079424FF002080EB2404204E04B
:103C0000404206B24FF00608684205B217E04FF096
:103C100001083E4613E0684206B24FF004087842BD
:103C2000F3E72E464FF00308054608E04FF005087D
:103C300006463D4603E04FF0000846464546208ACA
:103C4000FCF74DFC01910091E78D83463846FCF767
:103C500046FC8246894630460291FCF72FFC544AC6
:103C6000564BFCF73CFB52464B46FCF738FB5A469A
:103C7000009BFCF7A6FBFCF75EFCC0F30F36CDF80B
:103C800000B0D1462846DDF808B0FCF717FC484ADA
:103C90004A4BFCF724FB4A465B46FCF720FBDDE978
:103CA0000023FCF78EFBFCF746FCC0F30F35A81988
:103CB000DFF80CB180B28146ABF802005046414AB1
:103CC000414B0299FCF70BFBFCF735FC81B2ABF8DA
:103CD0000410894508D901FB06F090FBF9F086B283
:103CE000694391FBF9F085B2B8F1070F49D2DFE8DB
:103CF00008F048040B1F272F3B00B81B401B40084F
:103D0000A4F84400B81905E0B819401B4008A4F80D
:103D10004400B81B401B4008A4F846007019384402
:103D20004008A4F84800B4F84410012079B331E009
:103D3000701938444008A4F84400B81B401B1AE02E
:103D4000701938444008A4F84400B819401B06E034
:103D5000B819401B4008A4F84400701938444008C2
:103D6000A4F84600B81B0AE0B81B401B4008A4F8A2
:103D70004400701938444008A4F84600B819401BA4
:103D8000CEE77808A4F84400A4F84600C9E7FFE7A6
:103D9000A4F84400B4F8461009B9A4F84600B4F8F1
:103DA0004810002901D1A4F84800BDE8FE8F0000AA
:103DB0002D5BEB8B84B6EB3F84B6EBBF84B6FB3F49
:103DC000A8000020B81E85EB51B8EE3F7047FDF704
:103DD0004BBE30B593B028216846FCF7CEF91421CC
:103DE0000AA8FCF7CAF9002401210F9410940804D2
:103DF000CDE9001011941294029402250491CDE9AA
:103E000007504FF4E01009906846FEF78DF808B1AE
:103E100072B6FEE70F20CDE90A054FF48060CDE9C8
:103E20000C4002210AA80E94FDF78CFF08B172B66F
:103E3000FEE74FF4004011900F950FA8FDF70EFF1D
:103E4000002801D072B6FEE713B030BD7047000005
:103E500030B585B0002000900190029003900E488C
:103E6000816941F00801816180690C4D00F0080012
:103E70004FF400740490002221462846FDF7E8FD27
:103E800001210320CDE90210CDE900416946284611
:103E9000FDF7F8FC05B030BD00100240000C0140F9
:103EA0000148FEF789BC00009C070020F0B50268BD
:103EB000164C174D174E4FF08047A04205D0B84220
:103EC00003D0A84201D0B04203D122F070034A6867
:103ED0001A43A04205D0B84203D0A84201D0B04254
:103EE00003D122F44073CA681A434B6922F080025E
:103EF0001A4302608A68C2620A688262A04201D1E3
:103F00000969016301214161F0BD0000002C0140FD
:103F1000000400400008004010B501F01F0101231B
:103F2000046A8B409C430462036A8A401343036221
:103F300010BD10B5846842EA032224F47F440A438A
:103F40002243826010BD826822F070020A4342F070
:103F5000070181607047000030B5026A22F001025B
:103F60000262036A4268846924F073050C682C437A
:103F700023F002058B682B430C4DA84206D123F099
:103F80000805CB6843EA050323F0040307D14D6914
:103F900022F4407245EA02058A6942EA050242605B
:103FA000846149684163036230BD0000002C014018
:103FB00030B5026A22F010020262026A4368846924
:103FC0000D6824F4E64444EA05248D6822F02002BA
:103FD00042EA05120C4DA84206D1CD6822F08002BB
:103FE00042EA051222F0400207D14D6923F44063F2
:103FF00043EA85038D6943EA850343608461496828
:104000008163026230BD0000002C014030B5026ABD
:1040100022F480720262036A4268C46923F4007366
:1040200024F073050C682C438D6843EA05230C4D7E
:10403000A84206D1CD6823F4006343EA052323F4A4
:10404000806307D14D6922F4405242EA05128D691E
:1040500042EA05124260C4614968C163036230BD2F
:10406000002C014030B5026A22F480520262036AD9
:104070004268C4690D6824F4E64444EA05248D6866
:1040800023F4005343EA0533064DA84204D14D6999
:1040900022F4804242EA85124260C46149680164A8
:1040A000036230BD002C014010B5046A036A23F09E
:1040B00001030362836923F0F00343EA021324F04F
:1040C0000A020A438361026210BD10B5036A23F03D
:1040D000100303628469036A24F4704444EA0232E0
:1040E00023F0A00343EA01118261016210BD70B5A3
:1040F000446A2068406994F83D10C0F3C010002560
:10410000212904D118B1E584204600F083F8206805
:10411000406994F83E10C0F38010222904D118B1F0
:10412000E585204600F05EF8206C40F01000206429
:104130002046FEF7C3FD70BD10B50146406A096810
:10414000096889061BD40021C1850168CA6822F468
:104150008072CA6001684A6922F001024A610168FE
:104160004A6922F040024A61202180F83E10016B2A
:10417000012904D10168CA6822F01002CA60016BEB
:10418000012902D0FEF75BFE10BD818DFEF769FDAF
:1041900010BD10B5406A016B012902D0FEF750FE38
:1041A00010BD818D4908FEF75CFD10BD10B50146BC
:1041B000406A0968096889060CD40021C184016835
:1041C0004A6922F080024A610068C16841F04001FA
:1041D000C16010BDFEF776FE10BD10B5406AFEF757
:1041E00072FE10BD0168CA6822F49072CA6001684C
:1041F0004A6922F001024A61016B012904D1016878
:10420000CA6822F01002CA60202180F83E10002106
:10421000016370470168CA6822F0C002CA602021A9
:1042200080F83D107047000070B5044600680169D1
:10423000E26821F4405111430161A1682069014302
:10424000606901432068C26841F20C639A430A43E3
:10425000C26020684169A26921F440711143416143
:104260001E492068884202D1FDF718FE01E0FDF7E3
:1042700005FE00EBC00101EB0011606864228000C4
:10428000B1FBF0F3B3FBF2F36FF018067343B1FB2D
:10429000F0F5B1FBF0F605EB8305322303EB0515D2
:1042A000B5FBF2F5B6FBF2F605F0F00505EB0615E9
:1042B000B1FBF0F6B1FBF0F0B0FBF2F06FF01801DB
:1042C000484306EB800003EB0010B0FBF2F02168DE
:1042D00000F00F002844886070BD000000380140E5
:1042E00037B582B01346039A82628385002504465F
:1042F0000564222084F83E00A16B13488862A16BFC
:104300001248C862A16B12480863A06B456321681C
:10431000A06B091DFDF76CFA2068016841680091E7
:1043200084F83C50C16841F48071C16020684169E3
:1043300041F0010141612068416941F04001416162
:1043400005B0002030BD000039410008934100084D
:10435000EF40000818B4114B18680168C268104C8F
:10436000A04219D10468E443E40606D40168406819
:104370000090184618BC00F0ADB949060CD551069E
:104380000AD5C16821F04001C160202083F83D00BA
:1043900018BC0248FEF798BD18BC704708480020BA
:1043A000003801402DE9F04F85B00121764800F03A
:1043B00002F9754D0027AD1E4FF4804B4FF00109F7
:1043C00000287DD02879DFF8C481714E082878D87C
:1043D0006978002976D140B14FF0020A012817D040
:1043E00002281DD0042831D128E0B8F84400FCF799
:1043F00060F83060B8F84600FCF75BF87060B8F819
:104400004800FCF756F80324B060042068701DE0F3
:10441000B8F94000FCF744F83060B8F9420006E013
:10442000B8F91600FCF73CF83060B8F91800FCF752
:1044300037F87060022485F801A007E0B8F8300072
:10444000FCF737F83060012485F80190A600F2B23D
:104450004F496846FBF778FE4FF0FF404DF82400C7
:10446000361D4B48F4B2694622461030FBF76CFE0D
:10447000EC70E8882044584503D36879401C687183
:10448000EF800221404800F096F830B1002095F905
:10449000051051B1012902D01AE00120F7E7E9889F
:1044A000EA7811442A89914212D288B13848E988C1
:1044B000243008443649EA781031FBF745FE02E023
:1044C00052E043E03CE0E888E9780844E88003E013
:1044D00002212D4800F06BF82878A8B1E878EA8826
:1044E00000EB4001B2EB410F0ED900EB4000284930
:1044F00042002F7024312748FBF726FEE878254933
:1045000082002548FEF79EFC04211F4800F053F866
:10451000B0B1E878298900EB400001EB4002E9885E
:104520008A4201D26A792AB1B1EB400F08D9687981
:10453000012805D10421144800F031F800F098F862
:104540006878401E687005B0BDE8F08FB8F830009C
:10455000FBF7AFFF306028780028F4D02F700121DE
:10456000094800F01CF8EEE7094859462430FBF7EB
:1045700004FE2F81EF806F710621034800F00FF8D1
:1045800085F80090DFE70000C0010020E80400206B
:10459000E4070020FC01002008480020FEE7027824
:1045A0008A430270704702784A400270704702786E
:1045B0000A43027070470078084000D0012070471D
:1045C0000907090E002804DB00F1E02080F8001440
:1045D000704700F00F0000F1E02080F8141D7047D4
:1045E00002E008C8121F08C1002AFAD170477047BC
:1045F000002001E001C1121F002AFBD1704700001A
:10460000FDF73AFAFFF7E5FBFEF770FDFEF730FD28
:10461000FEF7DEFEFEF7BEFCFEF7FAFCFEF7E6FD57
:10462000FEF70AFEFEF78AFEFFF712FCFFF76AFAB2
:10463000FFF70CF90C48FCF7DBF80C4C00224FF4A8
:1046400000512046FDF704FA00224FF48041204635
:10465000FDF7FEF90022A1142046FDF7F9F90A2022
:10466000FDF7FEF8FBE70000E8040020000C014025
:1046700010B5144CE078228900EB400102EB4101B7
:10468000B1F5804F04D36179491E61710021218108
:1046900000EB400042000C48218901440B48FBF725
:1046A00053FDE078094900EB400042000848FEF75E
:1046B000C9FBE078218900EB400001EB400020813C
:1046C00010BD0000BE01002008080020FC010020F1
:1046D0000848002010B51248FEF7C4FA1048883088
:1046E000006840680F4CC0B2C0F11E00C2B2227018
:1046F0000D490E48FBF728FD21780B48FBF73DFDDF
:1047000001210B48FFF74FFF09490848891E1E2267
:1047100000780871BDE8104003490148FEF77ABBF4
:10472000084800209A0000204C0200206A02002065
:10473000C00100200000000000000000010203048E
:104740000607080900000000010203046C47000886
:1047500000000020D0010000280700089048000851
:10476000D0010020384B0000F0450008111324F45C
:104770003201B2100312010EE21E628312020C27F4
:104780000211082CAA0365710215320223021232AB
:104790001265129712C912FB10F32D015F019101EE
:1047A000C301F501270259028B02BC02EE021F036E
:1047B00050038103B203E303140444047504A50405
:1047C000D5040505340564059305C205F1051F06EA
:1047D0004E067C06AA06D706050732075E078B073A
:1047E000B707E3070E083A0865088F08BA08E40817
:1047F0000D0937095F098809B009D809FF09260A98
:104800004D0A730A990ABF0AE40A080B2D0B500BD4
:10481000740B970BB90BDB0BFC0B1E0C3E0C5E0CE8
:104820007E0C9D0CBC0CDA0CF80C150D320D4E0DE7
:10483000690D850D9F0DB90DD30DEC0D040E1C0EE9
:10484000340E4B0E610E770E8C0EA10EB50EC80EF7
:10485000DB0EEE0EFF0E110F210F310F410F500F27
:104860005E0F6C0F790F850F910F9C0FA70FB10F83
:10487000BB0FC40FCC0FD40FDB0FE10FE70FEC0F12
:10488000F10FF50FF80FFB0FFD0FFF0F02181000CF
:04000005080000ED02
:00000001FF
