:020000040800F2
:10000000A010002005010008E13F0008FD350008B0
:10001000353B000885080008414D0008000000003D
:10002000000000000000000000000000594400082B
:10003000130A000800000000874100081547000867
:100040001F0100081F0100081F0100081F01000810
:100050001F0100081F0100081F0100081F01000800
:100060001F0100081F0100081F0100081F010008F0
:100070007909000899090008B9090008C5090008AC
:10008000D1090008DD090008CD0600081F0100089D
:100090001F0100081F0100081F0100081F010008C0
:1000A0001F0100081F0100081F0100081F010008B0
:1000B000954700081F0100081F0100081F010008E4
:1000C0001F0100081F0100081F0100081F01000890
:1000D0001F0100080D4D00081F0100081F01000846
:1000E0001F0100081F0100081F010008DFF810D0E1
:1000F00000F0AAFA00480047A14D0008AFF30080C5
:10010000A01000200648804706480047FEE7FEE7AB
:10011000FEE7FEE7FEE7FEE7FEE7FEE7FEE7FEE7B7
:1001200093470008ED000008202A04DB203A21FA5A
:1001300002F00021704721FA02F3D040C2F1200200
:10014000914008431946704740EA01039B0703D0DA
:1001500009E008C9121F08C0042AFAD203E011F806
:10016000013B00F8013B521EF9D27047D2B201E0C8
:1001700000F8012B491EFBD270470022F6E710B5AC
:1001800013460A4604461946FFF7F0FF204610BD05
:100190002DE9FE4F804681EA0300C00F0C46009017
:1001A00021F0004123F00045B8EB0200A94105D23F
:1001B0004046214690461C460B46024623F000402E
:1001C000104347D0270DC7F30A00C3F30A5102902A
:1001D000401A019040286BDAC3F3130040F4801BEF
:1001E0000098924620B10023D2EB030A63EB0B0B7D
:1001F00001985946C0F14002504600F0A7F9064662
:100200000D4650465946019A00F0AFF910EB080030
:100210006141002487EA115284EAE7731A4340D00F
:10022000009A62B3019A012A4FEA075215DC001BBB
:1002300061EB02014FF0004202EA0752CDE90042B1
:10024000001C41F5801132462B4600F0AFF903B097
:10025000BDE8F08F40462146F9E7001B61EB020143
:10026000001C41F5801300185B412018A2F500170F
:1002700047EB030140EAD570B6196D4111E06D08F6
:100280004FEA360645EAC0754FEA0752001B61EB9C
:100290000201001C41F5801149084FEA30000019A5
:1002A000514132462B4603B0BDE8F04F00F06FB924
:1002B0000098012240000023D0EB020263EBE073C0
:1002C000009821464FEAE074B8EB000061EB0401AE
:1002D000E9E783F000435BE781F0004158E72DE94F
:1002E000FE4F81EA030404F0004421F00041009431
:1002F0004FF0000B23F0004350EA01045ED052EAB5
:1003000003045BD0C3F30A54C1F30A552C44A4F28E
:10031000F3340194A0FB0254C1F3130141F48011A2
:10032000C3F3130343F4801301FB024400FB034EA9
:10033000840A970A44EA815447EA8357A4FB076872
:1003400002958D0A05FB07854FEA932C04FB0C549C
:100350002705029D4FEA065847EA1637B5EB080510
:100360006EEB070C870E920E47EA811742EA831262
:10037000A7FB0201B6EB0B0164EB00042B0D43EA73
:100380000C335E1844EB1C50DA465146E7FB020181
:10039000C5F313044FEA0B3343EA14534FEA043214
:1003A000019C43EA0603A4F10C040294009CCDE9ED
:1003B00000B400F0FBF803B0BDE8F08F0020014668
:1003C000F9E72DE9F04D81EA030404F0004B21F038
:1003D000004514464FF0000A23F0004150EA0502A0
:1003E00020D054EA01021DD0C5F30A570246C5F3D6
:1003F0001303C1F31300C1F30A5640F4801543F40C
:100400008013A7EB0608101BD64608F2FD3873EBE5
:10041000050002D308F1010801E092185B41B8F130
:10042000000F03DA00200146BDE8F08D00204FF4F4
:100430008011064684460EE0171B73EB050705D3B3
:10044000121B63EB050306434CEA010C49084FEA13
:10045000300092185B4150EA0107EDD152EA0300E7
:1004600012D082EA040083EA0501084305D0101B7C
:10047000AB4106D20122002306E000224FF00043E8
:1004800002E06FF0010253101AEB06004CEB08512A
:1004900010EB0A0041EB0B01BDE8F04D00F077B81E
:1004A0000EB5C10F80EAE0700844CA07002140F28F
:1004B00033438DE80E000A460B4600F077F803B090
:1004C00000BD0EB540F2334102910021CDE900118B
:1004D0000A460B4600F06AF803B000BD70B5C1F3E0
:1004E0000A5201F000450024C1F3130140F2FF332A
:1004F00041F480119A4201DA002070BD40F233438A
:100500009A42A2F2334203DC5242FFF70DFE00E0B2
:1005100090402C43F1D0404270BDC1F30A5210B557
:10052000C1F3130140F2FF3341F480119A4201DA22
:10053000002010BD40F233439A42A2F2334203DC62
:100540005242FFF7F1FD10BD904010BD202A04DBA0
:10055000203A00FA02F1002070479140C2F12003D6
:1005600020FA03F3194390407047202A06DBCB178B
:10057000203A41FA02F043EAE07306E041FA02F35E
:10058000D040C2F12002914008431946704710B58F
:10059000141E73F1000408DA401C41F100019218A6
:1005A0005B411A4301D120F0010010BD2DE9F04D4F
:1005B00092469B4611B1B1FA81F202E0B0FA80F2A4
:1005C00020329046FFF7C2FF04460F4640EA0A0079
:1005D00041EA0B0153465A46084313D0114653EAE9
:1005E000010019D0C8F140025046FFF79DFD0546B5
:1005F0000E46504659464246FFF7A8FF084305D02D
:10060000012004E020463946BDE8F08D0020054376
:1006100046EAE0762C4337430A986305E40AA0EBE8
:1006200008000022FD0A44EA47540A3002D500209F
:100630000146E9E7010510196941DDE9084500199E
:100640006941BDE8F04DA2E7064C074D06E0E068C1
:1006500040F0010394E8070098471034AC42F6D309
:10066000FFF748FD84520008A452000870B58D18A9
:1006700010F8014B14F0030201D110F8012B2311E3
:1006800006D110F8013B03E010F8016B01F8016B93
:10069000521EF9D1ABB110F8012B04F00C048A1AE8
:1006A0000C2C03D0A2EB84129B1C08E010F8014B29
:1006B000A2EB0422F8E712F8014B01F8014B5B1E94
:1006C000F9D5A942D4D3002070BD000010B504486C
:1006D00000F003FFBDE81040024800F0FEBE00003D
:1006E000280900205809002070B504460068816878
:1006F000C943C90716D1816821F00101816001F069
:100700001BFB054609E001F017FB401B022804D93A
:1007100020688068C043C00706D020688068C04356
:10072000C007F0D0002070BDA06A40F01000A062A9
:10073000E06A40F00100E062012070BD2DE9F04761
:10074000044614480026374601784FF0200841F04F
:1007500040010170E683B14626844FF47A7001F0BF
:10076000EDF90125B4F91A003F1AB4F91C00361A44
:10077000022001F0E3F96D1CEDB24545F2D9781184
:10078000E08370112084A4F81C90A4F81A90BDE8AE
:10079000F0870000B004002010B50146406A826A6C
:1007A00012F0500F05D0006A026BBDE810400846F9
:1007B0001047816A41F40071816201688968C1F360
:1007C000424107290CD1017B51B9816A21F4807122
:1007D0008162816AC90403D4816A41F001018162A6
:1007E00000F078FE10BD10B5406A816A41F040010A
:1007F0008162C16A41F00401C16200F06DFE10BD6A
:1008000010B5406A00F067FE10BD0000F8B5002684
:100810000446009600688168C943C9072CD08168E6
:1008200041F001018160154815490068B0FBF1F005
:1008300000E0401E00900028FBD101F07DFA054643
:1008400015E001F079FA401B022810D92068806871
:10085000C043C0070BD0A06A40F01000A062E06A5D
:1008600040F00100E06284F824600120F8BD2068B7
:100870008068C043C007E4D10020F8BD000000201C
:1008800040420F00FEE700002DE9F041B0F91A5098
:1008900004464584B0F91C004010FFF701FE0646EF
:1008A0000F462846FFF7FCFD064A074BFFF717FDEA
:1008B00032463B46FFF76CFCFFF710FEA084BDE814
:1008C000F0810000280F0BB5A679E23F00B500F0DB
:1008D000D7F90349088003490020088000BD0000C3
:1008E000A0000020AE0400200221017005218170CB
:1008F000C1700C21417032210171417181717047C9
:100900000021016041608160C16001743223438233
:1009100001228282C1820383428381831923C3839C
:1009200002840A2343848184C2844FF44062826239
:100930004FF40062C0E90B21416370470021018040
:10094000417821F00601891C4170704710B5B0F95B
:1009500026204368C168B0F9144003FB0213C16B41
:1009600001FB0343838283685943B0F9123001FBD2
:100970001231418210BD000010B5054800F0CCFFD7
:100980000122BDE810401021024801F0CFB900005B
:10099000BC0A00200008014010B5054800F0BCFF6B
:1009A0000122BDE810401021024801F0BFB900004B
:1009B000000B002000080140014800F0ADBF00001E
:1009C000180C0020014800F0A7BF00005C0C0020BC
:1009D000014800F0A1BF0000DC090020014800F040
:1009E0009BBF0000200A002030B590F84050012441
:1009F000AC40C56B6C60046863604368102B03688F
:100A000003D099600068C26030BD9A600068C16020
:100A100030BD70472DE9F0412B492C4F2C4C087804
:100A20004FF40046C20616D500223146384601F082
:100A30007DF90021274802F06BFB0421254802F0D4
:100A400067FB0821234802F063FB207820F00100B7
:100A50002070BDE8F081204DC0F3C0036A789A424F
:100A6000F7D08846000714D500211A4802F000FB91
:100A70000421184802F0FCFA0821164802F0F8FA9E
:100A800001223146384601F051F9207840F001004A
:100A900013E000223146384601F048F900210D48A4
:100AA00002F036FB04210B4802F032FB0821094812
:100AB00002F02EFB207820F00100207098F8000052
:100AC000C0F3C0006870C4E7B2040020000C01400D
:100AD000B0040020440B0020F80400202DE9F0426F
:100AE000044600F1220700F11A0690F82A900078D7
:100AF000012810D1A07EA18B000240EA11208508B8
:100B000000221021264801F011F94B4632463946A1
:100B1000244801F0F3FE607804F1180610284FF025
:100B20000201304611D804F010F900286078C0F1B5
:100B3000100005FA00F506D0684285B2A07870B1C1
:100B400005EB084025E0ADB2F8E704F0FEF8002818
:100B50006078A0F1100025FA00F5EFD0ECE7012154
:100B6000304604F0F2F820B9A5810121304604F0A6
:100B7000E8F8A089281AB0F5004F01DBC0F58030F5
:100B800010F5004F01DA00F580302169084420613A
:100B9000A58125F00701A180A060BDE8F0820000DA
:100BA00000080140640A00200B494978C1F3410163
:100BB000012907D0022909D003290BD12C2207498A
:100BC000FFF7C2BA05492C225839F9E703492C220C
:100BD0002C39F5E770470000B204002068000020BF
:100BE00010B504461748FFF779FF16484FF6FF7215
:100BF0008188606B8142A1EB000000D21044E08547
:100C000080B2B0F5803F03DBA0F57F40FF3802E003
:100C1000002800DA1044217841434FF6FE7001406D
:100C20000948CA09218630F81220A4F84020802201
:100C300002EBD111C1F3080130F81100A4F8420011
:100C400010BD0000BC040020A800002072B6FEE722
:100C500010B50446FFF7C4FF2046FFF715FE2046F7
:100C600003F07CFA204603F09BF8022807D02046C8
:100C700002F0D6FC2046BDE8104003F0EFBB10BDEB
:100C80004FF4F8711020B1FBF0F070472DE9F04FF0
:100C900052490B7803F00702012A0AD18E46190740
:100CA00007D5DFF83CC1BCF8001021B1491EACF8F3
:100CB0000010BDE8F08F4B499CF80C8004258E880D
:100CC00001244FF00009B8F1010F15D08F88444975
:100CD000DFF814A14FF4007B0A89498907F5807772
:100CE000B8F1020F2CD0B8F1030F4DD03F48017876
:100CF00041F008010170DCE7DCF804204FF4A07338
:100D00003244CCF80420ACF80030BCF80230384E45
:100D10005B1C9BB2ACF80230F678B440A342C8DD4D
:100D2000F2404263ACF8029002228CF80C20C1F829
:100D30001090ACF80890ACF80A90ACF80050B8E706
:100D400012F0FF0F09D15F4501D980F84D407308BB
:100D50002AF81130491CACF80A104FF6FF70ACF8B5
:100D60000050824202D202F1010223E0A1D14FF0F1
:100D700003008CF80C00ACF80050BCF80A00A0F19D
:100D80000100ACF80A0094E712F0FF0F0ED15F45A6
:100D900001D980F84D403AF9118008EB66067610CB
:100DA0002AF8116011B1491EACF80A10ACF80050D5
:100DB0001AB1521EACF808207BE78CF80C4023F0E7
:100DC0000F018EF800100B490A7822F002020A7017
:100DD000A0F81290A0F814906BE70000B204002075
:100DE000E8040020BC04002028070020AE040020F6
:100DF000B4040020B0040020F8B500260446009694
:100E000090F82400012808D0012084F8240020460E
:100E1000FFF76AFC070002D053E00220F8BDA06A89
:100E200020F4885040F00200A062022001F04CF94A
:100E300026490968B1FBF0F0400000E0401E009038
:100E40000028FBD12046FFF7E1FC2068816841F0D3
:100E50000801816000F070FF054608E000F06CFFBB
:100E6000401B0A2803D920688068000715D4206831
:100E700080680007F2D42068816841F00401816035
:100E800000F05AFF054612E000F056FF401B0A280A
:100E90000DD920688068400709D5A06A20F00200BB
:100EA00040F01000A06284F824600120F8BD2068A2
:100EB00080684007E8D4A06A20F0020040F00100FA
:100EC000A06284F824603846F8BD000000000020CD
:100ED000F8B50022009290F8245083681446012D42
:100EE0001CD0012580F82450D3B14D680B691F2612
:100EF0009D4226D81F055B1BC3F103030D6803EB5E
:100F000083039D40A7F580172F439E40036846F456
:100F100040169D6BB5432F439F631EE00220F8BD32
:100F20004B68012B05D0826A42F0200282620122C6
:100F300013E003689D6B0E686FF3150545EAC6352F
:100F40000AE05B1BC3F1030303EB83039E400368CA
:100F500046F440169D6BB5439D6303689D68ED4361
:100F6000ED0706D09D6847F20106B5438E6935430B
:100F70009D604B7D012B08D18B69B3F5E04F08D004
:100F8000826A42F02002826201220B7D012B06D090
:100F90000CE003685D6845F480655D60F5E74B7DB6
:100FA000A3B1826A42F02002826201220B68072606
:100FB00005680A2B10D3EF680A3B03EB43039E40FE
:100FC000B7438E689E403743EF600EE003685D686C
:100FD00045F480555D60E9E72F6903EB43039E40CC
:100FE000B7438E689E4037432F610B68102B01D0AA
:100FF000112B04D103689D6845F400059D604B6882
:10100000012B10D0022B16D0032B03681BD01D6AB6
:10101000CE686FF30B0535431D620B68102B19D09A
:10102000112B17D037E003685D69CE686FF30B05AD
:1010300035435D61F1E703689D69CE686FF30B0589
:1010400035439D61E9E7DD69CE686FF30B053543F4
:10105000DD61E2E7124D0368AB4217D19D682D02B6
:1010600019D49D6845F400059D600968102912D1C6
:101070000C490D4B0968B1FBF3F101EB810149000B
:1010800000E0491E00910029FBD104E0816A41F093
:1010900020018162012280F824401046F8BD000042
:1010A000002401400000002040420F0010B5012143
:1010B0000F4800F023F80F4CE18B081A60830121E0
:1010C0000D4800F01BF8218C081AA083FFF7A2FC42
:1010D0002046FFF7BDFD204603F06EF92046FFF7DE
:1010E000D5FD03480068416841F08001416010BDB2
:1010F00028090020D806002058090020006802298D
:1011000009D0032905D0042901D0C06B7047806C39
:101110007047406C7047006C7047000070B5044623
:1011200090F8240001280DD0012084F824002046E6
:10113000FFF76CFB01004FF0000205D084F824207B
:10114000084670BD022070BDA06A42F201039843B8
:1011500040F48050A062194B2068194D98421AD172
:101160002E6816F4702F16D0A66A46F48016A66272
:10117000A66AF60500D4E26284F824206FF0040227
:101180000260206842685205DAD48268C2F30232F3
:10119000072A04D009E0A66A26F48016E7E79842F9
:1011A00008D12A6812F4702F04D0826842F40042F9
:1011B0008260C5E7826842F40212F9E70028014024
:1011C0000424014070B5044690F8240001280DD095
:1011D000012084F824002046FFF718FB01004FF09F
:1011E000000205D084F82420084670BD022070BD9E
:1011F000A06A42F20103984340F48050A0621C4B65
:1012000020681C4D98421FD12E6816F4702F1BD0F9
:10121000A66A46F48016A662A66AF60500D4E262C3
:1012200084F824206FF0040202602068426842F0D3
:1012300080024260206842685205D5D48268C2F3B9
:101240000232072A04D009E0A66A26F48016E2E7F3
:10125000984208D12A6812F4702F04D0826842F4B0
:1012600000428260C0E7826842F40212F9E700009F
:10127000002801400424014070B58CB00E4604469D
:10128000002530216846FEF778FF94F824000128F5
:1012900018D0012084F8240011480090206881684B
:1012A000C943C90711D000998968C943C9070CD03F
:1012B0000C49884209D14168326821F470211143F8
:1012C000416007E002200CB070BDA06A40F0200031
:1012D000A0620125002084F824002846F3E70000DE
:1012E00000280140002401402DE9F0418CB08846DF
:1012F0000446164630216846FEF73FFF94F8240066
:10130000012814D0012084F824002E480090806821
:101310000027C0F3424007280BD0A06A40F020000D
:10132000A06284F8247001200CB0BDE8F081022096
:10133000FAE72046FFF76AFA050004D16846FFF78E
:1013400065FA050003D084F824702846ECE7A06A0B
:101350001D49084040F48070A06220684068400544
:1013600005D5A06A20F4005040F48050A06284F8B3
:101370002470E762216A15488862216A1448C862AD
:10138000216A1448086321686FF002000860206831
:10139000816841F4807181602168334642464C3156
:1013A000206A00F093FB20688168C1F3424107295D
:1013B000816803D041F480118160C6E741F4A00147
:1013C000FAE7000000280140FEFDEFFF9907000842
:1013D00001080008E7070008F8B50023009390F81B
:1013E00024201C46012A12D0012280F824204A68B9
:1013F0001F26072A0DD205686F6B521E02EB820270
:101400009640B7430E68964037436F6319E0022059
:10141000F8BD05680D2A0AD22F6BD21F02EB82029B
:101420009640B7430E68964037432F6309E0EF6A52
:101430000D3A02EB82029640B7430E68964037435E
:10144000EF620A68072605680A2A0AD3EF680A3A93
:1014500002EB42029640B7438E6896403743EF60F6
:1014600008E02F6902EB42029640B7438E6896402F
:1014700037432F610A68102A01D0112A20D1124D5A
:101480000268AA4217D195682D0219D4956845F4CF
:10149000000595600968102912D10C490C4A0968A9
:1014A000B1FBF2F101EB8101490000E0491E00911E
:1014B0000029FBD104E0816A41F02001816201230F
:1014C00080F824401846F8BD0024014000000020A8
:1014D00040420F0070477047704710B504460068DF
:1014E0004168890626D50168890723D5A16AC906FE
:1014F00003D4A16A41F40071A1628168C1F3424141
:10150000072910D1217B71B9416821F02001416088
:10151000A06A20F48070A062A06AC00403D4A06A0C
:1015200040F00100A0622046FFF7D4FF21686FF071
:10153000120008602068416809062ED50168490735
:101540002BD5A16AC90603D4A16A41F40051A16256
:101550008168C1F30231072909D04168490515D4D2
:101560008168C1F34241072910D1217B71B94168DB
:1015700021F080014160A06A20F48050A062A06A3E
:10158000C00503D4A06A40F00100A0622046FFF726
:101590008DFD21686FF00C000860206841684906E5
:1015A0000DD50068C0070AD0A06A40F48030A06260
:1015B000204600F093F821686FF00100086010BD2C
:1015C0002DE9F0414FF00006040035467DD0A06AB9
:1015D000002728B9E76284F82470204600F080F8DC
:1015E0002046FFF781F8A16AC90600D420B1A06A9D
:1015F00040F01000A06268E0A16A21F4885141F037
:101600000201A1626268E169237B0A4346EA430161
:101610000A43A1684FF48076B14208D0012906D070
:10162000002194F814C0BCF1010F02D00AE0314649
:10163000F7E7F3B1A36A43F02003A362E36A43F040
:101640000103E3622368D3F804C02CF4694C4CEA2C
:10165000010CC3F804C021688B68DFF874C003EA8A
:101660000C0313438B60A168B1420BD0012909D050
:101670000CE0DFF860C0A3690CEB43330B4343F489
:101680000061DFE7218A0D05A5F580152168CB6A89
:1016900023F470032B43CB62216889680E4B1940F9
:1016A000914208D1E762A16A21F0020141F00101F3
:1016B000A162BDE8F081A06A20F0020040F01000B5
:1016C000A062E06A40F00100E0620120F1E7000062
:1016D000FDF7E1FF00E0FFFFFE0E1FFF7047000077
:1016E00010B586B0002100910191029103911E4C2A
:1016F00002681E4903231E48A24213D18A6942F49C
:1017000000728A618A6902F4007204928A6942F066
:1017100008028A61896901F0080104910121CDE97B
:10172000001314E0134CA2421CD18A6942F4806277
:101730008A618A6902F4806204928A6942F008022E
:101740008A618969009301F0080101930491694657
:1017500000F006FA00220121122000F083FC122082
:1017600000F072FC06B010BD0024014000100240E1
:10177000000C01400028014070B5044690F8240098
:1017800001280DD0012084F824002046FFF73EF800
:1017900001004FF0000205D084F82420084670BDF7
:1017A000022070BDA06A40F20123984340F480708B
:1017B000A0621F4D20681F4BA84218D11E6816F466
:1017C000702F14D0A66A46F48016A6621E687605AD
:1017D00005D5A66A26F4005646F48056A662A66A87
:1017E000F6040AD5E66A26F00606E66206E0A66A70
:1017F00026F48016A6624668E9E7E26284F82420AF
:101800006FF00202026020688268C2F34242072A37
:1018100005D1A84208D11A6812F4702F04D082684A
:1018200042F480128260B9E7826842F4A002F9E7CC
:10183000002801400424014010B590F82110002236
:10184000022905D00421816380F82020012010BDE9
:1018500001680B6823F00E030B6001680B6823F02E
:1018600001030B6090F84030012404FA03F1C36BCC
:10187000596080F8214080F82020104610BD0000FB
:1018800010B590F821100024022903D004218163AF
:1018900001243DE001680A6822F00E020A60016836
:1018A0000A6822F001020A601A4A0168914201D1D5
:1018B000012121E0174A1432914201D110211BE08D
:1018C000144A2832914201D1891515E0114A3C325F
:1018D000914201D189140FE00E4A5032914202D157
:1018E0004FF4803108E00B4A6432914202D14FF448
:1018F000801101E04FF08071064A083A51600121E1
:1019000080F82110002180F82010416B01B1884738
:10191000204610BD080002402DE9F05FC16B0B6846
:1019200001680A68046C4FF0040C0CFA04FC4A4D80
:10193000DFF828A14A4E4B4FDFF82CB1DFF82CE13D
:101940001CEA030F2DD05FEA427C2AD50A68920672
:1019500003D40A6822F004020A600168A94201D196
:10196000042119E0514501D1402115E0B14202D1D5
:101970004FF4806110E0B94202D14FF480410BE096
:10198000594502D14FF4802106E0714502D14FF450
:10199000800101E04FF080612F4A083A5160C16A2E
:1019A0003BE04FF0020808FA04F818EA030F4FF082
:1019B00000094FF0010C35D05FEA827832D50A6811
:1019C000920605D40A6822F00A020A6080F821C053
:1019D0000168A94201D1022119E0514501D120211C
:1019E00015E0B14202D14FF4007110E0B94202D1CA
:1019F0004FF400510BE0594502D14FF4003106E09D
:101A0000714502D14FF4001101E04FF00071124A0C
:101A1000083A516080F82090816A00291AD0BDE808
:101A2000F05F08470825A5401D4213D0120711D5C5
:101A30000A6822F00E020A6090F84010C26B0CFA9D
:101A400001F15160C0F838C080F821C080F82090C2
:101A5000016BE2E7BDE8F09F080002401C00024075
:101A60003000024044000240580002406C00024036
:101A700030B528B302C8134A14230A44B2FBF3F268
:101A80009200C263104A8263022242770B6843F6D7
:101A9000F0729343D0E900242243D0E902452C435D
:101AA00022430469224344692243846922431A433E
:101AB0000A6000214163012242770177084630BD68
:101AC000012030BDF8FFFDBF0000024070B50446A4
:101AD00090F82000002501280CD0012084F8200077
:101AE00094F821600020012E06D084F82000022501
:101AF000284670BD022070BD022684F82160A063D4
:101B00002068066826F0010606602046FEF76CFF96
:101B1000E06A00282068016802D041F00E0106E06A
:101B200021F0040101602068016841F00A010160B0
:101B30002068016841F001010160D9E770B50446F1
:101B400000F0FAF80546601C02D00448007804440E
:101B500000F0F2F8401BA042FAD370BD0400002050
:101B60002DE9F84FDFF8A491002409F1040A0AF1E5
:101B7000040B23464FF00F080BF1040EBEE00127C3
:101B8000A7403A40BA4272D1DFF884C14D68A5EB54
:101B90000C0665452BD00DDC032D34D005DC35B3A8
:101BA000012D19D0022D2FD11BE0112D16D0122D91
:101BB0002AD119E0B6F5881F19D006DCB6F5803FAA
:101BC00015D0B6F5801F1FD111E0B6F5001F0ED05D
:101BD000B6F5041F18D10AE0CB6815E0CB681B1DD1
:101BE00012E0CB6808330FE0CB680C330CE08B6855
:101BF0002BB1012B4FF0080303D0476104E004230D
:101C000002E0076100E00023FF2A01D8064601E058
:101C100000F104064FEA840501D9A5F120053768D3
:101C200008FA05FC27EA0C0703FA05F547EA050759
:101C300037604D68ED0060D5364DAE6946F001065F
:101C4000AE61AD6924F0030605F001050095324D43
:101C50007719BE68A5072D0F08FA05FC26EA0C06C1
:101C6000DFF8B8C0604503D14FF0000C17E044E046
:101C7000DFF8ACC0604502D14FF0010C0FE0DFF897
:101C8000A4C0604502D14FF0020C08E0DFF898C014
:101C9000604502D14FF0030C01E04FF0040C0CFA48
:101CA00005FC4CEA060CC7F808C04D68D9F800607E
:101CB000ED034D4601D5164300E096432E604D6876
:101CC000DAF80060AD03554601D5164300E09643AF
:101CD0002E604D68DBF80060ED025D4601D51643CD
:101CE00000E096432E604D68DEF80060AD02754658
:101CF00001D5164300E096432E60641C0A6832FA50
:101D000004F57FF43CAFBDE8F88F0000000401400B
:101D100000001110001002400000014000080140C6
:101D2000000C014000100140001401400AB10161A3
:101D300070470904FBE70000014880687047000015
:101D40000400002070B5040025D094F83D00002563
:101D500020B984F83C50204600F0B8F8242084F8DC
:101D60003D002068016821F00101016020680168E0
:101D700041F4004101602068016821F400410160E4
:101D800000F014FB4D4B6168994201D84C4900E0CA
:101D90004C49884201D2012070BD4B492268B0FBFA
:101DA000F1F1566826F03F060E43566062689A428B
:101DB00006D94FF4967251434FF47A72B1FBF2F1A7
:101DC0002268491C166A26F03F0631431162616899
:101DD000994210D84900401EB0FBF1F2521CC2F3E8
:101DE0000B02042A01D2042022E0B0FBF1F0401CD7
:101DF000C0F30B001CE0A268F2B301EBC10303EBDC
:101E00000116431EB3FBF6F35B1C43F480431B0532
:101E100049D092B301EBC10202EB0111401EB0FBAD
:101E2000F1F0401CC0F30B0040F4804040F400404F
:101E30002168CA694CF6FF739A431043C861D4E91C
:101E4000071001432068026822F0C00211430160BC
:101E5000D4E9030101432068826848F2FF339A43C2
:101E600011438160D4E9051001432068C26822F063
:101E7000FF021143C16001E00EE016E02068016836
:101E800041F0010101602564202084F83D002563B4
:101E900084F83E50002070BD01EB4106431EB3FBA9
:101EA000F6F35B1CB3E70120C2E701EB4101401EE2
:101EB000B0FBF1F0401CC0F30B00B7E7A0860100B7
:101EC00080841E0000093D0040420F00F0B585B03F
:101ED0000025044600950195029503950068284960
:101EE00088424AD1274EB06940F00800B061B0691D
:101EF000694600F0080004904FF4407000901220F2
:101F00000190032003902048FFF72AFE1F494868EC
:101F100040F0E06040F002004860F06940F40010DA
:101F2000F061F0691B4E00F40010049018488027FF
:101F300001C61020A1C6174846F810597561B56151
:101F4000F561FFF795FD08B1FEF780FE66637462E8
:101F5000104E0F4844361430C6E90005C6E9025752
:101F6000356180147561C6E906503046FFF780FD83
:101F700008B1FEF76BFEA663746205B0F0BD000009
:101F80000054004000100240000C014000000140DD
:101F90006C000240DC09002002488168027811448C
:101FA0008160704704000020074810B5016841F0C7
:101FB00010010160032000F075F8002000F006F821
:101FC00000F024F8002010BD0020024070B50D4D37
:101FD00004464FF47A712878B1FBF0F00A49096899
:101FE000B1FBF0F000F01EFD48B9102C07D2002222
:101FF0002146501E00F036F800206C6070BD0120B4
:1020000070BD000004000020000000200C4808B54E
:10201000816941F001018161816901F00101009153
:10202000C16941F08051C161C069064900F080502A
:102030000090486820F0E06040F00070486008BD03
:102040000010024000000140002809DB00F01F02E0
:10205000012191404009800000F1E020C0F800110A
:1020600070470000F0B40E4B1B68C3F30223C3F1AA
:102070000704042C00D904241D1D072D01D20023C0
:1020800000E0DB1E012606FA04F56D1E0D409D40A2
:102090009E40761E164045EA0601F0BC02F060BE86
:1020A0000CED00E0064A00F0070110684FF6FF0350
:1020B000184040EA012003490843106070470000BF
:1020C0000CED00E00000FA0510B5014627A086B02F
:1020D0001DC88DE81D0029A0294C0068049000202F
:1020E000012922D0022939D010291CD16168226827
:1020F000D20118D5C1F38342C9031DF8020009D5E6
:10210000616804AAC1F34041515C1E4AB2FBF1F17F
:10211000484301E01C4948436168490203D4400038
:102120000321B0FBF1F006B010BD216AC1F301221A
:10213000012A03D1890701D5D003F4E7022A05D18A
:10214000616A890702D549F64040ECE7032AEAD1E3
:1021500021688903E7D54FF22440E4E700F036F91F
:102160006168C1F38131491C4900DAE702030405C3
:10217000060708090A0B0C0D0E0F101001020000D3
:102180000010024000127A0000093D002DE9F843DA
:1021900004460078344FC00752D0F8690025C000CB
:1021A00008D4F86940F08050F861F869012500F022
:1021B000805000902D480168C90511D401688046FF
:1021C00041F480710160FFF7B7FD064604E0FFF7B8
:1021D000B3FD801B642822D8D8F80000C005F6D5CE
:1021E000386A10F4407020D0A18801F44071814217
:1021F0001BD0386A1E49012220F440700A60002278
:102200000A603862C00710D0FFF796FD064641F21B
:10221000883807E0FFF790FD811B414502D9032074
:10222000BDE8F883386A8007F4D5386A616820F41D
:102230004070084338621DB1F86920F08050F861A1
:102240002078800705D57868A16820F440400843CD
:1022500078602078C00605D57868E16820F48000B1
:10226000084378600020DBE7001002400070004067
:10227000400442422DE9F0470D46040067D0DFF8E4
:102280001881D8F8000000F00700A8420CD2D8F856
:10229000001021F007012943C8F80010D8F8000009
:1022A00000F00700A84252D120683C4E810712D5A9
:1022B000400703D5706840F4E06070602078000744
:1022C00003D5706840F4605070607068A16820F0B9
:1022D000F000084370602078C00727D060680128AC
:1022E00010D03168022810D0890700292FDA7168D0
:1022F00021F0030101437160FFF71EFD074641F223
:1023000088390CE031688903EFE78901EDE7FFF7D1
:1023100013FDC11B494502D90320BDE8F087706851
:10232000616800F00C00B0EB810FF0D1D8F800101C
:10233000404601F00701A9420BD9016821F00701CD
:1023400029430160006800F00700A84201D0012085
:10235000E3E72078400705D57068E16820F4E06085
:10236000084370602078000706D57068216920F462
:10237000605040EAC100706000F038F87168084AA7
:10238000C1F30311515CC840064908600648006863
:10239000FFF71CFE0020C0E70020024000100240B2
:1023A0007C4E000800000020080000200448054979
:1023B00000684968044AC1F30221515CC840704773
:1023C00000000020001002408C4E0008044805491F
:1023D00000684968044AC1F3C221515CC840704793
:1023E00000000020001002408C4E000812A085B0B2
:1023F0000FC88DE80F0014A0144B006804905968B2
:10240000134801F00C02042A10D0082A0ED1C1F39F
:102410008342C9031DF802000AD5596804AAC1F312
:102420004041515C0A4A5043B0FBF1F005B070479F
:1024300008494843FAE700000203040506070809B3
:102440000A0B0C0D0E0F10100102000000100240CC
:1024500000127A0000093D002DE9F84F04006FD00A
:102460002078BE4DC00747D06868C0F381000128BE
:1024700007D06868C0F38100022809D16868C003EA
:1024800006D52868800337D560680028E7D033E098
:102490006068B0F5803F0BD010B1B0F5A02F11D01F
:1024A000286820F480302860286820F4802002E02A
:1024B000286840F480302860606888B1FFF73CFCF1
:1024C000064609E0286840F480202860F0E7FFF71E
:1024D00033FC801B642873D828688003F7D50BE091
:1024E000FFF72AFC064604E0FFF726FC801B642861
:1024F000F1D828688003F7D42078DFF86482800759
:102500004FF0010A4FF0000939D5686810F00C0F40
:1025100007D06868C0F38100022809D16868C00349
:1025200006D42868800714D52069012808D110E056
:102530002069B0B1C8F800A0FFF7FEFB064605E031
:1025400007E1FFF7F9FB801B0228C4D82868800741
:10255000F7D52868616920F0F80040EAC1002860DA
:102560000DE0C8F80090FFF7E7FB064604E0FFF730
:10257000E3FB801B022823D828688007F7D4207843
:1025800000072CD57748A169D9B1C0F800A0FFF7A2
:10259000D3FB064604E0FFF7CFFB801B02280FD8D1
:1025A000686A8007F7D570484FF4FA510068B0FBAD
:1025B000F1F0009000BF0098411E0091FAD20EE0A9
:1025C0007CE0C0F80090FFF7B7FB064604E0FFF799
:1025D000B3FB801B022871D8686A8007F7D4207883
:1025E00040075BD5E8690027C00008D4E86940F0DF
:1025F0008050E861E869012700F0805000905B4856
:102600000168C90511D40168834641F480710160F5
:10261000FFF792FB064604E0FFF78EFB801B642861
:102620004CD8DBF80000C005F6D5E06801280AD0D8
:1026300008B1052813D0286A20F001002862286A12
:1026400020F0040002E0286A40F001002862E068FF
:1026500041F2883B88B1FFF76FFB064609E0286A24
:1026600040F004002862EEE7FFF766FB811B594546
:102670005BD8286A8007F7D50BE0FFF75DFB0646BD
:1026800004E0FFF759FB811B59454ED8286A8007A3
:10269000F7D41FB1E86920F08050E861E069A8B381
:1026A0006968C1F38101022946D00228484606D054
:1026B000C8F86000FFF740FB044639E035E04746C4
:1026C000C8F86000FFF738FB064604E0FFF734FB6C
:1026D000801B022829D828688001F7D4206AB0F529
:1026E000803F05D16868A16820F400300843686025
:1026F000D4E908010843696821F47411084368604B
:10270000C7F860A0FFF718FB044605E023E0FFF7D9
:1027100013FB001B022808D828688001F7D51AE0AF
:10272000FFF70AFB001B022802D90320BDE8F88F3F
:1027300028688001F4D40EE00128F7D06868226A86
:1027400000F48031914204D1616A00F47010884233
:1027500001D00120EAE70020E8E700000010024075
:10276000000042428004424200000020007000400D
:10277000704770B5040009D0606A002540B125613A
:102780006561A56294F8510040B10CE0012070BD74
:102790006068B0F5827FF4D0E561F2E784F85050CC
:1027A000204600F03FF8022084F8510020680168BC
:1027B00021F040010160A088218900F4827001F4B9
:1027C00004410843A18901F400610843217C01F020
:1027D00002010843217D01F001010843218B01F42E
:1027E00000710843217F01F03801084394F820105C
:1027F00001F080010843218D01F400510843216854
:102800000860A069042101EA10402168486020683E
:10281000C16921F40061C1616565012084F851003E
:10282000002070BD2DE9F04786B0002504460095D4
:1028300001950295039500682A4988424ED12A489D
:10284000816941F480518161816901F48051049171
:10285000816941F0040181618069244E00F0040027
:102860000490A0200090022001900320039069466C
:102870003046FFF775F94020CDE90005694630463E
:102880000295FFF76DF91B4E19484FF08008E6E8F6
:1028900002054FF480794FF4806AA6E820074FF4D0
:1028A000405766E806571348FFF7E2F808B1FEF70D
:1028B000CDF9E66474620F4E0D484436143001C6FB
:1028C0001020A6E821070B4866E806574430FFF7BA
:1028D000CFF808B1FEF7BAF9A664746206B0BDE895
:1028E000F087000000300140001002400008014065
:1028F0001C000240BC0A0020704770472DE9F041DF
:10290000044690F85000002501280DD0012684F8D7
:10291000506094F851000027D4F804C001280FD06B
:10292000BCF5827F0AD102E00220BDE8F081D4F834
:1029300008C0BCF1000F01D1042801D0022560E0DD
:1029400049B342B33BB394F85100042802D00520A8
:1029500084F8510067652163A386E386A263A38799
:10296000E3872764676494F85100042815D0E16C6C
:102970002648C8622648E16C8862E16C25480863F5
:10298000E06C4763E38F2168A26B0C31E06CFFF7CA
:102990009DF8E0B906E0012533E0E16C1E48C8620D
:1029A0001E48E8E72068416841F001014160A06CE1
:1029B000C762A06C8762A06C0763A06C4763E38E5C
:1029C0002268216B0C32A06CFFF780F838B1606D83
:1029D00040F010006065012584F8516011E0206826
:1029E0000168490603D4016841F040010160206894
:1029F000416841F0200141602068416841F00201D6
:102A0000416084F8507028468FE70000B541000807
:102A10002942000889410008AB410008BF41000875
:102A20007047704710B5401EB0F1807F01D3012080
:102A300010BD4FF0E02460610F21601702F090F9A3
:102A40000020A06107202061002010BD7047704762
:102A500010B590F83C20012A22D0012280F83C20B9
:102A6000CA688C6822F4407222434C6822F4806267
:102A700022430C6822F4006222430C6922F4805243
:102A800022434C6922F400522243C969002322F4F4
:102A900080420A4301684A6480F83C30002010BD3F
:102AA000022010BD70B590F83C20012A26D00125E7
:102AB00080F83C50022280F83D20026853689468F8
:102AC00023F070060B68334353600D4B02689A4243
:102AD00008D0B2F1804F05D00A4B9A4202D00A4B7F
:102AE0009A4204D1496824F080031943916080F828
:102AF0003D50002180F83C10084670BD022070BD9A
:102B0000002C0140000400400008004010B5040003
:102B100003D094F83D0010B107E0012010BD002063
:102B200084F83C00204600F01FF8022084F83D00A5
:102B3000211D206801F034FE012084F8460084F84D
:102B40003E0084F83F0084F8400084F8410084F897
:102B5000420084F8430084F8440084F8450084F877
:102B60003D00002010BD000008B50068104A114962
:102B7000904208D1886940F400608861886900F457
:102B80000060009008BDB0F1804FFBD1C86940F0F3
:102B90000100C861C869002200F0010000900D2109
:102BA0001C20FFF75FFABDE808401C20FFF74CBA75
:102BB000002C01400010024090F83D10012901D086
:102BC00001207047022180F83D100168CA6842F078
:102BD0000102CA6000680B49884208D0B0F1804FFA
:102BE00005D00949884202D00849884204D1816849
:102BF00001F00701062903D0016841F001010160DD
:102C000000207047002C01400004004000080040F4
:102C100070B5044690F83C00012817D0012584F8CF
:102C20003C50022084F83D002068826822F0770240
:102C300022F47F4282600868502830D00DDC2028C2
:102C40004DD005DC98B310283BD148E0022070BD80
:102C5000302844D0402834D139E0602828D070286A
:102C600006D0B0F5805F2CD0B0F5005F29D10AE026
:102C7000CB68D1E90121206801F0D5FD2068816889
:102C800041F0770109E0CB68D1E90121206801F02A
:102C9000CAFD2068816841F48041816011E0CA6802
:102CA0004968206801F07AFE5021206807E016E0AC
:102CB000CA684968206801F082FE6021206801F03E
:102CC000BCFD84F83D50002084F83C0070BDCA680B
:102CD0004968206801F062FE40212068EFE7226821
:102CE00001461046EBE7704770B50446006801697D
:102CF0004FF00005C943890715D4C168C943890746
:102D000011D4E91E016101202077206880698007C5
:102D1000204602D0FFF7E7FF04E000F0E7F8204686
:102D200000F0A4F9257720680169C943490717D441
:102D3000C168C943490713D46FF00401016102203F
:102D400020772068806910F4407F204602D0FFF78A
:102D5000CAFF04E000F0CAF8204600F087F92577A2
:102D600020680169C943090716D4C168C943090726
:102D700012D46FF008010161042020772068C06937
:102D80008007204602D0FFF7AEFF04E000F0AEF867
:102D9000204600F06BF9257720680169C943C90610
:102DA00017D4C168C943C90613D46FF0100101617B
:102DB000082020772068C06910F4407F204602D0A8
:102DC000FFF791FF04E000F091F8204600F04EF983
:102DD000257720680169C943C90708D1C168C9437B
:102DE000C90704D1891E0161204600F0C9F9206895
:102DF0000169C943090609D4C168C943090605D454
:102E00006FF0800101612046FFF720FE2068016914
:102E1000C943490609D4C168C943490605D46FF0BE
:102E200040010161204600F0B3F920680169C943FF
:102E300089060BD4C168C943890607D46FF0200105
:102E400001612046BDE87040FFF701BE70BD000083
:102E500000B585B0002100910191029103910068B5
:102E60000C49884213D10C48816941F00401816109
:102E70008069694600F0040004904FF4E06000901F
:102E800002200190032003900448FEF769FE05B07C
:102E900000BD0000002C014000100240000801406D
:102EA00010B5044690F83C0001280AD0012084F8AF
:102EB0003C0042B1042A0AD0082A0CD00C2A11D1B5
:102EC0000DE0022010BD206801F0C0FC0AE020687F
:102ED00001F0E8FC06E0206801F012FD02E0206845
:102EE00001F03AFD002084F83C0010BD704710B599
:102EF000040003D094F83D0010B107E0012010BD9C
:102F0000002084F83C00204600F01EF8022084F8DF
:102F10003D00211D206801F043FC012084F846009B
:102F200084F83E0084F83F0084F8400084F84100B3
:102F300084F8420084F8430084F8440084F8450093
:102F400084F83D00002010BD704770B5044690F82D
:102F50003C000D4601280AD0012084F83C0042B113
:102F6000042A18D0082A2AD00C2A4DD139E0022090
:102F700070BD206801F06AFC2068816941F0080199
:102F800081612068816921F0040181612068816983
:102F90002A69114311E0206801F084FC20688169EE
:102FA00041F4006181612068816921F4806181615F
:102FB000206881692A6941EA0221816124E0206850
:102FC00001F09EFC2068C16941F00801C1612068E0
:102FD000C16921F00401C1612068C1692A691143F6
:102FE00011E0206801F0B8FC2068C16941F400617B
:102FF000C1612068C16921F48061C1612068C16933
:103000002A6941EA0221C161002084F83C0070BDB8
:1030100010B5040003D094F83D0010B107E0012082
:1030200010BD002084F83C00204600F01EF802206D
:1030300084F83D00211D206801F0B2FB012084F8D6
:10304000460084F83E0084F83F0084F8400084F88D
:10305000410084F8420084F8430084F8440084F876
:10306000450084F83D00002010BD70477047000007
:1030700010B5044649B104290AD008290BD094F8A8
:10308000410001280AD0012010BD94F83E00F8E765
:1030900094F83F00F5E794F84000F2E7022041B3CE
:1030A000042929D008292AD084F841000122206867
:1030B00001F0ACFB13492068884203D1426C42F412
:1030C000004242642068884208D0B0F1804F05D0A9
:1030D0000D49884202D00D49884204D1816801F02F
:1030E0000701062903D0016841F0010101600020B9
:1030F00010BD84F83E00D9E784F83F00D6E784F895
:103100004000D3E7002C01400004004000080040CC
:1031100030B504460D460068002201F077FB174ADF
:1031200041F2111120688B10904209D1026A0A42C3
:1031300006D1026A1A4203D1426C22F40042426470
:103140002068026A0A4206D1016A194203D1016865
:1031500021F00101016001203DB1042D08D0082DAE
:1031600009D084F84100002030BD84F83E00FAE721
:1031700084F83F00F7E784F84000F4E7002C0140B2
:103180000249884201D100F049BA70478C0B0020F7
:103190007047704710B504460068416994F83D20B7
:1031A000C1F3C011212A0BD151B1416921F0800135
:1031B0004161606B08B1FEF73FFB204601F0ACFCBB
:1031C0002068416994F83E20C1F38011222A0BD176
:1031D00051B1416921F040014161A06B08B1FEF796
:1031E0002BFB204601F080FC002010BD7047000042
:1031F000F8B5026804461068D168536910F00F0FE3
:103200004FF0000553D003F0010601F490773743E7
:103210005FD0C20705D0CA0503D5226C42F0010277
:103220002264420705D5DA0703D0226C42F002027D
:103230002264820705D5DA0703D0226C42F004022B
:103240002264020707D501F02002324303D0226C2A
:1032500042F008022264226C002A34D0800604D591
:10326000880602D5204601F060FC20684069216C88
:10327000C0F38010090700D430B3204601F034FCBD
:103280002068416949061BD5416921F0400141612F
:10329000A06BA8B158494163A06BFEF7F1FA002872
:1032A00011D0A06B416B01B0BDE8F0400847830628
:1032B0000FD58B060DD52046BDE8F84001F035BC92
:1032C0002046FFF793FFF8BD2046FFF78FFF2564E8
:1032D000F8BD266B2023012E52D1C60650D5CE064E
:1032E0004ED5106850680090506940062AD5A16BF1
:1032F000086840680004000CEAD0A68D8642E7D931
:10330000E0858869202818D0D06820F48070D060CB
:103310002068416921F0010141612068416921F083
:103320004001416184F83E3025632068C16821F086
:103330001001C160A06BFEF77FFAA08DE18D401AED
:1033400081B219E0A08DE18D401A81B2E08D002894
:10335000BED00029BCD0D06820F49070D060206826
:10336000426922F00102426184F83E302563206800
:10337000C26822F01002C2602046FFF70AFFF8BDC3
:1033800005062BD50D0629D594F83D002128F6D148
:10339000A068B0F5805F01D12069B0B1206A411CFE
:1033A0002162216800784860E08C401E0004000C17
:1033B000E084E4D12068C16821F08001C160206808
:1033C000C16841F04001C160F8BD206A0088C0F3C7
:1033D00008005060206A801C2062E5E74006F3D5B3
:1033E0004806F1D5D168204621F04001D16084F82B
:1033F0003D3000F001F9F8BDE349000870B5040064
:1034000004D094F83D00002510B106E0012070BD05
:1034100084F83C50204600F023F8242084F83D0036
:103420002068C16821F40051C160204601F0D8FB3A
:103430002068016921F4904101612068416921F00F
:103440002A0141612068C16841F40051C1602564CE
:10345000202084F83D0084F83E00002070BD00006C
:10346000F0B585B0002504460095019502950395B9
:1034700000682F49884259D12E48816941F4804122
:103480008161816901F480410491816941F0080101
:1034900081618069284E00F008000490402000906F
:1034A000022001900320039069463046FEF758FB46
:1034B0008027CDE90075694630460295FEF750FB3E
:1034C0001E49486840F0E06040F0040048601D4E2E
:1034D0001B4801C61020A1C61A4846F8105975614C
:1034E000B561F561FEF7C4FA08B1FDF7AFFB66639D
:1034F0007462144E124844361430C6E90005C6E919
:103500000257356180147561C6E906503046FEF7F2
:10351000AFFA08B1FDF79AFBA66300220C21252023
:103520007462FEF79FFD2520FEF78EFD05B0F0BD0D
:103530000038014000100240000C01400000014032
:1035400044000240180C002090F83E30202B0ED191
:1035500059B152B190F83C30012B08D0012380F8CA
:103560003C300023036301F097BB01207047022029
:103570007047704770470000F7B5044690F83D006B
:10358000202831D1019969B362B394F83C00012835
:103590002AD0012084F83C002162A284E284002524
:1035A0002564212084F83D00636B10489862636BAA
:1035B0000F48D862636B0F481863606B134645630E
:1035C0002668606B321DFEF781FA21686FF04000BB
:1035D000086084F83C502068416941F080014161F5
:1035E0000020FEBD0120FEBD0220FEBDB14A000844
:1035F000DF4A0008F349000870477047FEE7000003
:10360000054840F6C90181850B2101700C2101821A
:103610001221A0F84A107047D806002000F038BDEB
:1036200030B530F9121FB0F93040B0F92E3001FB3F
:1036300004F5B0F90220594302FB13552D1302FB88
:10364000041185800913C18030BD704770B58CB0FE
:1036500000241C2168460A94FCF78FFD1F4807943C
:10366000089409941C498460016004730475012561
:1036700005614FF460214460C161FDF7A1FF08B10D
:10368000FDF7E4FA4FF4A0200A900AA91348FDF7C9
:10369000F3FD08B1FDF7DAFA0826CDE900657002FE
:1036A00006908DF81540049502958DF814406946F2
:1036B0000A480394FDF70CFC08B1FDF7C7FACDE901
:1036C000085407A905480796FDF786FE002801D093
:1036D000FDF7BCFA0CB070BD0024014028090020A1
:1036E00070B58AB01C216846FCF747FD00241A48D3
:1036F0000794089409941749846001600473047561
:10370000012505614FF460214460C161FDF758FF58
:1037100008B1FDF79BFA0926CDE900658DF8154043
:10372000049502958DF8144069460B480394FDF703
:10373000CFFB08B1FDF78AFACDE9085407A906487E
:103740000796FDF749FE002801D0FDF77FFA0AB081
:1037500070BD000000280140580900201D4808B530
:10376000416941F0010141614069002200F001001E
:10377000009011460C20FEF775FC0C20FEF764FC4F
:10378000002211460D20FEF76DFC0D20FEF75CFCBB
:1037900000220B210E20FEF765FC0E20FEF754FCE4
:1037A00000220B210F20FEF75DFC0F20FEF74CFCE2
:1037B00000220B211020FEF755FC1020FEF744FCE0
:1037C00000220B211120FEF74DFCBDE8084011201E
:1037D000FEF73ABC001002402DE9F04186B000250A
:1037E0003A480095019502950395816941F02001C1
:1037F0008161816901F020010491816941F0040136
:103800008161816901F004010491816941F008013D
:10381000816180692E4F00F008000490002241F27F
:103820000A013846FEF782FA012210213846FEF7D7
:103830007DFADFF8A08000224FF470414046FEF789
:1038400075FA0A2001248DE83100032003906946AF
:103850003846FEF785F948F20400CDE900056946CF
:1038600038460295FEF77CF91020CDE90004029459
:10387000694638460394FEF773F94FF4E040CDE90A
:1038800000040226CDE9024669464046FEF768F983
:10389000E003CDE900040294694640460394FEF734
:1038A0005FF92003CDE90004CDE9024669463846B8
:1038B000FEF756F93820CDE90005694640460295E5
:1038C000FEF74EF906B0BDE8F0810000001002409E
:1038D00000080140000C01400D4810B50B49016083
:1038E0000C49416000214FF480428160C0E903121D
:1038F00041618161C1610162FEF724FA002803D0B1
:10390000BDE81040FDF7A2B910BD00000054004012
:1039100088090020801A0600114810B50F4901607F
:103920004FF48271416000214FF40062C0E902123D
:103930000222026101224261520282611022C0E928
:103940000721416281620A21C162FEF712FF00284D
:1039500003D0BDE81040FDF779B910BD003001403B
:10396000640A002010B596B000240F9410941194AE
:10397000129413941C2168461494FCF7FEFB20213A
:1039800007A8FCF7FAFB37483549C0E900142021A5
:10399000816040F6C901C0E903148021C0E90541F6
:1039A000FFF7B4F808B1FDF751F94FF480500F90CC
:1039B0000FA92C48FFF72CF908B1FDF747F9294862
:1039C000FFF726FB08B1FDF741F9139413A9254829
:1039D0001494FFF767F808B1FDF738F96020CDE9D6
:1039E00000040294039404940594002269461D483F
:1039F0000694FFF7AAFA08B1FDF728F904226946F0
:103A00001848FFF7A2FA08B1FDF720F90822694625
:103A10001448FFF79AFA08B1FDF718F970200090E2
:103A200040F6AC0001900C2269460E48FFF78DFA73
:103A300008B1FDF70BF90794089409944FF400506E
:103A40000A94CDE90B4007A906480E94FFF700F849
:103A500008B1FDF7FBF80348FFF7FAF916B010BDFF
:103A6000002C0140440B002010B58EB000240794B8
:103A7000089409940A940B941C2168460C94FCF752
:103A80007CFB1D484FF0804101604721C0E90114D3
:103A900040F2E731C0E9031480218161FFF736F875
:103AA00008B1FDF7D3F84FF48050079007A91248EA
:103AB000FFF7AEF808B1FDF7C9F80F48FFF717FA9E
:103AC00008B1FDF7C3F80B940BA90B480C94FEF753
:103AD000E9FF08B1FDF7BAF80094019402940022BE
:103AE000694605480494FFF7DBF9002801D0FDF78B
:103AF000ADF80EB010BD00008C0B00200C4810B5C6
:103B00000A4901604FF4E1314160002181600C22DB
:103B1000C160C0E904128161C161FFF76FFC002838
:103B200003D0BDE81040FDF791B810BD003801404A
:103B3000D40B0020FEE7000070B5094DFF231A46A4
:103B400005F5807605E010F8014B54402A5D5A4097
:103B5000335D491E89B2F6D243EA022070BD0000EF
:103B6000944E00082DE9F05F0E460546994614462E
:103B700050218748FCF701FBB01E81B22846FFF7B1
:103B8000DBFF834FA919834BA7F8460031F8021CCD
:103B900049BAA7F8441088422AD1287838700128F9
:103BA00026D16E787E7068887B4942BA7A80002080
:103BB0004FF0010ADFF8E48109880FE008EB001CF0
:103BC000BCF800C0944502D187F84E0008E0884256
:103BD00002D187F84AA00FE0401CC0B28842EDD95C
:103BE000032E0CD04FF0080B062E5AD0102E7DD08D
:103BF000187840F0100018700020BDE8F09FA888E9
:103C000042BABA805000B87197F84E00104488420A
:103C100002D9401A101A82B200201EE097F84E1006
:103C2000014408EB0111D1E900311B0E022B02D037
:103C3000012B0BD00FE00B8807EB40010B814B7A77
:103C400081F830300B7A81F8313004E007EB400323
:103C5000097883F83110401CC0B29042DED3387826
:103C6000207078786070B879A0704949BA7930319D
:103C7000E01CFCF769FAB9792046C91CFFF75CFF24
:103C8000A7F84800BA79E01C97F849101154B9799F
:103C9000241D97F848000855B879401DA9F8000080
:103CA00073E097F84E0008EB0010D0E90021A888D7
:103CB000120E40BAA7F84C00012A02D0022A04D002
:103CC00004E0FF2885D8087000E00880387820706C
:103CD000787860707888000AA070B878E070B7F8DB
:103CE0004C00000A207197F84C0000E00CE0607175
:103CF00006212046FFF720FFA7F8480097F8490063
:103D0000A07197F848003DE0A88846BABE80AA791D
:103D1000BA7197F84E003044884202D9401A301ADE
:103D200086B21B487200E91D1C30FCF70DFA00201A
:103D30003D460CE095F84E1005EB4002014408EBBF
:103D40000111928B496852BA401C0A80C0B2B0423D
:103D5000F0D3287820706878607068880621000A9F
:103D6000A070A878E070A888000A20712879607196
:103D70002046FFF7E1FEA5F8480095F84900A0713C
:103D800095F84800E071A9F800B0012035E700007F
:103D900040050020AE040020A00000209450000840
:103DA0002DE9F05F824D834A04462878127800F0AE
:103DB000070ADFF804B2DFF80492814F4FF00008E1
:103DC00052450ED0010703D562F30200287008E0C7
:103DD0007C49CBF82080C1F82080C9F82080C7F842
:103DE00020807948794EBAF1070F24D2DFE80AF033
:103DF000CD04407FA1958B008078754B00036082D5
:103E0000A4F8148018786B4942468707A1F1100185
:103E10000AD440F0020018700120087362634FF466
:103E200048604A60088007E0087B012804D0022827
:103E300008D0032806D0A8E024F8402F4FF4805083
:103E40006080A2E02078098948434FF6FE7108405F
:103E50006049C20931F81220A4F84020802202EB08
:103E6000D010C0F3080031F81000A4F842008CE034
:103E700002796021602A00D901714279602A00D953
:103E800041718279602A00D981718146007934F8C4
:103E90002C7FC0F164007843FCF702FBDFF838B1F7
:103EA0004E4B5A46FCF71BFAFCF737FB000A2083FF
:103EB00099F80500C0F164007843FCF7F1FA5A461E
:103EC000464BFCF70CFAFCF728FB000A608399F8D4
:103ED0000600C0F164007843FCF7E2FA5A463F4B13
:103EE000FCF7FDF9FCF719FB000AA0834DE0A4F8EC
:103EF0001280287881063448007801D5C0EB001084
:103F00000003A08241E0307C400706D4F06878616D
:103F10002B4800F066F8B86AB060307C800708D49F
:103F2000B068C9F814004F46244800F05AF8B86A3F
:103F300030602878010606D500F00700042802D179
:103F40002046FFF782FBB4F92800DFF87890CBF821
:103F50001400B4F92610C9F814103068CBF810001A
:103F600071685F461448C9F8101000F03AF84846E6
:103F700000F037F8388DA082B9F8280060826878A0
:103F8000C00702D02046FCF7E1FC287800F00701CA
:103F900008480170307C401CC0B23074102803D92E
:103FA00086F8108000F086FB5046BDE8F09F0000C8
:103FB000B2040020F8040020E8050020600600207C
:103FC0009C06002024060020B4040020B005002038
:103FD000B0040020A80000207B14AE47E17A044022
:103FE000FEE730B5D0E904128B1A8360016ACA1863
:103FF000026204885C43C461C56841885D1B838894
:1040000051435D434562C36A9C4202D85B429C4275
:1040100000D2C361036B8B4202D35C428C4200D955
:104020001946436B9D4202D85B429D4200D24362D7
:10403000446AC36923440B448362816B8B4202D878
:1040400049428B4200D28162846AC1881B1B59435A
:10405000002902DD8A4203DC04E003DA8A4201DA45
:10406000511A00E00021016230BD00210180418031
:104070008180C1808160C160416101618161C161F4
:10408000016241628162C162016341637047000065
:10409000174800F13801428A0A80828A4A80C28A1F
:1040A0008A80826A0A63CA6252104A633C31028B78
:1040B0000A80428B4A80828B8A80C26A0A63CA6203
:1040C00052104A6300F1B002C18B1180018C518003
:1040D000016B1163D16200F1EC01428C0A80828C89
:1040E0004A80426B0A63CA62C08C886170470000D4
:1040F000B005002010B5FFF783FAFCF7E7FB104886
:10410000FCF71CFC0E48801CFCF7EEFB0C49002061
:10411000091F0880891C08800A48FFF7A6FF0A4883
:10412000FFF7A3FF0948FFF7A0FF0948FFF79DFF2E
:104130000848FCF7E5FBBDE810400748FCF734BD34
:10414000B2040020E80500202406002060060020BC
:104150009C060020B0050020BC04002030B5B0F95A
:104160002410B0F9424030F9222F01FB04F5B0F9D8
:104170001E3002FB135559432D1302FB0411C58059
:104180000913818030BD704710B5406A01684A68E4
:1041900022F003024A60416D41F0100141650121A6
:1041A00080F85110FEF7E4FA10BD10B5406AFEF732
:1041B000A4FB10BD10B5406AFEF733FC10BD70B50E
:1041C0000546446AFDF7B8FD024628680068800687
:1041D00026D42068416821F020014160A06818B908
:1041E0006068B0F5827F16D02068416821F0010137
:1041F00041606421204600F044F808B12020606549
:104200000020E087012084F85100606D40B1204615
:10421000FEF7AEFA70BD2068416821F00301E7E7C0
:104220002046FEF769FB70BD70B50546446AFDF790
:1042300083FD02462868006880061ED42068416815
:1042400021F0200141606421204600F048F818B1B7
:10425000606D40F0200060652068416821F0030136
:1042600041600020E086E087012084F85100606D05
:1042700018B12046FEF77CFA70BD2046FEF7D0FB51
:1042800070BDF8B5044640684FF48273984217D168
:10429000A0684FF48065B0F5004F01D0A8420FD15F
:1042A0002068066826F0400606606068984207D1DC
:1042B000A068A84204D100920B460022012103E02D
:1042C00000920B4600228021204600F019F80028B9
:1042D00004D0606D40F0200060650320F8BD38B563
:1042E0000B46009204460022802100F009F80028C5
:1042F00004D0606D40F020006065032038BD0000F0
:104300002DE9F8431E46914688460446089DFDF770
:1043100013FD401B351AFDF70FFD074625480068C1
:10432000C0F3CB30684338E0701C37D0FDF704FD94
:10433000C01BA84203D215B1009860B32CE02068DE
:10434000416821F0E00141606068B0F5827F0BD1E7
:10435000A068B0F5004F02D0B0F5806F04D120689E
:10436000016821F040010160A06AB0F5005F09D149
:104370002068016821F4005101602068016841F45F
:1043800000510160012084F85100002084F85000A1
:104390000320BDE8F8830025401E00902068816856
:1043A00038EA010004D000204845BDD10020F0E7E4
:1043B0000120F9E700000020054930F8442F0B6880
:1043C0005A630B6842889A6309688088C86370479B
:1043D000440B002010B51848FCF70EFD1748FCF7F9
:1043E0000BFD1648FDF7C8F91348FDF7C5F912484B
:1043F000FCF794FE1148FCF7E5FE022210490E4836
:10440000FCF772FF0C210F48FEF732FE0E48FEF754
:10441000D3FB1E220D490E48FFF796F80C480068A2
:10442000C16841F01001C1600122BDE810401103D4
:104430000848FDF77BBC000028090020580900202F
:1044400094000020440B00208C0B0020220500204B
:10445000D40B002000080140704700002DE9FE4FFA
:10446000B0F91850044600266810FCF719F8814688
:104470004F468846B4F91600FCF712F8DFF818B278
:1044800082465A46854B0091FBF729FF3A46434640
:10449000FBF71FFFFCF722F84146C84607B28946E2
:1044A00050465A467E4B0099FBF719FF42464B4651
:1044B000FBF70FFFFCF712F87A49562200B20A8088
:1044C000002D00DD0126002F01DD46F00206002848
:1044D00001DD46F00406072E26D2DFE806F02504AB
:1044E0000A11151B200079424FF002080EB240421B
:1044F00004E0404206B24FF00608684205B217E0F9
:104500004FF001083E4613E0684206B24FF004083F
:104510007842F3E72E464FF00308054608E04FF0D7
:10452000050806463D4603E04FF00008464645466E
:10453000208AFBF7C6FF02910191A78D834638467A
:10454000FBF7BFFF8246894630460091FBF7A8FF84
:10455000514A554BFBF7C3FE52464B46FBF7BFFE95
:104560005A46019BFBF72DFFFBF7D7FFC0F30F3631
:10457000029901912846DDF80090FBF791FF464A29
:10458000494BFBF7ACFE52464B46FBF7A8FE5A469A
:10459000019BFBF716FFFBF7C0FFC0F30F35414847
:1045A000424A434B46808580A8191FFA80F950463D
:1045B0000099FBF794FEFBF7B0FF80B2814508D964
:1045C00000FB06F1684391FBF9F190FBF9F08EB224
:1045D00085B2B8F1070F49D2DFE808F048040B1F95
:1045E000272F3B00B81B401B4008A4F84400B81913
:1045F00005E0B819401B4008A4F84400B81B401B54
:104600004008A4F84600701938444008A4F848004F
:10461000B4F84410012079B331E0701938444008EF
:10462000A4F84400B81B401B1AE070193844400835
:10463000A4F84400B819401B06E0B819401B400814
:10464000A4F84400701938444008A4F84600B81B88
:104650000AE0B81B401B4008A4F844007019384415
:104660004008A4F84600B819401BCEE77808A4F823
:104670004400A4F84600C9E7FFE7A4F84400B4F8F2
:10468000461009B9A4F84600B4F84810002901D131
:10469000A4F84800BDE8FE8F2D5BEB8B84B6EB3FA2
:1046A00084B6EBBFA200002084B6FB3FB81E85EBAA
:1046B00051B8EE3F30B51349134A144B487812698C
:1046C000C40603D440F0100048705A6058689968D6
:1046D000101A0C1AFA2C00DD0846441AFA2C00DDD8
:1046E000084647F6FB7404444FF6F775AC4200D316
:1046F0000846C3E90120064900EB40000011886329
:1047000030BD0000B0040020BC040020F8040020EC
:10471000D8060020FDF740BC30B593B0282168468C
:10472000FBF72BFD14210AA8FBF727FD002401212C
:104730000F9410940804CDE900101194129402947F
:1047400002250491CDE907504FF4E0100990684626
:10475000FDF782FE08B172B6FEE70F20CDE90A052B
:104760004FF48060CDE90C4002210AA80E94FDF7B9
:1047700081FD08B172B6FEE74FF4004011900F952D
:104780000FA8FDF703FD002801D072B6FEE713B0B5
:1047900030BD70470148FEF7A7BA00008C0B00201F
:1047A000F0B50268164C174D174E4FF08047A042E7
:1047B00005D0B84203D0A84201D0B04203D122F0C4
:1047C00070034A681A43A04205D0B84203D0A842F9
:1047D00001D0B04203D122F44073CA681A434B6936
:1047E00022F080021A4302608A68C2620A6882620A
:1047F000A04201D10969016301214161F0BD0000BE
:10480000002C0140000400400008004010B501F0F9
:104810001F010123046A8B409C430462036A8A409F
:104820001343036210BD10B5846842EA032224F4E6
:104830007F440A432243826010BD826822F07002E6
:104840000A4342F0070181607047000030B5026AF8
:1048500022F001020262036A4268846924F073054F
:104860000C682C4323F002058B682B430C4DA842A7
:1048700006D123F00805CB6843EA050323F00403BF
:1048800007D14D6922F4407245EA02058A6942EA7D
:1048900005024260846149684163036230BD0000E3
:1048A000002C014030B5026A22F010020262026A56
:1048B000436884690D6824F4E64444EA05248D685D
:1048C00022F0200242EA05120C4DA84206D1CD6822
:1048D00022F0800242EA051222F0400207D14D691F
:1048E00023F4406343EA85038D6943EA850343600B
:1048F000846149688163026230BD0000002C014080
:1049000030B5026A22F480720262036A4268C469A6
:1049100023F4007324F073050C682C438D6843EA7C
:1049200005230C4DA84206D1CD6823F4006343EA69
:10493000052323F4806307D14D6922F4405242EAF3
:1049400005128D6942EA05124260C4614968C1637B
:10495000036230BD002C014030B5026A22F480525F
:104960000262036A4268C4690D6824F4E64444EABA
:1049700005248D6823F4005343EA0533064DA8420D
:1049800004D14D6922F4804242EA85124260C4613A
:1049900049680164036230BD002C014010B5046A0F
:1049A000036A23F001030362836923F0F00343EAFF
:1049B000021324F00A020A438361026210BD10B59B
:1049C000036A23F0100303628469036A24F47044C9
:1049D00044EA023223F0A00343EA0111826101623A
:1049E00010BD10B5406A0021C185C184FEF7FEFBF1
:1049F00010BD70B5446A2068406994F83D10C0F35A
:104A0000C0100025212904D118B1E584204600F00A
:104A100083F82068406994F83E10C0F38010222982
:104A200004D118B1E585204600F05EF8206C40F016
:104A3000100020642046FEF7D9FB70BD10B501467A
:104A4000406A0968096889061BD40021C18501688C
:104A5000CA6822F48072CA6001684A6922F00102C1
:104A60004A6101684A6922F040024A61202180F8C7
:104A70003E10016B012904D10168CA6822F01002BE
:104A8000CA60016B012902D0FEF773FD10BD818D54
:104A9000FEF77FFB10BD10B5406A016B012902D003
:104AA000FEF768FD10BD818D4908FEF772FB10BD51
:104AB00010B50146406A0968096889060CD40021CE
:104AC000C18401684A6922F080024A610068C168B5
:104AD00041F04001C16010BDFEF78EFD10BD10B564
:104AE000406AFEF78AFD10BD0168CA6822F4907220
:104AF000CA6001684A6922F001024A61016B01291A
:104B000004D10168CA6822F01002CA60202180F82E
:104B10003E100021016370470168CA6822F0C0029C
:104B2000CA60202180F83D10704708B590F83E100B
:104B3000222901D0022008BD81684FF48053994298
:104B400001D1026922B1826A99421BD049B10AE0BF
:104B50000268816A5268C2F308020A80816A891C6D
:104B600008E0016971B10168496801F07F011170C5
:104B7000816A491C8162C18D491E0904090CC185E5
:104B800003D019E001684968F1E70168CA6822F0BA
:104B90002002CA600168CA6822F48072CA60016893
:104BA0004A6922F001024A61202180F83E10016B1F
:104BB000012903D0FEF7DDFC002008BD00210163C0
:104BC0000168CA6822F01002CA6001680A68D20649
:104BD00002D50A6849680091818DFEF7DAFAEBE7A1
:104BE00070B5044600680169E26821F44051114340
:104BF0000161A16820690143606901432068C268BE
:104C000041F20C639A430A43C26020684169A26979
:104C100021F44071114341611E492068884202D14C
:104C2000FDF7D4FB01E0FDF7C1FB00EBC00101EB98
:104C30000011606864228000B1FBF0F3B3FBF2F373
:104C40006FF018067343B1FBF0F5B1FBF0F605EB1E
:104C50008305322303EB0515B5FBF2F5B6FBF2F63F
:104C600005F0F00505EB0615B1FBF0F6B1FBF0F031
:104C7000B0FBF2F06FF01801484306EB800003EB45
:104C80000010B0FBF2F0216800F00F0028448860AB
:104C900070BD00000038014037B582B01346039A5A
:104CA00082628385002504460564222084F83E0044
:104CB000A16B13488862A16B1248C862A16B1248AD
:104CC0000863A06B45632168A06B091DFCF7FEFE1D
:104CD000206801684168009184F83C50C16841F443
:104CE0008071C1602068416941F001014161206823
:104CF000416941F04001416105B0002030BD000034
:104D00003D4A0008974A0008F349000808B50A48D8
:104D1000FEF76EFA08480949006888420BD101681D
:104D2000C943C90607D4016840680090BDE808403F
:104D3000014800F06BB808BDD40B002000380140DA
:104D4000FEE702780A4302707047027809B1012039
:104D500000E00020024201D001207047002070478F
:104D60000907090E002804DB00F1E02080F8001498
:104D7000704700F00F0000F1E02080F8141D70472C
:104D800002E008C8121F08C1002AFAD17047704714
:104D9000002001E001C1121F002AFBD17047000072
:104DA000FDF702F9FFF7B8FCFEF716FDFEF7D6FC9B
:104DB000FEF7A4FEFEF74AFCFEF792FCFEF7ACFD00
:104DC000FEF7D0FDFEF788FDFEF74EFEFFF702FB73
:104DD000FFF790F90B48FBF7B1FC0B4C00224FF4A6
:104DE00000512046FCF7A2FF012291032046FCF768
:104DF0009DFF0022A1142046FCF798FF0A20FCF733
:104E00009DFEFBE7D8060020000C014010B51548B8
:104E1000FEF7C0F91348883000684068124CC0B2F1
:104E2000C0F11E00C2B2227010491148FBF78CF984
:104E300021780E48FBF7A1F90E4B0F4A21780C4858
:104E4000FEF790FE012805D10A480B490288054863
:104E5000FEF792FBBDE810401E2204490148FEF710
:104E600073BB0000D40B00209C0000202205002012
:104E7000900500209E000020040500200000000096
:104E800000000000010203040607080900000000FA
:104E90000102030400C1814001C0804101C0804182
:104EA00000C1814001C0804100C1814000C18140FA
:104EB00001C0804101C0804100C1814000C18140EA
:104EC00001C0804100C1814001C0804101C08041DA
:104ED00000C1814001C0804100C1814000C18140CA
:104EE00001C0804100C1814001C0804101C08041BA
:104EF00000C1814000C1814001C0804101C08041AA
:104F000000C1814001C0804100C1814000C1814099
:104F100001C0804101C0804100C1814000C1814089
:104F200001C0804100C1814001C0804101C0804179
:104F300000C1814000C1814001C0804101C0804169
:104F400000C1814001C0804100C1814000C1814059
:104F500001C0804100C1814001C0804101C0804149
:104F600000C1814001C0804100C1814000C1814039
:104F700001C0804101C0804100C1814000C1814029
:104F800001C0804100C1814001C0804101C0804119
:104F900000C1814000C0C101C30302C2C60607C7E9
:104FA00005C5C404CC0C0DCD0FCFCE0E0ACACB0B59
:104FB000C90908C8D81819D91BDBDA1A1EDEDF1F89
:104FC000DD1D1CDC14D4D515D71716D6D21213D379
:104FD00011D1D010F03031F133F3F23236F6F73729
:104FE000F53534F43CFCFD3DFF3F3EFEFA3A3BFB19
:104FF00039F9F83828E8E929EB2B2AEAEE2E2FEFC9
:105000002DEDEC2CE42425E527E7E62622E2E32338
:10501000E12120E0A06061A163A3A26266A6A76768
:10502000A56564A46CACAD6DAF6F6EAEAA6A6BABD8
:1050300069A9A86878B8B979BB7B7ABABE7E7FBF08
:105040007DBDBC7CB47475B577B7B67672B2B373F8
:10505000B17170B0509091519353529296565797A8
:10506000559594549C5C5D9D5F9F9E5E5A9A9B5B98
:1050700099595898884849894B8B8A4A4E8E8F4F48
:105080008D4D4C8C448485458747468682424383B8
:1050900041818040000000018F050020FF000000DA
:1050A0000000000001000001B2040020FF00000029
:1050B0000000000002000001B7040020FF00000013
:1050C0000000000003000001B2040020FF00000007
:1050D0000000000004000001B2040020FF000000F6
:1050E0000000000005000001B4040020FF000000E3
:1050F0000000000006000001B2040020FF000000D4
:105100000000000007000001B5040020FF000000BF
:105110000000000008000002B0050020FFFF0000B2
:105120000000000009000002A8040020FFFF0000AA
:10513000000000000A000002BC050020FFFF000084
:10514000000000000B000002C2050020FFFF00006D
:10515000000000000C000002C4050020FFFF00005A
:10516000000000000D000002C6050020FFFF000047
:10517000000000000E000002C8050020FFFF000034
:10518000000000000F000002CA050020FFFF000021
:105190000000000010000002CC050020FFFF00000E
:1051A0000000000011000002CE050020FFFF0000FB
:1051B0000000000012000002D0050020FFFF0000E8
:1051C0000000000013000002D2050020FFFF0000D5
:1051D0000000000014000002D4050020FFFF0000C2
:1051E0000000000015000002E4050020FFFF0000A1
:1051F0000000000016000002D6050020FFFF00009E
:105200000000000017000002AE040020FFFF0000B5
:105210000000000018000002D8050020FFFF000079
:105220000000000019000002DC050020FFFF000064
:10523000000000001A000002E0050020FFFF00004F
:10524000000000001B000002E0050020FFFF00003E
:10525000000000001C000002E0050020FFFF00002D
:10526000000000001D000002E0050020FFFF00001C
:10527000000000001E000002AC040020FFFF000040
:1052800000000000A452000800000020BC04000040
:105290006C06000884560008BC040020E40B0000E3
:1052A000904D0008400B0024F400010000001000A5
:1052B00001000413010E000182020B62831200053B
:1052C0001D0211080001712C0229032C01141F1466
:1052D000FD320065009700C900FB002D015F0191C0
:1052E00001C301F501270259028B02BC02EE021F25
:1052F0000350038103B203E303140444047504A5BB
:1053000004D5040505340564059305C205F1051FA0
:10531000064E067C06AA06D706050732075E078BEF
:1053200007B707E3070E083A0865088F08BA08E4CC
:10533000080D0937095F098809B009D809FF09264E
:105340000A4D0A730A990ABF0AE40A080B2D0B508A
:105350000B740B970BB90BDB0BFC0B1E0C3E0C5E9E
:105360000C7E0C9D0CBC0CDA0CF80C150D320D4E9D
:105370000D690D850D9F0DB90DD30DEC0D040E1C9F
:105380000E340E4B0E610E770E8C0EA10EB50EC8AC
:105390000EDB0EEE0EFF0E110F210F310F410F50DD
:1053A0000F5E0F6C0F790F850F910F9C0FA70FB138
:1053B0000FBB0FC40FCC0FD40FDB0FE10FE70FECC7
:1053C0000FF10FF50FF80FFB0FFD0FFF0F9F1102ED
:1053D00012FF0C12FB1412F51C12EC2412E12C1219
:1053E000D43412C43C12B144129C4C128554126C39
:1053F0005C12506412316C1004110FFF7812DB80C4
:1054000012B588128C901261981234A01004040E08
:10541000ECAC12B9B41285BC124EC41004150DF8D0
:10542000D012BCD8127EE010063E0C1E0CFCF0120E
:10543000B9F816740014062D0B080BE41016991811
:1054400014064D0A260AFF2816B030165F381404D9
:105450000D09E444168F4C14063A080E08E35C1656
:105460008B64140632070507D774167C7C14041F5E
:1054700006F188169390140634050505D5A0167517
:10548000A814041404E3B41681BC14041F03EEC86A
:10549000168BD014042702F5DC1691E414042D01B8
:1054A000FBF01697F81A324B30FECEFF9BFF69FFD8
:1054B00037FF05FFD3FEA1FE6FFE3DFE0BFED9FDBB
:1054C000A7FD75FD44FD12FDE1FCB0FC7FFC4EFC28
:1054D0001DFCECFBBCFB8BFB5BFB2BFBFBFACCFA58
:1054E0009CFA6DFA3EFA0FFAE1F9B2F984F956F92D
:1054F00029F9FBF8CEF8A2F875F849F81DF8F2F78B
:10550000C6F79BF771F746F71CF7F3F6C9F6A1F655
:1055100078F650F628F601F6DAF5B3F58DF567F56D
:1055200041F51CF5F8F4D3F4B0F48CF469F447F4C5
:1055300025F404F4E2F3C2F3A2F382F363F344F339
:1055400026F308F3EBF2CEF2B2F297F27BF261F2BD
:1055500047F22DF214F2FCF1E4F1CCF1B5F19FF138
:1055600089F174F15FF14BF138F125F112F101F19C
:10557000EFF0DFF0CFF0BFF0B0F0A2F094F087F0E2
:105580007BF06FF064F059F04FF045F03CF034F0F0
:105590002CF025F01FF019F014F00FF00BF008F0CC
:1055A00005F003F001F0000212010C120514120BB9
:1055B0001C121424121F2C122C34123C3C124F4487
:1055C00012644C127B5412945C12B06412CF6C10B3
:1055D00004EFF00178122580124B88127490129F0C
:1055E0009812CCA01004FCF114AC1247B4127BBC8E
:1055F00012B2C41004EBF208D01244D81282E010A8
:1056000006C2F3E2F304F01247F8168C001406D336
:10561000F4F8F41C101667181406B3F5DAF501282F
:1056200016503016A1381404F3F61C4416714C14AD
:1056300006C6F7F2F71D5C1675641406CEF8FBF883
:10564000297416847C1404E1F90F88166D901406F1
:10565000CCFAFBFA2BA0168BA81404ECFB1DB41695
:105660007FBC1404E1FC12C81675D01404D9FD0BDC
:10567000DC166FE41404D3FE05F01669F80F12CEA1
:04568000FF3D0400E6
:04000005080000ED02
:00000001FF
